{
  "_format": "hh-sol-artifact-1",
  "contractName": "BuyOrder",
  "sourceName": "contracts/BuyOrder.sol",
  "abi": [
    {
      "inputs": [
        {
          "internalType": "address payable",
          "name": "_collector",
          "type": "address"
        }
      ],
      "stateMutability": "nonpayable",
      "type": "constructor"
    },
    {
      "anonymous": false,
      "inputs": [
        {
          "indexed": false,
          "internalType": "uint256",
          "name": "offerID",
          "type": "uint256"
        },
        {
          "indexed": true,
          "internalType": "address",
          "name": "buyer",
          "type": "address"
        },
        {
          "indexed": false,
          "internalType": "address",
          "name": "paymentToken",
          "type": "address"
        },
        {
          "indexed": true,
          "internalType": "address",
          "name": "token",
          "type": "address"
        },
        {
          "indexed": true,
          "internalType": "uint256",
          "name": "tokenID",
          "type": "uint256"
        },
        {
          "indexed": false,
          "internalType": "uint256",
          "name": "amount",
          "type": "uint256"
        },
        {
          "indexed": false,
          "internalType": "uint256",
          "name": "deadline",
          "type": "uint256"
        },
        {
          "indexed": false,
          "internalType": "uint256",
          "name": "price",
          "type": "uint256"
        },
        {
          "indexed": false,
          "internalType": "uint256",
          "name": "fee",
          "type": "uint256"
        }
      ],
      "name": "Buy",
      "type": "event"
    },
    {
      "anonymous": false,
      "inputs": [
        {
          "indexed": false,
          "internalType": "uint256",
          "name": "offerID",
          "type": "uint256"
        },
        {
          "indexed": true,
          "internalType": "address",
          "name": "canceller",
          "type": "address"
        },
        {
          "indexed": false,
          "internalType": "address",
          "name": "paymentToken",
          "type": "address"
        },
        {
          "indexed": true,
          "internalType": "address",
          "name": "token",
          "type": "address"
        },
        {
          "indexed": true,
          "internalType": "uint256",
          "name": "tokenID",
          "type": "uint256"
        },
        {
          "indexed": false,
          "internalType": "uint256",
          "name": "time",
          "type": "uint256"
        }
      ],
      "name": "Cancel",
      "type": "event"
    },
    {
      "anonymous": false,
      "inputs": [
        {
          "indexed": true,
          "internalType": "address",
          "name": "previousOwner",
          "type": "address"
        },
        {
          "indexed": true,
          "internalType": "address",
          "name": "newOwner",
          "type": "address"
        }
      ],
      "name": "OwnershipTransferred",
      "type": "event"
    },
    {
      "anonymous": false,
      "inputs": [
        {
          "indexed": false,
          "internalType": "uint256",
          "name": "offerID",
          "type": "uint256"
        },
        {
          "indexed": true,
          "internalType": "address",
          "name": "admin",
          "type": "address"
        },
        {
          "indexed": false,
          "internalType": "address",
          "name": "paymentToken",
          "type": "address"
        },
        {
          "indexed": true,
          "internalType": "address",
          "name": "token",
          "type": "address"
        },
        {
          "indexed": true,
          "internalType": "uint256",
          "name": "tokenID",
          "type": "uint256"
        },
        {
          "indexed": false,
          "internalType": "uint256",
          "name": "amount",
          "type": "uint256"
        },
        {
          "indexed": false,
          "internalType": "uint256",
          "name": "deadline",
          "type": "uint256"
        },
        {
          "indexed": false,
          "internalType": "uint256",
          "name": "price",
          "type": "uint256"
        }
      ],
      "name": "Sell",
      "type": "event"
    },
    {
      "inputs": [
        {
          "internalType": "address",
          "name": "_paymentToken",
          "type": "address"
        },
        {
          "internalType": "address",
          "name": "_nft",
          "type": "address"
        },
        {
          "internalType": "uint256",
          "name": "_id",
          "type": "uint256"
        },
        {
          "internalType": "uint256",
          "name": "_amount",
          "type": "uint256"
        },
        {
          "internalType": "uint256",
          "name": "_price",
          "type": "uint256"
        },
        {
          "internalType": "uint256",
          "name": "_deadline",
          "type": "uint256"
        }
      ],
      "name": "CreateBuyOrder",
      "outputs": [],
      "stateMutability": "nonpayable",
      "type": "function"
    },
    {
      "inputs": [
        {
          "internalType": "uint256",
          "name": "_offerID",
          "type": "uint256"
        },
        {
          "internalType": "uint256",
          "name": "_amount",
          "type": "uint256"
        }
      ],
      "name": "FillOrder",
      "outputs": [],
      "stateMutability": "nonpayable",
      "type": "function"
    },
    {
      "inputs": [
        {
          "internalType": "uint256",
          "name": "offerID",
          "type": "uint256"
        }
      ],
      "name": "cancelOffer",
      "outputs": [],
      "stateMutability": "nonpayable",
      "type": "function"
    },
    {
      "inputs": [],
      "name": "numOffers",
      "outputs": [
        {
          "internalType": "uint256",
          "name": "",
          "type": "uint256"
        }
      ],
      "stateMutability": "view",
      "type": "function"
    },
    {
      "inputs": [
        {
          "internalType": "uint256",
          "name": "",
          "type": "uint256"
        }
      ],
      "name": "offers",
      "outputs": [
        {
          "internalType": "address",
          "name": "admin",
          "type": "address"
        },
        {
          "internalType": "bool",
          "name": "available",
          "type": "bool"
        },
        {
          "internalType": "address",
          "name": "paymentToken",
          "type": "address"
        },
        {
          "internalType": "address",
          "name": "token",
          "type": "address"
        },
        {
          "internalType": "uint256",
          "name": "tokenID",
          "type": "uint256"
        },
        {
          "internalType": "uint256",
          "name": "amount",
          "type": "uint256"
        },
        {
          "internalType": "uint256",
          "name": "deadline",
          "type": "uint256"
        },
        {
          "internalType": "uint256",
          "name": "price",
          "type": "uint256"
        }
      ],
      "stateMutability": "view",
      "type": "function"
    },
    {
      "inputs": [
        {
          "internalType": "address",
          "name": "",
          "type": "address"
        },
        {
          "internalType": "address",
          "name": "",
          "type": "address"
        },
        {
          "internalType": "uint256",
          "name": "",
          "type": "uint256"
        },
        {
          "internalType": "uint256",
          "name": "",
          "type": "uint256"
        },
        {
          "internalType": "bytes",
          "name": "",
          "type": "bytes"
        }
      ],
      "name": "onERC1155Received",
      "outputs": [
        {
          "internalType": "bytes4",
          "name": "",
          "type": "bytes4"
        }
      ],
      "stateMutability": "nonpayable",
      "type": "function"
    },
    {
      "inputs": [],
      "name": "owner",
      "outputs": [
        {
          "internalType": "address",
          "name": "",
          "type": "address"
        }
      ],
      "stateMutability": "view",
      "type": "function"
    },
    {
      "inputs": [],
      "name": "renounceOwnership",
      "outputs": [],
      "stateMutability": "nonpayable",
      "type": "function"
    },
    {
      "inputs": [
        {
          "internalType": "address payable",
          "name": "_collector",
          "type": "address"
        }
      ],
      "name": "setCollector",
      "outputs": [],
      "stateMutability": "nonpayable",
      "type": "function"
    },
    {
      "inputs": [
        {
          "internalType": "uint256",
          "name": "_fee",
          "type": "uint256"
        }
      ],
      "name": "setFee",
      "outputs": [],
      "stateMutability": "nonpayable",
      "type": "function"
    },
    {
      "inputs": [
        {
          "internalType": "address",
          "name": "newOwner",
          "type": "address"
        }
      ],
      "name": "transferOwnership",
      "outputs": [],
      "stateMutability": "nonpayable",
      "type": "function"
    },
    {
      "inputs": [
        {
          "internalType": "address",
          "name": "_token",
          "type": "address"
        },
        {
          "internalType": "address",
          "name": "_paymentToken",
          "type": "address"
        },
        {
          "internalType": "uint256",
          "name": "_tokenID",
          "type": "uint256"
        },
        {
          "internalType": "uint256",
          "name": "_amount",
          "type": "uint256"
        },
        {
          "internalType": "uint256",
          "name": "_deadline",
          "type": "uint256"
        },
        {
          "internalType": "uint256",
          "name": "_price",
          "type": "uint256"
        },
        {
          "internalType": "uint256",
          "name": "_offerID",
          "type": "uint256"
        }
      ],
      "name": "updateOffer",
      "outputs": [],
      "stateMutability": "nonpayable",
      "type": "function"
    }
  ],
  "bytecode": "0x60806040523480156200001157600080fd5b50604051620027d6380380620027d683398181016040528101906200003791906200018b565b620000576200004b620000a860201b60201c565b620000b060201b60201c565b6101f460048190555080600360006101000a81548173ffffffffffffffffffffffffffffffffffffffff021916908373ffffffffffffffffffffffffffffffffffffffff1602179055505062000205565b600033905090565b60008060009054906101000a900473ffffffffffffffffffffffffffffffffffffffff169050816000806101000a81548173ffffffffffffffffffffffffffffffffffffffff021916908373ffffffffffffffffffffffffffffffffffffffff1602179055508173ffffffffffffffffffffffffffffffffffffffff168173ffffffffffffffffffffffffffffffffffffffff167f8be0079c531659141344cd1fd0a4f28419497f9722a3daafe3b4186f6b6457e060405160405180910390a35050565b6000815190506200018581620001eb565b92915050565b6000602082840312156200019e57600080fd5b6000620001ae8482850162000174565b91505092915050565b6000620001c482620001cb565b9050919050565b600073ffffffffffffffffffffffffffffffffffffffff82169050919050565b620001f681620001b7565b81146200020257600080fd5b50565b6125c180620002156000396000f3fe608060405234801561001057600080fd5b50600436106100b35760003560e01c8063cc6bee5411610071578063cc6bee541461016b578063e7ece0fb14610189578063ef706adf146101a5578063f23a6e61146101c1578063f2fde38b146101f1578063fb5b82d01461020d576100b3565b80623e9d5b146100b857806369fe0e2d146100d4578063715018a6146100f05780638a72ea6a146100fa5780638da5cb5b14610131578063b8dd7b681461014f575b600080fd5b6100d260048036038101906100cd9190611a33565b610229565b005b6100ee60048036038101906100e991906119e1565b6109ca565b005b6100f8610a50565b005b610114600480360381019061010f91906119e1565b610ad8565b604051610128989796959493929190611f04565b60405180910390f35b610139610b8d565b6040516101469190611dfa565b60405180910390f35b61016960048036038101906101649190611891565b610bb6565b005b610173610db2565b6040516101809190612146565b60405180910390f35b6101a3600480360381019061019e919061191a565b610db8565b005b6101bf60048036038101906101ba91906119e1565b611225565b005b6101db60048036038101906101d69190611802565b61142d565b6040516101e89190611fab565b60405180910390f35b61020b600480360381019061020691906117b0565b61145b565b005b610227600480360381019061022291906117d9565b611553565b005b6001600083815260200190815260200160002060000160149054906101000a900460ff1661028c576040517f08c379a000000000000000000000000000000000000000000000000000000000815260040161028390612126565b60405180910390fd5b42600160008481526020019081526020016000206005015410156102e5576040517f08c379a00000000000000000000000000000000000000000000000000000000081526004016102dc90612106565b60405180910390fd5b806001600084815260200190815260200160002060040154101561033e576040517f08c379a000000000000000000000000000000000000000000000000000000000815260040161033590612066565b60405180910390fd5b60006001600084815260200190815260200160002060020160009054906101000a900473ffffffffffffffffffffffffffffffffffffffff1690508073ffffffffffffffffffffffffffffffffffffffff1663e985e9c533306040518363ffffffff1660e01b81526004016103b4929190611e15565b60206040518083038186803b1580156103cc57600080fd5b505afa1580156103e0573d6000803e3d6000fd5b505050506040513d601f19601f8201168201806040525081019061040491906119b8565b610443576040517f08c379a000000000000000000000000000000000000000000000000000000000815260040161043a90612046565b60405180910390fd5b60006001600085815260200190815260200160002060010160009054906101000a900473ffffffffffffffffffffffffffffffffffffffff16905060008360016000878152602001908152602001600020600601546104a29190612300565b90506000600454826104b491906122cf565b905060008373ffffffffffffffffffffffffffffffffffffffff1663dd62ed3e33306040518363ffffffff1660e01b81526004016104f3929190611e15565b60206040518083038186803b15801561050b57600080fd5b505afa15801561051f573d6000803e3d6000fd5b505050506040513d601f19601f820116820180604052508101906105439190611a0a565b905082811015610588576040517f08c379a000000000000000000000000000000000000000000000000000000000815260040161057f906120a6565b60405180910390fd5b8560016000898152602001908152602001600020600401546105aa919061235a565b60016000898152602001908152602001600020600401819055506000600160008981526020019081526020016000206004015414156106135760006001600089815260200190815260200160002060000160146101000a81548160ff0219169083151502179055505b8373ffffffffffffffffffffffffffffffffffffffff166323b872dd33600360009054906101000a900473ffffffffffffffffffffffffffffffffffffffff16856040518463ffffffff1660e01b815260040161067293929190611e3e565b602060405180830381600087803b15801561068c57600080fd5b505af11580156106a0573d6000803e3d6000fd5b505050506040513d601f19601f820116820180604052508101906106c491906119b8565b610703576040517f08c379a00000000000000000000000000000000000000000000000000000000081526004016106fa906120c6565b60405180910390fd5b8373ffffffffffffffffffffffffffffffffffffffff166323b872dd33600160008b815260200190815260200160002060000160009054906101000a900473ffffffffffffffffffffffffffffffffffffffff168587610763919061235a565b6040518463ffffffff1660e01b815260040161078193929190611e75565b602060405180830381600087803b15801561079b57600080fd5b505af11580156107af573d6000803e3d6000fd5b505050506040513d601f19601f820116820180604052508101906107d391906119b8565b610812576040517f08c379a0000000000000000000000000000000000000000000000000000000008152600401610809906120c6565b60405180910390fd5b8473ffffffffffffffffffffffffffffffffffffffff1663f242432a600160008a815260200190815260200160002060000160009054906101000a900473ffffffffffffffffffffffffffffffffffffffff1633600160008c8152602001908152602001600020600301548a6040518563ffffffff1660e01b815260040161089d9493929190611eac565b600060405180830381600087803b1580156108b757600080fd5b505af11580156108cb573d6000803e3d6000fd5b5050505060016000888152602001908152602001600020600301546001600089815260200190815260200160002060020160009054906101000a900473ffffffffffffffffffffffffffffffffffffffff1673ffffffffffffffffffffffffffffffffffffffff163373ffffffffffffffffffffffffffffffffffffffff167ff28b5bc8babcc81fa6313226e5b69365b1b90d7912d47904c20cd73334a5a6578a600160008d815260200190815260200160002060010160009054906101000a900473ffffffffffffffffffffffffffffffffffffffff168b428a8a6040516109b9969594939291906121eb565b60405180910390a450505050505050565b6109d2611613565b73ffffffffffffffffffffffffffffffffffffffff166109f0610b8d565b73ffffffffffffffffffffffffffffffffffffffff1614610a46576040517f08c379a0000000000000000000000000000000000000000000000000000000008152600401610a3d90612086565b60405180910390fd5b8060048190555050565b610a58611613565b73ffffffffffffffffffffffffffffffffffffffff16610a76610b8d565b73ffffffffffffffffffffffffffffffffffffffff1614610acc576040517f08c379a0000000000000000000000000000000000000000000000000000000008152600401610ac390612086565b60405180910390fd5b610ad6600061161b565b565b60016020528060005260406000206000915090508060000160009054906101000a900473ffffffffffffffffffffffffffffffffffffffff16908060000160149054906101000a900460ff16908060010160009054906101000a900473ffffffffffffffffffffffffffffffffffffffff16908060020160009054906101000a900473ffffffffffffffffffffffffffffffffffffffff16908060030154908060040154908060050154908060060154905088565b60008060009054906101000a900473ffffffffffffffffffffffffffffffffffffffff16905090565b60006001600060025481526020019081526020016000209050338160000160006101000a81548173ffffffffffffffffffffffffffffffffffffffff021916908373ffffffffffffffffffffffffffffffffffffffff16021790555060018160000160146101000a81548160ff021916908315150217905550868160010160006101000a81548173ffffffffffffffffffffffffffffffffffffffff021916908373ffffffffffffffffffffffffffffffffffffffff160217905550858160020160006101000a81548173ffffffffffffffffffffffffffffffffffffffff021916908373ffffffffffffffffffffffffffffffffffffffff160217905550848160030181905550838160040181905550818160050181905550828160060181905550848160020160009054906101000a900473ffffffffffffffffffffffffffffffffffffffff1673ffffffffffffffffffffffffffffffffffffffff163373ffffffffffffffffffffffffffffffffffffffff167f19b1bd3f56d9a4ebfe7efc3fe2352523fa1418142e6db1e712ef55db67242a196002548560010160009054906101000a900473ffffffffffffffffffffffffffffffffffffffff1689888a604051610d89959493929190612198565b60405180910390a460026000815480929190610da490612459565b919050555050505050505050565b60025481565b806002548110610dfd576040517f08c379a0000000000000000000000000000000000000000000000000000000008152600401610df490611fc6565b60405180910390fd5b6001600083815260200190815260200160002060000160009054906101000a900473ffffffffffffffffffffffffffffffffffffffff1673ffffffffffffffffffffffffffffffffffffffff163373ffffffffffffffffffffffffffffffffffffffff1614610ea1576040517f08c379a0000000000000000000000000000000000000000000000000000000008152600401610e98906120e6565b60405180910390fd5b60008890508073ffffffffffffffffffffffffffffffffffffffff1663e985e9c533306040518363ffffffff1660e01b8152600401610ee1929190611e15565b60206040518083038186803b158015610ef957600080fd5b505afa158015610f0d573d6000803e3d6000fd5b505050506040513d601f19601f82011682018060405250810190610f3191906119b8565b610f70576040517f08c379a0000000000000000000000000000000000000000000000000000000008152600401610f6790612026565b60405180910390fd5b60008611610fb3576040517f08c379a0000000000000000000000000000000000000000000000000000000008152600401610faa90611fe6565b60405180910390fd5b60008173ffffffffffffffffffffffffffffffffffffffff1662fdd58e338a6040518363ffffffff1660e01b8152600401610fef929190611f82565b60206040518083038186803b15801561100757600080fd5b505afa15801561101b573d6000803e3d6000fd5b505050506040513d601f19601f8201168201806040525081019061103f9190611a0a565b90508087111561104e57600080fd5b6000600160008681526020019081526020016000209050898160010160006101000a81548173ffffffffffffffffffffffffffffffffffffffff021916908373ffffffffffffffffffffffffffffffffffffffff1602179055508a8160020160006101000a81548173ffffffffffffffffffffffffffffffffffffffff021916908373ffffffffffffffffffffffffffffffffffffffff16021790555088816003018190555087816004018190555086816005018190555085816006018190555060018160000160146101000a81548160ff02191690831515021790555080600301548160020160009054906101000a900473ffffffffffffffffffffffffffffffffffffffff1673ffffffffffffffffffffffffffffffffffffffff168260000160009054906101000a900473ffffffffffffffffffffffffffffffffffffffff1673ffffffffffffffffffffffffffffffffffffffff167f19b1bd3f56d9a4ebfe7efc3fe2352523fa1418142e6db1e712ef55db67242a196002548560010160009054906101000a900473ffffffffffffffffffffffffffffffffffffffff16866004015487600501548860060154604051611210959493929190612198565b60405180910390a45050505050505050505050565b80600254811061126a576040517f08c379a000000000000000000000000000000000000000000000000000000000815260040161126190611fc6565b60405180910390fd5b6001600083815260200190815260200160002060000160009054906101000a900473ffffffffffffffffffffffffffffffffffffffff1673ffffffffffffffffffffffffffffffffffffffff163373ffffffffffffffffffffffffffffffffffffffff161461130e576040517f08c379a0000000000000000000000000000000000000000000000000000000008152600401611305906120e6565b60405180910390fd5b60006001600084815260200190815260200160002060000160146101000a81548160ff02191690831515021790555060016000838152602001908152602001600020600301546001600084815260200190815260200160002060020160009054906101000a900473ffffffffffffffffffffffffffffffffffffffff1673ffffffffffffffffffffffffffffffffffffffff163373ffffffffffffffffffffffffffffffffffffffff167f47df9e3a73478d4997abc83cf4d4c607a6da86c083e7219fb382fbd96eb53285856001600088815260200190815260200160002060010160009054906101000a900473ffffffffffffffffffffffffffffffffffffffff164260405161142193929190612161565b60405180910390a45050565b60007ff23a6e612e1ff4830e658fe43f4e3cb4a5f8170bd5d9e69fb5d7a7fa9e4fdf97905095945050505050565b611463611613565b73ffffffffffffffffffffffffffffffffffffffff16611481610b8d565b73ffffffffffffffffffffffffffffffffffffffff16146114d7576040517f08c379a00000000000000000000000000000000000000000000000000000000081526004016114ce90612086565b60405180910390fd5b600073ffffffffffffffffffffffffffffffffffffffff168173ffffffffffffffffffffffffffffffffffffffff161415611547576040517f08c379a000000000000000000000000000000000000000000000000000000000815260040161153e90612006565b60405180910390fd5b6115508161161b565b50565b61155b611613565b73ffffffffffffffffffffffffffffffffffffffff16611579610b8d565b73ffffffffffffffffffffffffffffffffffffffff16146115cf576040517f08c379a00000000000000000000000000000000000000000000000000000000081526004016115c690612086565b60405180910390fd5b80600360006101000a81548173ffffffffffffffffffffffffffffffffffffffff021916908373ffffffffffffffffffffffffffffffffffffffff16021790555050565b600033905090565b60008060009054906101000a900473ffffffffffffffffffffffffffffffffffffffff169050816000806101000a81548173ffffffffffffffffffffffffffffffffffffffff021916908373ffffffffffffffffffffffffffffffffffffffff1602179055508173ffffffffffffffffffffffffffffffffffffffff168173ffffffffffffffffffffffffffffffffffffffff167f8be0079c531659141344cd1fd0a4f28419497f9722a3daafe3b4186f6b6457e060405160405180910390a35050565b60006116f26116ed8461227d565b61224c565b90508281526020810184848401111561170a57600080fd5b61171584828561244a565b509392505050565b60008135905061172c8161252f565b92915050565b60008135905061174181612546565b92915050565b6000815190506117568161255d565b92915050565b600082601f83011261176d57600080fd5b813561177d8482602086016116df565b91505092915050565b60008135905061179581612574565b92915050565b6000815190506117aa81612574565b92915050565b6000602082840312156117c257600080fd5b60006117d08482850161171d565b91505092915050565b6000602082840312156117eb57600080fd5b60006117f984828501611732565b91505092915050565b600080600080600060a0868803121561181a57600080fd5b60006118288882890161171d565b95505060206118398882890161171d565b945050604061184a88828901611786565b935050606061185b88828901611786565b925050608086013567ffffffffffffffff81111561187857600080fd5b6118848882890161175c565b9150509295509295909350565b60008060008060008060c087890312156118aa57600080fd5b60006118b889828a0161171d565b96505060206118c989828a0161171d565b95505060406118da89828a01611786565b94505060606118eb89828a01611786565b93505060806118fc89828a01611786565b92505060a061190d89828a01611786565b9150509295509295509295565b600080600080600080600060e0888a03121561193557600080fd5b60006119438a828b0161171d565b97505060206119548a828b0161171d565b96505060406119658a828b01611786565b95505060606119768a828b01611786565b94505060806119878a828b01611786565b93505060a06119988a828b01611786565b92505060c06119a98a828b01611786565b91505092959891949750929550565b6000602082840312156119ca57600080fd5b60006119d884828501611747565b91505092915050565b6000602082840312156119f357600080fd5b6000611a0184828501611786565b91505092915050565b600060208284031215611a1c57600080fd5b6000611a2a8482850161179b565b91505092915050565b60008060408385031215611a4657600080fd5b6000611a5485828601611786565b9250506020611a6585828601611786565b9150509250929050565b611a7881612414565b82525050565b611a878161238e565b82525050565b611a96816123b2565b82525050565b611aa5816123be565b82525050565b6000611ab86011836122be565b91507f4f6666657220646f6e27742065786973740000000000000000000000000000006000830152602082019050919050565b6000611af86011836122be565b91507f4e6f7420746f6b656e20746f2073656c6c0000000000000000000000000000006000830152602082019050919050565b6000611b386026836122be565b91507f4f776e61626c653a206e6577206f776e657220697320746865207a65726f206160008301527f64647265737300000000000000000000000000000000000000000000000000006020830152604082019050919050565b6000611b9e600f836122be565b91507f417070726f76616c204e656564656400000000000000000000000000000000006000830152602082019050919050565b6000611bde6007836122be565b91507f617070726f7665000000000000000000000000000000000000000000000000006000830152602082019050919050565b6000611c1e600f836122be565b91507f416d6f756e7420746f6f206869676800000000000000000000000000000000006000830152602082019050919050565b6000611c5e6020836122be565b91507f4f776e61626c653a2063616c6c6572206973206e6f7420746865206f776e65726000830152602082019050919050565b6000611c9e6019836122be565b91507f6e6f7420656e6f7567682066756e647320617070726f766564000000000000006000830152602082019050919050565b6000611cde6000836122ad565b9150600082019050919050565b6000611cf8600f836122be565b91507f7472616e73666572206661696c656400000000000000000000000000000000006000830152602082019050919050565b6000611d38601a836122be565b91507f4f6e6c7920746f6b656e2063726561746f7220646f20746861740000000000006000830152602082019050919050565b6000611d78600d836122be565b91507f45787069726564206f66666572000000000000000000000000000000000000006000830152602082019050919050565b6000611db86016836122be565b91507f4f66666572206973206e6f7420617661696c61626c65000000000000000000006000830152602082019050919050565b611df48161240a565b82525050565b6000602082019050611e0f6000830184611a7e565b92915050565b6000604082019050611e2a6000830185611a7e565b611e376020830184611a7e565b9392505050565b6000606082019050611e536000830186611a7e565b611e606020830185611a6f565b611e6d6040830184611deb565b949350505050565b6000606082019050611e8a6000830186611a7e565b611e976020830185611a7e565b611ea46040830184611deb565b949350505050565b600060a082019050611ec16000830187611a7e565b611ece6020830186611a7e565b611edb6040830185611deb565b611ee86060830184611deb565b8181036080830152611ef981611cd1565b905095945050505050565b600061010082019050611f1a600083018b611a7e565b611f27602083018a611a8d565b611f346040830189611a7e565b611f416060830188611a7e565b611f4e6080830187611deb565b611f5b60a0830186611deb565b611f6860c0830185611deb565b611f7560e0830184611deb565b9998505050505050505050565b6000604082019050611f976000830185611a7e565b611fa46020830184611deb565b9392505050565b6000602082019050611fc06000830184611a9c565b92915050565b60006020820190508181036000830152611fdf81611aab565b9050919050565b60006020820190508181036000830152611fff81611aeb565b9050919050565b6000602082019050818103600083015261201f81611b2b565b9050919050565b6000602082019050818103600083015261203f81611b91565b9050919050565b6000602082019050818103600083015261205f81611bd1565b9050919050565b6000602082019050818103600083015261207f81611c11565b9050919050565b6000602082019050818103600083015261209f81611c51565b9050919050565b600060208201905081810360008301526120bf81611c91565b9050919050565b600060208201905081810360008301526120df81611ceb565b9050919050565b600060208201905081810360008301526120ff81611d2b565b9050919050565b6000602082019050818103600083015261211f81611d6b565b9050919050565b6000602082019050818103600083015261213f81611dab565b9050919050565b600060208201905061215b6000830184611deb565b92915050565b60006060820190506121766000830186611deb565b6121836020830185611a7e565b6121906040830184611deb565b949350505050565b600060a0820190506121ad6000830188611deb565b6121ba6020830187611a7e565b6121c76040830186611deb565b6121d46060830185611deb565b6121e16080830184611deb565b9695505050505050565b600060c0820190506122006000830189611deb565b61220d6020830188611a7e565b61221a6040830187611deb565b6122276060830186611deb565b6122346080830185611deb565b61224160a0830184611deb565b979650505050505050565b6000604051905081810181811067ffffffffffffffff8211171561227357612272612500565b5b8060405250919050565b600067ffffffffffffffff82111561229857612297612500565b5b601f19601f8301169050602081019050919050565b600082825260208201905092915050565b600082825260208201905092915050565b60006122da8261240a565b91506122e58361240a565b9250826122f5576122f46124d1565b5b828204905092915050565b600061230b8261240a565b91506123168361240a565b9250817fffffffffffffffffffffffffffffffffffffffffffffffffffffffffffffffff048311821515161561234f5761234e6124a2565b5b828202905092915050565b60006123658261240a565b91506123708361240a565b925082821015612383576123826124a2565b5b828203905092915050565b6000612399826123ea565b9050919050565b60006123ab826123ea565b9050919050565b60008115159050919050565b60007fffffffff0000000000000000000000000000000000000000000000000000000082169050919050565b600073ffffffffffffffffffffffffffffffffffffffff82169050919050565b6000819050919050565b600061241f82612426565b9050919050565b600061243182612438565b9050919050565b6000612443826123ea565b9050919050565b82818337600083830152505050565b60006124648261240a565b91507fffffffffffffffffffffffffffffffffffffffffffffffffffffffffffffffff821415612497576124966124a2565b5b600182019050919050565b7f4e487b7100000000000000000000000000000000000000000000000000000000600052601160045260246000fd5b7f4e487b7100000000000000000000000000000000000000000000000000000000600052601260045260246000fd5b7f4e487b7100000000000000000000000000000000000000000000000000000000600052604160045260246000fd5b6125388161238e565b811461254357600080fd5b50565b61254f816123a0565b811461255a57600080fd5b50565b612566816123b2565b811461257157600080fd5b50565b61257d8161240a565b811461258857600080fd5b5056fea2646970667358221220428959cacd8689ed0880baaf7c42c4a139dae8b9d3e96b7e2613e743cdc5f51164736f6c63430008000033",
  "linkReferences": {},
  "deployedLinkReferences": {}
}