{
  "_format": "hh-sol-artifact-1",
  "contractName": "CheeseGame",
  "sourceName": "contracts/CheeseGame.sol",
  "abi": [
    {
      "inputs": [],
      "stateMutability": "nonpayable",
      "type": "constructor"
    },
    {
      "anonymous": false,
      "inputs": [
        {
          "indexed": false,
          "internalType": "address",
          "name": "previousAdmin",
          "type": "address"
        },
        {
          "indexed": false,
          "internalType": "address",
          "name": "newAdmin",
          "type": "address"
        }
      ],
      "name": "AdminChanged",
      "type": "event"
    },
    {
      "anonymous": false,
      "inputs": [
        {
          "indexed": true,
          "internalType": "address",
          "name": "beacon",
          "type": "address"
        }
      ],
      "name": "BeaconUpgraded",
      "type": "event"
    },
    {
      "anonymous": false,
      "inputs": [
        {
          "indexed": true,
          "internalType": "address",
          "name": "unstaker",
          "type": "address"
        },
        {
          "indexed": false,
          "internalType": "uint256",
          "name": "cheezStolen",
          "type": "uint256"
        }
      ],
      "name": "CatAttack",
      "type": "event"
    },
    {
      "anonymous": false,
      "inputs": [
        {
          "indexed": true,
          "internalType": "uint256",
          "name": "id",
          "type": "uint256"
        },
        {
          "indexed": true,
          "internalType": "address",
          "name": "user",
          "type": "address"
        },
        {
          "indexed": false,
          "internalType": "uint256",
          "name": "amount",
          "type": "uint256"
        }
      ],
      "name": "ClaimRewards",
      "type": "event"
    },
    {
      "anonymous": false,
      "inputs": [
        {
          "indexed": true,
          "internalType": "address",
          "name": "unstaker",
          "type": "address"
        },
        {
          "indexed": true,
          "internalType": "address",
          "name": "trapper",
          "type": "address"
        },
        {
          "indexed": false,
          "internalType": "uint256",
          "name": "cheezStolen",
          "type": "uint256"
        }
      ],
      "name": "MouseTrapped",
      "type": "event"
    },
    {
      "anonymous": false,
      "inputs": [
        {
          "indexed": true,
          "internalType": "address",
          "name": "previousOwner",
          "type": "address"
        },
        {
          "indexed": true,
          "internalType": "address",
          "name": "newOwner",
          "type": "address"
        }
      ],
      "name": "OwnershipTransferred",
      "type": "event"
    },
    {
      "anonymous": false,
      "inputs": [
        {
          "indexed": true,
          "internalType": "uint256",
          "name": "id",
          "type": "uint256"
        },
        {
          "indexed": true,
          "internalType": "address",
          "name": "user",
          "type": "address"
        },
        {
          "indexed": false,
          "internalType": "uint256",
          "name": "amount",
          "type": "uint256"
        },
        {
          "indexed": false,
          "internalType": "uint256",
          "name": "index",
          "type": "uint256"
        },
        {
          "indexed": false,
          "internalType": "uint256",
          "name": "newBalance",
          "type": "uint256"
        }
      ],
      "name": "Stake",
      "type": "event"
    },
    {
      "anonymous": false,
      "inputs": [
        {
          "indexed": true,
          "internalType": "uint256",
          "name": "id",
          "type": "uint256"
        },
        {
          "indexed": true,
          "internalType": "address",
          "name": "user",
          "type": "address"
        },
        {
          "indexed": false,
          "internalType": "uint256",
          "name": "amount",
          "type": "uint256"
        },
        {
          "indexed": false,
          "internalType": "uint256",
          "name": "index",
          "type": "uint256"
        },
        {
          "indexed": false,
          "internalType": "uint256",
          "name": "newBalance",
          "type": "uint256"
        }
      ],
      "name": "Unstake",
      "type": "event"
    },
    {
      "anonymous": false,
      "inputs": [
        {
          "indexed": true,
          "internalType": "address",
          "name": "implementation",
          "type": "address"
        }
      ],
      "name": "Upgraded",
      "type": "event"
    },
    {
      "inputs": [],
      "name": "CAT",
      "outputs": [
        {
          "internalType": "uint256",
          "name": "",
          "type": "uint256"
        }
      ],
      "stateMutability": "view",
      "type": "function"
    },
    {
      "inputs": [],
      "name": "MOUSE",
      "outputs": [
        {
          "internalType": "uint256",
          "name": "",
          "type": "uint256"
        }
      ],
      "stateMutability": "view",
      "type": "function"
    },
    {
      "inputs": [],
      "name": "TRAP",
      "outputs": [
        {
          "internalType": "uint256",
          "name": "",
          "type": "uint256"
        }
      ],
      "stateMutability": "view",
      "type": "function"
    },
    {
      "inputs": [
        {
          "internalType": "uint256",
          "name": "id",
          "type": "uint256"
        }
      ],
      "name": "claimRewards",
      "outputs": [],
      "stateMutability": "nonpayable",
      "type": "function"
    },
    {
      "inputs": [],
      "name": "distributor",
      "outputs": [
        {
          "internalType": "contract IDistributor",
          "name": "",
          "type": "address"
        }
      ],
      "stateMutability": "view",
      "type": "function"
    },
    {
      "inputs": [],
      "name": "epoch",
      "outputs": [
        {
          "internalType": "uint256",
          "name": "",
          "type": "uint256"
        }
      ],
      "stateMutability": "view",
      "type": "function"
    },
    {
      "inputs": [
        {
          "internalType": "address",
          "name": "user",
          "type": "address"
        },
        {
          "internalType": "uint256",
          "name": "id",
          "type": "uint256"
        }
      ],
      "name": "getIndex",
      "outputs": [
        {
          "internalType": "uint256",
          "name": "",
          "type": "uint256"
        }
      ],
      "stateMutability": "view",
      "type": "function"
    },
    {
      "inputs": [],
      "name": "getRand",
      "outputs": [
        {
          "internalType": "uint256",
          "name": "",
          "type": "uint256"
        }
      ],
      "stateMutability": "view",
      "type": "function"
    },
    {
      "inputs": [
        {
          "internalType": "address",
          "name": "user",
          "type": "address"
        },
        {
          "internalType": "uint256",
          "name": "id",
          "type": "uint256"
        }
      ],
      "name": "getRewards",
      "outputs": [
        {
          "internalType": "uint256",
          "name": "",
          "type": "uint256"
        }
      ],
      "stateMutability": "view",
      "type": "function"
    },
    {
      "inputs": [
        {
          "internalType": "address",
          "name": "user",
          "type": "address"
        },
        {
          "internalType": "uint256",
          "name": "id",
          "type": "uint256"
        }
      ],
      "name": "getStaked",
      "outputs": [
        {
          "internalType": "uint256",
          "name": "",
          "type": "uint256"
        }
      ],
      "stateMutability": "view",
      "type": "function"
    },
    {
      "inputs": [
        {
          "internalType": "address",
          "name": "user",
          "type": "address"
        }
      ],
      "name": "getTimeStaked",
      "outputs": [
        {
          "internalType": "uint256",
          "name": "",
          "type": "uint256"
        }
      ],
      "stateMutability": "view",
      "type": "function"
    },
    {
      "inputs": [
        {
          "internalType": "address",
          "name": "_stakedToken",
          "type": "address"
        },
        {
          "internalType": "address",
          "name": "_rewardsToken",
          "type": "address"
        },
        {
          "internalType": "address",
          "name": "_miceRebaser",
          "type": "address"
        },
        {
          "internalType": "address",
          "name": "_catRebaser",
          "type": "address"
        }
      ],
      "name": "initialize",
      "outputs": [],
      "stateMutability": "nonpayable",
      "type": "function"
    },
    {
      "inputs": [
        {
          "internalType": "address",
          "name": "_address",
          "type": "address"
        }
      ],
      "name": "isTrap",
      "outputs": [
        {
          "internalType": "bool",
          "name": "",
          "type": "bool"
        },
        {
          "internalType": "uint256",
          "name": "",
          "type": "uint256"
        }
      ],
      "stateMutability": "view",
      "type": "function"
    },
    {
      "inputs": [],
      "name": "lastRebaseTimestamp",
      "outputs": [
        {
          "internalType": "uint256",
          "name": "",
          "type": "uint256"
        }
      ],
      "stateMutability": "view",
      "type": "function"
    },
    {
      "inputs": [],
      "name": "nextCatPool",
      "outputs": [
        {
          "internalType": "uint256",
          "name": "",
          "type": "uint256"
        }
      ],
      "stateMutability": "view",
      "type": "function"
    },
    {
      "inputs": [],
      "name": "nextRewardAt",
      "outputs": [
        {
          "internalType": "uint256",
          "name": "",
          "type": "uint256"
        }
      ],
      "stateMutability": "view",
      "type": "function"
    },
    {
      "inputs": [
        {
          "internalType": "address",
          "name": "operator",
          "type": "address"
        },
        {
          "internalType": "address",
          "name": "",
          "type": "address"
        },
        {
          "internalType": "uint256",
          "name": "",
          "type": "uint256"
        },
        {
          "internalType": "uint256",
          "name": "",
          "type": "uint256"
        },
        {
          "internalType": "bytes",
          "name": "",
          "type": "bytes"
        }
      ],
      "name": "onERC1155Received",
      "outputs": [
        {
          "internalType": "bytes4",
          "name": "",
          "type": "bytes4"
        }
      ],
      "stateMutability": "nonpayable",
      "type": "function"
    },
    {
      "inputs": [],
      "name": "owner",
      "outputs": [
        {
          "internalType": "address",
          "name": "",
          "type": "address"
        }
      ],
      "stateMutability": "view",
      "type": "function"
    },
    {
      "inputs": [],
      "name": "rebase",
      "outputs": [],
      "stateMutability": "nonpayable",
      "type": "function"
    },
    {
      "inputs": [
        {
          "internalType": "uint256",
          "name": "",
          "type": "uint256"
        }
      ],
      "name": "rebasers",
      "outputs": [
        {
          "internalType": "contract IRebaser",
          "name": "",
          "type": "address"
        }
      ],
      "stateMutability": "view",
      "type": "function"
    },
    {
      "inputs": [],
      "name": "renounceOwnership",
      "outputs": [],
      "stateMutability": "nonpayable",
      "type": "function"
    },
    {
      "inputs": [],
      "name": "rewardRate",
      "outputs": [
        {
          "internalType": "uint256",
          "name": "",
          "type": "uint256"
        }
      ],
      "stateMutability": "view",
      "type": "function"
    },
    {
      "inputs": [],
      "name": "rewardsToken",
      "outputs": [
        {
          "internalType": "contract IERC20",
          "name": "",
          "type": "address"
        }
      ],
      "stateMutability": "view",
      "type": "function"
    },
    {
      "inputs": [
        {
          "internalType": "address",
          "name": "_distributor",
          "type": "address"
        }
      ],
      "name": "setDistributor",
      "outputs": [],
      "stateMutability": "nonpayable",
      "type": "function"
    },
    {
      "inputs": [
        {
          "internalType": "uint256",
          "name": "time",
          "type": "uint256"
        }
      ],
      "name": "setRebaseTimestamp",
      "outputs": [],
      "stateMutability": "nonpayable",
      "type": "function"
    },
    {
      "inputs": [
        {
          "internalType": "uint256",
          "name": "_rewardRate",
          "type": "uint256"
        }
      ],
      "name": "setRewardRate",
      "outputs": [],
      "stateMutability": "nonpayable",
      "type": "function"
    },
    {
      "inputs": [
        {
          "internalType": "uint256",
          "name": "_id",
          "type": "uint256"
        },
        {
          "internalType": "uint256",
          "name": "_amount",
          "type": "uint256"
        }
      ],
      "name": "stake",
      "outputs": [],
      "stateMutability": "nonpayable",
      "type": "function"
    },
    {
      "inputs": [],
      "name": "stakedToken",
      "outputs": [
        {
          "internalType": "contract IERC1155",
          "name": "",
          "type": "address"
        }
      ],
      "stateMutability": "view",
      "type": "function"
    },
    {
      "inputs": [
        {
          "internalType": "address",
          "name": "newOwner",
          "type": "address"
        }
      ],
      "name": "transferOwnership",
      "outputs": [],
      "stateMutability": "nonpayable",
      "type": "function"
    },
    {
      "inputs": [
        {
          "internalType": "uint256",
          "name": "",
          "type": "uint256"
        }
      ],
      "name": "traps",
      "outputs": [
        {
          "internalType": "address",
          "name": "",
          "type": "address"
        }
      ],
      "stateMutability": "view",
      "type": "function"
    },
    {
      "inputs": [
        {
          "internalType": "uint256",
          "name": "_id",
          "type": "uint256"
        },
        {
          "internalType": "uint256",
          "name": "_amount",
          "type": "uint256"
        }
      ],
      "name": "unstake",
      "outputs": [],
      "stateMutability": "nonpayable",
      "type": "function"
    },
    {
      "inputs": [
        {
          "internalType": "address",
          "name": "newImplementation",
          "type": "address"
        }
      ],
      "name": "upgradeTo",
      "outputs": [],
      "stateMutability": "nonpayable",
      "type": "function"
    },
    {
      "inputs": [
        {
          "internalType": "address",
          "name": "newImplementation",
          "type": "address"
        },
        {
          "internalType": "bytes",
          "name": "data",
          "type": "bytes"
        }
      ],
      "name": "upgradeToAndCall",
      "outputs": [],
      "stateMutability": "payable",
      "type": "function"
    },
    {
      "inputs": [],
      "name": "vrf",
      "outputs": [
        {
          "internalType": "bytes32",
          "name": "result",
          "type": "bytes32"
        }
      ],
      "stateMutability": "view",
      "type": "function"
    }
  ],
  "bytecode": "0x60a06040523073ffffffffffffffffffffffffffffffffffffffff1660809073ffffffffffffffffffffffffffffffffffffffff1660601b8152503480156200004757600080fd5b50600060019054906101000a900460ff16620000725760008054906101000a900460ff161562000083565b620000826200013f60201b60201c565b5b620000c5576040517f08c379a0000000000000000000000000000000000000000000000000000000008152600401620000bc9062000197565b60405180910390fd5b60008060019054906101000a900460ff16159050801562000116576001600060016101000a81548160ff02191690831515021790555060016000806101000a81548160ff0219169083151502179055505b8015620001385760008060016101000a81548160ff0219169083151502179055505b5062000219565b600062000157306200015d60201b62002c6b1760201c565b15905090565b600080823b905060008111915050919050565b60006200017f602e83620001b9565b91506200018c82620001ca565b604082019050919050565b60006020820190508181036000830152620001b28162000170565b9050919050565b600082825260208201905092915050565b7f496e697469616c697a61626c653a20636f6e747261637420697320616c72656160008201527f647920696e697469616c697a6564000000000000000000000000000000000000602082015250565b60805160601c61595b6200024d60003960008181610eea01528181610f790152818161109f015261112e015261595b6000f3fe6080604052600436106101f95760003560e01c80638da5cb5b1161010d578063b86a2fd7116100a0578063e3b860461161006f578063e3b8604614610719578063e7a20ba114610742578063f23a6e611461076d578063f2fde38b146107aa578063f8c8765e146107d3576101f9565b8063b86a2fd71461066d578063bfe1092814610698578063cc7a262e146106c3578063d1af0c7d146106ee576101f9565b80639e447fc6116100dc5780639e447fc6146105c5578063a4b72679146105ee578063af14052c1461062b578063b352d21214610642576101f9565b80638da5cb5b146105095780638fafd71b14610534578063900cf0cf146105715780639e2c8a5b1461059c576101f9565b80634f1ef2861161019057806375619ab51161015f57806375619ab5146104365780637b0472f01461045f5780637b0a47ee146104885780638905d700146104b35780638a8b7deb146104de576101f9565b80634f1ef2861461039b578063600bc4ea146103b7578063715018a6146103e25780637387f44d146103f9576101f9565b806311cbf47b116101cc57806311cbf47b146102cc578063262b5bea146103095780633659cfe6146103475780634059250b14610370576101f9565b80630962ef79146101fe5780630a0f1d2e146102275780630c949043146102645780630ee70ebc1461028f575b600080fd5b34801561020a57600080fd5b506102256004803603810190610220919061472f565b6107fc565b005b34801561023357600080fd5b5061024e6004803603810190610249919061472f565b610cc6565b60405161025b9190614b8d565b60405180910390f35b34801561027057600080fd5b50610279610d05565b6040516102869190614ce1565b60405180910390f35b34801561029b57600080fd5b506102b660048036038101906102b191906146ca565b610d71565b6040516102c39190614fc5565b60405180910390f35b3480156102d857600080fd5b506102f360048036038101906102ee919061472f565b610dcf565b6040516103009190614d68565b60405180910390f35b34801561031557600080fd5b50610330600480360381019061032b919061455b565b610e0e565b60405161033e929190614cb8565b60405180910390f35b34801561035357600080fd5b5061036e6004803603810190610369919061455b565b610ee8565b005b34801561037c57600080fd5b50610385611097565b6040516103929190614fc5565b60405180910390f35b6103b560048036038101906103b09190614676565b61109d565b005b3480156103c357600080fd5b506103cc6111da565b6040516103d99190614fc5565b60405180910390f35b3480156103ee57600080fd5b506103f7611217565b005b34801561040557600080fd5b50610420600480360381019061041b91906146ca565b61129f565b60405161042d9190614fc5565b60405180910390f35b34801561044257600080fd5b5061045d6004803603810190610458919061455b565b611491565b005b34801561046b57600080fd5b5061048660048036038101906104819190614781565b611551565b005b34801561049457600080fd5b5061049d61176c565b6040516104aa9190614fc5565b60405180910390f35b3480156104bf57600080fd5b506104c8611772565b6040516104d59190614fc5565b60405180910390f35b3480156104ea57600080fd5b506104f3611778565b6040516105009190614fc5565b60405180910390f35b34801561051557600080fd5b5061051e61177e565b60405161052b9190614b8d565b60405180910390f35b34801561054057600080fd5b5061055b600480360381019061055691906146ca565b6117a8565b6040516105689190614fc5565b60405180910390f35b34801561057d57600080fd5b50610586611806565b6040516105939190614fc5565b60405180910390f35b3480156105a857600080fd5b506105c360048036038101906105be9190614781565b61180c565b005b3480156105d157600080fd5b506105ec60048036038101906105e7919061472f565b612391565b005b3480156105fa57600080fd5b506106156004803603810190610610919061455b565b612417565b6040516106229190614fc5565b60405180910390f35b34801561063757600080fd5b50610640612476565b005b34801561064e57600080fd5b50610657612738565b6040516106649190614fc5565b60405180910390f35b34801561067957600080fd5b5061068261273e565b60405161068f9190614fc5565b60405180910390f35b3480156106a457600080fd5b506106ad612744565b6040516106ba9190614d17565b60405180910390f35b3480156106cf57600080fd5b506106d861276a565b6040516106e59190614d32565b60405180910390f35b3480156106fa57600080fd5b50610703612790565b6040516107109190614d4d565b60405180910390f35b34801561072557600080fd5b50610740600480360381019061073b919061472f565b6127b6565b005b34801561074e57600080fd5b5061075761283c565b6040516107649190614fc5565b60405180910390f35b34801561077957600080fd5b50610794600480360381019061078f91906145e7565b612853565b6040516107a19190614cfc565b60405180910390f35b3480156107b657600080fd5b506107d160048036038101906107cc919061455b565b6128ef565b005b3480156107df57600080fd5b506107fa60048036038101906107f59190614584565b6129e7565b005b3373ffffffffffffffffffffffffffffffffffffffff163273ffffffffffffffffffffffffffffffffffffffff161461086a576040517f08c379a000000000000000000000000000000000000000000000000000000000815260040161086190614ec5565b60405180910390fd5b6003811061087757600080fd5b61087f612476565b60d15481141561088e57610cc3565b600061089a338361129f565b90506000811115610cc15760cf54821415610a85574260d460003373ffffffffffffffffffffffffffffffffffffffff1673ffffffffffffffffffffffffffffffffffffffff16815260200190815260200160002060020160008481526020019081526020016000208190555060cb8281548110610941577f4e487b7100000000000000000000000000000000000000000000000000000000600052603260045260246000fd5b9060005260206000200160009054906101000a900473ffffffffffffffffffffffffffffffffffffffff1673ffffffffffffffffffffffffffffffffffffffff16632986c0e56040518163ffffffff1660e01b815260040160206040518083038186803b1580156109b157600080fd5b505afa1580156109c5573d6000803e3d6000fd5b505050506040513d601f19601f820116820180604052508101906109e99190614758565b60d460003373ffffffffffffffffffffffffffffffffffffffff1673ffffffffffffffffffffffffffffffffffffffff168152602001908152602001600020600101600084815260200190815260200160002081905550600481610a4d919061512f565b60ce6000828254610a5e91906150d9565b925050819055506004600382610a749190615160565b610a7e919061512f565b9050610bbf565b60cb8281548110610abf577f4e487b7100000000000000000000000000000000000000000000000000000000600052603260045260246000fd5b9060005260206000200160009054906101000a900473ffffffffffffffffffffffffffffffffffffffff1673ffffffffffffffffffffffffffffffffffffffff16632986c0e56040518163ffffffff1660e01b815260040160206040518083038186803b158015610b2f57600080fd5b505afa158015610b43573d6000803e3d6000fd5b505050506040513d601f19601f82011682018060405250810190610b679190614758565b60d460003373ffffffffffffffffffffffffffffffffffffffff1673ffffffffffffffffffffffffffffffffffffffff1681526020019081526020016000206001016000848152602001908152602001600020819055505b60c960009054906101000a900473ffffffffffffffffffffffffffffffffffffffff1673ffffffffffffffffffffffffffffffffffffffff166323b872dd3033846040518463ffffffff1660e01b8152600401610c1e93929190614ba8565b602060405180830381600087803b158015610c3857600080fd5b505af1158015610c4c573d6000803e3d6000fd5b505050506040513d601f19601f82011682018060405250810190610c709190614706565b503373ffffffffffffffffffffffffffffffffffffffff16827f72b7f576fbac8c4a57da18644ed0ae9bf73bb7dad927efa1d1b3d3023cf1a19183604051610cb89190614fc5565b60405180910390a35b505b50565b60d58181548110610cd657600080fd5b906000526020600020016000915054906101000a900473ffffffffffffffffffffffffffffffffffffffff1681565b6000610d0f61447d565b4381600060018110610d4a577f4e487b7100000000000000000000000000000000000000000000000000000000600052603260045260246000fd5b60200201818152505060405160208160208460ff600019fa610d6857fe5b80519250505090565b600060d460008473ffffffffffffffffffffffffffffffffffffffff1673ffffffffffffffffffffffffffffffffffffffff168152602001908152602001600020600101600083815260200190815260200160002054905092915050565b60cb8181548110610ddf57600080fd5b906000526020600020016000915054906101000a900473ffffffffffffffffffffffffffffffffffffffff1681565b60008060005b60d580549050811015610eda5760d58181548110610e5b577f4e487b7100000000000000000000000000000000000000000000000000000000600052603260045260246000fd5b9060005260206000200160009054906101000a900473ffffffffffffffffffffffffffffffffffffffff1673ffffffffffffffffffffffffffffffffffffffff168473ffffffffffffffffffffffffffffffffffffffff161415610ec6576001819250925050610ee3565b600181610ed391906150d9565b9050610e14565b50600080915091505b915091565b7f000000000000000000000000000000000000000000000000000000000000000073ffffffffffffffffffffffffffffffffffffffff163073ffffffffffffffffffffffffffffffffffffffff161415610f77576040517f08c379a0000000000000000000000000000000000000000000000000000000008152600401610f6e90614e05565b60405180910390fd5b7f000000000000000000000000000000000000000000000000000000000000000073ffffffffffffffffffffffffffffffffffffffff16610fb6612c7e565b73ffffffffffffffffffffffffffffffffffffffff161461100c576040517f08c379a000000000000000000000000000000000000000000000000000000000815260040161100390614e25565b60405180910390fd5b61101581612cd5565b61109481600067ffffffffffffffff81111561105a577f4e487b7100000000000000000000000000000000000000000000000000000000600052604160045260246000fd5b6040519080825280601f01601f19166020018201604052801561108c5781602001600182028036833780820191505090505b506000612d54565b50565b60ce5481565b7f000000000000000000000000000000000000000000000000000000000000000073ffffffffffffffffffffffffffffffffffffffff163073ffffffffffffffffffffffffffffffffffffffff16141561112c576040517f08c379a000000000000000000000000000000000000000000000000000000000815260040161112390614e05565b60405180910390fd5b7f000000000000000000000000000000000000000000000000000000000000000073ffffffffffffffffffffffffffffffffffffffff1661116b612c7e565b73ffffffffffffffffffffffffffffffffffffffff16146111c1576040517f08c379a00000000000000000000000000000000000000000000000000000000081526004016111b890614e25565b60405180910390fd5b6111ca82612cd5565b6111d682826001612d54565b5050565b60006111e4610d05565b60001c5a6040516020016111f9929190614b61565b6040516020818303038152906040528051906020012060001c905090565b61121f612f25565b73ffffffffffffffffffffffffffffffffffffffff1661123d61177e565b73ffffffffffffffffffffffffffffffffffffffff1614611293576040517f08c379a000000000000000000000000000000000000000000000000000000000815260040161128a90614ee5565b60405180910390fd5b61129d6000612f2d565b565b6000600282106112ae57600080fd5b600060d460003373ffffffffffffffffffffffffffffffffffffffff1673ffffffffffffffffffffffffffffffffffffffff1681526020019081526020016000206001016000848152602001908152602001600020549050600060cb8481548110611342577f4e487b7100000000000000000000000000000000000000000000000000000000600052603260045260246000fd5b9060005260206000200160009054906101000a900473ffffffffffffffffffffffffffffffffffffffff1673ffffffffffffffffffffffffffffffffffffffff16632986c0e56040518163ffffffff1660e01b815260040160206040518083038186803b1580156113b257600080fd5b505afa1580156113c6573d6000803e3d6000fd5b505050506040513d601f19601f820116820180604052508101906113ea9190614758565b9050600060d460008773ffffffffffffffffffffffffffffffffffffffff1673ffffffffffffffffffffffffffffffffffffffff1681526020019081526020016000206000016000868152602001908152602001600020549050600083148061145257508183145b8061145d5750600081145b1561146e576000935050505061148b565b828261147a91906151ba565b816114859190615160565b93505050505b92915050565b611499612f25565b73ffffffffffffffffffffffffffffffffffffffff166114b761177e565b73ffffffffffffffffffffffffffffffffffffffff161461150d576040517f08c379a000000000000000000000000000000000000000000000000000000000815260040161150490614ee5565b60405180910390fd5b8060cc60006101000a81548173ffffffffffffffffffffffffffffffffffffffff021916908373ffffffffffffffffffffffffffffffffffffffff16021790555050565b3373ffffffffffffffffffffffffffffffffffffffff163273ffffffffffffffffffffffffffffffffffffffff16146115bf576040517f08c379a00000000000000000000000000000000000000000000000000000000081526004016115b690614ec5565b60405180910390fd5b60d75460d8541415611606576040517f08c379a00000000000000000000000000000000000000000000000000000000081526004016115fd90614f85565b60405180910390fd5b60d75460d88190555060008111611652576040517f08c379a000000000000000000000000000000000000000000000000000000000815260040161164990614f05565b60405180910390fd5b61165a612476565b600060d460003373ffffffffffffffffffffffffffffffffffffffff1673ffffffffffffffffffffffffffffffffffffffff16815260200190815260200160002060000160008481526020019081526020016000205411156116c0576116bf826107fc565b5b60ca60009054906101000a900473ffffffffffffffffffffffffffffffffffffffff1673ffffffffffffffffffffffffffffffffffffffff1663f242432a333085856040518563ffffffff1660e01b81526004016117219493929190614c37565b600060405180830381600087803b15801561173b57600080fd5b505af115801561174f573d6000803e3d6000fd5b5050505061175f60018383612ff3565b60d65460d8819055505050565b60cd5481565b60d15481565b60d05481565b6000603360009054906101000a900473ffffffffffffffffffffffffffffffffffffffff16905090565b600060d460008473ffffffffffffffffffffffffffffffffffffffff1673ffffffffffffffffffffffffffffffffffffffff168152602001908152602001600020600001600083815260200190815260200160002054905092915050565b60d35481565b3373ffffffffffffffffffffffffffffffffffffffff163273ffffffffffffffffffffffffffffffffffffffff161461187a576040517f08c379a000000000000000000000000000000000000000000000000000000000815260040161187190614ec5565b60405180910390fd5b60d75460d85414156118c1576040517f08c379a00000000000000000000000000000000000000000000000000000000081526004016118b890614f85565b60405180910390fd5b60d75460d8819055506000811161190d576040517f08c379a000000000000000000000000000000000000000000000000000000000815260040161190490614de5565b60405180910390fd5b60d460003373ffffffffffffffffffffffffffffffffffffffff1673ffffffffffffffffffffffffffffffffffffffff1681526020019081526020016000206000016000838152602001908152602001600020548111156119a3576040517f08c379a000000000000000000000000000000000000000000000000000000000815260040161199a90614f65565b60405180910390fd5b60cf5482141580611a1757506202a30060d460003373ffffffffffffffffffffffffffffffffffffffff1673ffffffffffffffffffffffffffffffffffffffff168152602001908152602001600020600201600060cf5481526020019081526020016000205442611a1491906151ba565b10155b611a56576040517f08c379a0000000000000000000000000000000000000000000000000000000008152600401611a4d90614fa5565b60405180910390fd5b60038210611a99576040517f08c379a0000000000000000000000000000000000000000000000000000000008152600401611a9090614e85565b60405180910390fd5b611aa1612476565b60cf548214156121745760008060005b83811015611b1a5760006064611ac56111da565b611acf91906153fe565b90506005811015611aed578380611ae5906153ab565b945050611b06565b6032811015611b05578280611b01906153ab565b9350505b5b508080611b12906153ab565b915050611ab1565b50600060d460003373ffffffffffffffffffffffffffffffffffffffff1673ffffffffffffffffffffffffffffffffffffffff168152602001908152602001600020600001600060cf5481526020019081526020016000205490506000611b833360cf5461129f565b9050611b9160008787612ff3565b60008282611b9f919061512f565b905060005b85811015611f6a57600060ca60009054906101000a900473ffffffffffffffffffffffffffffffffffffffff1673ffffffffffffffffffffffffffffffffffffffff1662fdd58e3060d1546040518363ffffffff1660e01b8152600401611c0c929190614c8f565b60206040518083038186803b158015611c2457600080fd5b505afa158015611c38573d6000803e3d6000fd5b505050506040513d601f19601f82011682018060405250810190611c5c9190614758565b1115611f3a57600060d580549050611c726111da565b611c7c91906153fe565b9050600060d58281548110611cba577f4e487b7100000000000000000000000000000000000000000000000000000000600052603260045260246000fd5b9060005260206000200160009054906101000a900473ffffffffffffffffffffffffffffffffffffffff169050611cf082613ca0565b60ca60009054906101000a900473ffffffffffffffffffffffffffffffffffffffff1673ffffffffffffffffffffffffffffffffffffffff1663f242432a308360cf5460016040518563ffffffff1660e01b8152600401611d549493929190614bdf565b600060405180830381600087803b158015611d6e57600080fd5b505af1158015611d82573d6000803e3d6000fd5b5050505060ca60009054906101000a900473ffffffffffffffffffffffffffffffffffffffff1673ffffffffffffffffffffffffffffffffffffffff1663f242432a308360d15460016040518563ffffffff1660e01b8152600401611dea9493929190614bdf565b600060405180830381600087803b158015611e0457600080fd5b505af1158015611e18573d6000803e3d6000fd5b5050505060c960009054906101000a900473ffffffffffffffffffffffffffffffffffffffff1673ffffffffffffffffffffffffffffffffffffffff166323b872dd3083876040518463ffffffff1660e01b8152600401611e7b93929190614ba8565b602060405180830381600087803b158015611e9557600080fd5b505af1158015611ea9573d6000803e3d6000fd5b505050506040513d601f19601f82011682018060405250810190611ecd9190614706565b508073ffffffffffffffffffffffffffffffffffffffff163373ffffffffffffffffffffffffffffffffffffffff167fd5a5591f1a7ad69f05ac507ce02ad8b255deaf2c433aaf20d6240deb00b94ea386604051611f2b9190614fc5565b60405180910390a35050611f57565b8580611f4590615350565b9650508480611f53906153ab565b9550505b8080611f62906153ab565b915050611ba4565b5060008185611f799190615160565b90508060ce6000828254611f8d91906150d9565b9250508190555060008287611fa29190615160565b8285611fae91906151ba565b611fb891906151ba565b905060008789611fc891906151ba565b905060ca60009054906101000a900473ffffffffffffffffffffffffffffffffffffffff1673ffffffffffffffffffffffffffffffffffffffff1663f242432a30338d856040518563ffffffff1660e01b815260040161202b9493929190614c37565b600060405180830381600087803b15801561204557600080fd5b505af1158015612059573d6000803e3d6000fd5b5050505060c960009054906101000a900473ffffffffffffffffffffffffffffffffffffffff1673ffffffffffffffffffffffffffffffffffffffff166323b872dd3033856040518463ffffffff1660e01b81526004016120bc93929190614ba8565b602060405180830381600087803b1580156120d657600080fd5b505af11580156120ea573d6000803e3d6000fd5b505050506040513d601f19601f8201168201806040525081019061210e9190614706565b506000871115612167573373ffffffffffffffffffffffffffffffffffffffff167fac1aa4afde2343145b879a7910e3779e48ae0f89b7ffe5b598bf762ca96340bc8860405161215e9190614fc5565b60405180910390a25b5050505050505050612384565b60d0548214156122e357600061218a338461129f565b905061219860008484612ff3565b60c960009054906101000a900473ffffffffffffffffffffffffffffffffffffffff1673ffffffffffffffffffffffffffffffffffffffff166323b872dd3033846040518463ffffffff1660e01b81526004016121f793929190614ba8565b602060405180830381600087803b15801561221157600080fd5b505af1158015612225573d6000803e3d6000fd5b505050506040513d601f19601f820116820180604052508101906122499190614706565b5060ca60009054906101000a900473ffffffffffffffffffffffffffffffffffffffff1673ffffffffffffffffffffffffffffffffffffffff1663f242432a303386866040518563ffffffff1660e01b81526004016122ab9493929190614c37565b600060405180830381600087803b1580156122c557600080fd5b505af11580156122d9573d6000803e3d6000fd5b5050505050612383565b6122ef60008383612ff3565b60ca60009054906101000a900473ffffffffffffffffffffffffffffffffffffffff1673ffffffffffffffffffffffffffffffffffffffff1663f242432a303385856040518563ffffffff1660e01b81526004016123509493929190614c37565b600060405180830381600087803b15801561236a57600080fd5b505af115801561237e573d6000803e3d6000fd5b505050505b5b60d65460d8819055505050565b612399612f25565b73ffffffffffffffffffffffffffffffffffffffff166123b761177e565b73ffffffffffffffffffffffffffffffffffffffff161461240d576040517f08c379a000000000000000000000000000000000000000000000000000000000815260040161240490614ee5565b60405180910390fd5b8060cd8190555050565b600060d460008373ffffffffffffffffffffffffffffffffffffffff1673ffffffffffffffffffffffffffffffffffffffff168152602001908152602001600020600201600060cf548152602001908152602001600020549050919050565b4261708060d25461248791906150d9565b10156127365761708060d25461249d91906150d9565b60d28190555060cc60009054906101000a900473ffffffffffffffffffffffffffffffffffffffff1673ffffffffffffffffffffffffffffffffffffffff1663e4fc6b6d6040518163ffffffff1660e01b8152600401600060405180830381600087803b15801561250d57600080fd5b505af1158015612521573d6000803e3d6000fd5b5050505060cb60cf5481548110612561577f4e487b7100000000000000000000000000000000000000000000000000000000600052603260045260246000fd5b9060005260206000200160009054906101000a900473ffffffffffffffffffffffffffffffffffffffff1673ffffffffffffffffffffffffffffffffffffffff1663058ecdb460cd5460d3546040518363ffffffff1660e01b81526004016125ca929190614fe0565b602060405180830381600087803b1580156125e457600080fd5b505af11580156125f8573d6000803e3d6000fd5b505050506040513d601f19601f8201168201806040525081019061261c9190614758565b5060cb60d05481548110612659577f4e487b7100000000000000000000000000000000000000000000000000000000600052603260045260246000fd5b9060005260206000200160009054906101000a900473ffffffffffffffffffffffffffffffffffffffff1673ffffffffffffffffffffffffffffffffffffffff1663058ecdb460ce5460d3546040518363ffffffff1660e01b81526004016126c2929190614fe0565b602060405180830381600087803b1580156126dc57600080fd5b505af11580156126f0573d6000803e3d6000fd5b505050506040513d601f19601f820116820180604052508101906127149190614758565b50600060ce8190555060d36000815480929190612730906153ab565b91905055505b565b60cf5481565b60d25481565b60cc60009054906101000a900473ffffffffffffffffffffffffffffffffffffffff1681565b60ca60009054906101000a900473ffffffffffffffffffffffffffffffffffffffff1681565b60c960009054906101000a900473ffffffffffffffffffffffffffffffffffffffff1681565b6127be612f25565b73ffffffffffffffffffffffffffffffffffffffff166127dc61177e565b73ffffffffffffffffffffffffffffffffffffffff1614612832576040517f08c379a000000000000000000000000000000000000000000000000000000000815260040161282990614ee5565b60405180910390fd5b8060d28190555050565b600061708060d25461284e91906150d9565b905090565b60003073ffffffffffffffffffffffffffffffffffffffff168673ffffffffffffffffffffffffffffffffffffffff16146128c3576040517f08c379a00000000000000000000000000000000000000000000000000000000081526004016128ba90614e45565b60405180910390fd5b7ff23a6e612e1ff4830e658fe43f4e3cb4a5f8170bd5d9e69fb5d7a7fa9e4fdf97905095945050505050565b6128f7612f25565b73ffffffffffffffffffffffffffffffffffffffff1661291561177e565b73ffffffffffffffffffffffffffffffffffffffff161461296b576040517f08c379a000000000000000000000000000000000000000000000000000000000815260040161296290614ee5565b60405180910390fd5b600073ffffffffffffffffffffffffffffffffffffffff168173ffffffffffffffffffffffffffffffffffffffff1614156129db576040517f08c379a00000000000000000000000000000000000000000000000000000000081526004016129d290614dc5565b60405180910390fd5b6129e481612f2d565b50565b600060019054906101000a900460ff16612a0f5760008054906101000a900460ff1615612a18565b612a17613e08565b5b612a57576040517f08c379a0000000000000000000000000000000000000000000000000000000008152600401612a4e90614e65565b60405180910390fd5b60008060019054906101000a900460ff161590508015612aa7576001600060016101000a81548160ff02191690831515021790555060016000806101000a81548160ff0219169083151502179055505b612aaf613e19565b612ab7613e7a565b600060cf81905550600160d081905550600260d181905550600160d681905550600260d78190555060d65460d881905550648bb2c9700060cd819055508460ca60006101000a81548173ffffffffffffffffffffffffffffffffffffffff021916908373ffffffffffffffffffffffffffffffffffffffff1602179055508360c960006101000a81548173ffffffffffffffffffffffffffffffffffffffff021916908373ffffffffffffffffffffffffffffffffffffffff16021790555060cb839080600181540180825580915050600190039060005260206000200160009091909190916101000a81548173ffffffffffffffffffffffffffffffffffffffff021916908373ffffffffffffffffffffffffffffffffffffffff16021790555060cb829080600181540180825580915050600190039060005260206000200160009091909190916101000a81548173ffffffffffffffffffffffffffffffffffffffff021916908373ffffffffffffffffffffffffffffffffffffffff1602179055504260d2819055508015612c645760008060016101000a81548160ff0219169083151502179055505b5050505050565b600080823b905060008111915050919050565b6000612cac7f360894a13ba1a3210667c828492db98dca3e2076cc3735a920a3ca505d382bbc60001b613edb565b60000160009054906101000a900473ffffffffffffffffffffffffffffffffffffffff16905090565b612cdd612f25565b73ffffffffffffffffffffffffffffffffffffffff16612cfb61177e565b73ffffffffffffffffffffffffffffffffffffffff1614612d51576040517f08c379a0000000000000000000000000000000000000000000000000000000008152600401612d4890614ee5565b60405180910390fd5b50565b6000612d5e612c7e565b9050612d6984613ee5565b600083511180612d765750815b15612d8757612d858484613f9e565b505b6000612db57f4910fdfa16fed3260ed0e7147f7cc6da11a60208b5b9406d12a635614ffd914360001b614082565b90508060000160009054906101000a900460ff16612f1e5760018160000160006101000a81548160ff021916908315150217905550612e818583604051602401612dff9190614b8d565b6040516020818303038152906040527f3659cfe6000000000000000000000000000000000000000000000000000000007bffffffffffffffffffffffffffffffffffffffffffffffffffffffff19166020820180517bffffffffffffffffffffffffffffffffffffffffffffffffffffffff8381831617835250505050613f9e565b5060008160000160006101000a81548160ff021916908315150217905550612ea7612c7e565b73ffffffffffffffffffffffffffffffffffffffff168273ffffffffffffffffffffffffffffffffffffffff1614612f14576040517f08c379a0000000000000000000000000000000000000000000000000000000008152600401612f0b90614da5565b60405180910390fd5b612f1d8561408c565b5b5050505050565b600033905090565b6000603360009054906101000a900473ffffffffffffffffffffffffffffffffffffffff16905081603360006101000a81548173ffffffffffffffffffffffffffffffffffffffff021916908373ffffffffffffffffffffffffffffffffffffffff1602179055508173ffffffffffffffffffffffffffffffffffffffff168173ffffffffffffffffffffffffffffffffffffffff167f8be0079c531659141344cd1fd0a4f28419497f9722a3daafe3b4186f6b6457e060405160405180910390a35050565b821561364c5760cf54821415613259578060d460003373ffffffffffffffffffffffffffffffffffffffff1673ffffffffffffffffffffffffffffffffffffffff168152602001908152602001600020600001600060cf5481526020019081526020016000205461306491906150d9565b60d460003373ffffffffffffffffffffffffffffffffffffffff1673ffffffffffffffffffffffffffffffffffffffff168152602001908152602001600020600001600060cf5481526020019081526020016000208190555060cb60cf54815481106130f9577f4e487b7100000000000000000000000000000000000000000000000000000000600052603260045260246000fd5b9060005260206000200160009054906101000a900473ffffffffffffffffffffffffffffffffffffffff1673ffffffffffffffffffffffffffffffffffffffff16632986c0e56040518163ffffffff1660e01b815260040160206040518083038186803b15801561316957600080fd5b505afa15801561317d573d6000803e3d6000fd5b505050506040513d601f19601f820116820180604052508101906131a19190614758565b60d460003373ffffffffffffffffffffffffffffffffffffffff1673ffffffffffffffffffffffffffffffffffffffff168152602001908152602001600020600101600060cf548152602001908152602001600020819055504260d460003373ffffffffffffffffffffffffffffffffffffffff1673ffffffffffffffffffffffffffffffffffffffff168152602001908152602001600020600201600060cf5481526020019081526020016000208190555061354e565b60d05482141561345f578060d460003373ffffffffffffffffffffffffffffffffffffffff1673ffffffffffffffffffffffffffffffffffffffff168152602001908152602001600020600001600060d0548152602001908152602001600020546132c491906150d9565b60d460003373ffffffffffffffffffffffffffffffffffffffff1673ffffffffffffffffffffffffffffffffffffffff168152602001908152602001600020600001600060d05481526020019081526020016000208190555060cb60d05481548110613359577f4e487b7100000000000000000000000000000000000000000000000000000000600052603260045260246000fd5b9060005260206000200160009054906101000a900473ffffffffffffffffffffffffffffffffffffffff1673ffffffffffffffffffffffffffffffffffffffff16632986c0e56040518163ffffffff1660e01b815260040160206040518083038186803b1580156133c957600080fd5b505afa1580156133dd573d6000803e3d6000fd5b505050506040513d601f19601f820116820180604052508101906134019190614758565b60d460003373ffffffffffffffffffffffffffffffffffffffff1673ffffffffffffffffffffffffffffffffffffffff168152602001908152602001600020600101600060d05481526020019081526020016000208190555061354d565b60d15482141561354c578060d460003373ffffffffffffffffffffffffffffffffffffffff1673ffffffffffffffffffffffffffffffffffffffff168152602001908152602001600020600001600060d1548152602001908152602001600020546134ca91906150d9565b60d460003373ffffffffffffffffffffffffffffffffffffffff1673ffffffffffffffffffffffffffffffffffffffff168152602001908152602001600020600001600060d15481526020019081526020016000208190555060005b8181101561354a57613537336140db565b8080613542906153ab565b915050613526565b505b5b5b3373ffffffffffffffffffffffffffffffffffffffff16827f9dd88de0e06b4d9fedbb7d5a3c39a2f06427ab7dc376b08eb7bde36edbd330338360d460003373ffffffffffffffffffffffffffffffffffffffff1673ffffffffffffffffffffffffffffffffffffffff16815260200190815260200160002060010160008781526020019081526020016000205460d460003373ffffffffffffffffffffffffffffffffffffffff1673ffffffffffffffffffffffffffffffffffffffff16815260200190815260200160002060000160008881526020019081526020016000205460405161363f93929190615009565b60405180910390a3613c9b565b60cf548214156138ac578060d460003373ffffffffffffffffffffffffffffffffffffffff1673ffffffffffffffffffffffffffffffffffffffff168152602001908152602001600020600001600060cf548152602001908152602001600020546136b791906151ba565b60d460003373ffffffffffffffffffffffffffffffffffffffff1673ffffffffffffffffffffffffffffffffffffffff168152602001908152602001600020600001600060cf5481526020019081526020016000208190555060cb60cf548154811061374c577f4e487b7100000000000000000000000000000000000000000000000000000000600052603260045260246000fd5b9060005260206000200160009054906101000a900473ffffffffffffffffffffffffffffffffffffffff1673ffffffffffffffffffffffffffffffffffffffff16632986c0e56040518163ffffffff1660e01b815260040160206040518083038186803b1580156137bc57600080fd5b505afa1580156137d0573d6000803e3d6000fd5b505050506040513d601f19601f820116820180604052508101906137f49190614758565b60d460003373ffffffffffffffffffffffffffffffffffffffff1673ffffffffffffffffffffffffffffffffffffffff168152602001908152602001600020600101600060cf548152602001908152602001600020819055504260d460003373ffffffffffffffffffffffffffffffffffffffff1673ffffffffffffffffffffffffffffffffffffffff168152602001908152602001600020600201600060cf54815260200190815260200160002081905550613ba1565b60d054821415613ab2578060d460003373ffffffffffffffffffffffffffffffffffffffff1673ffffffffffffffffffffffffffffffffffffffff168152602001908152602001600020600001600060d05481526020019081526020016000205461391791906151ba565b60d460003373ffffffffffffffffffffffffffffffffffffffff1673ffffffffffffffffffffffffffffffffffffffff168152602001908152602001600020600001600060d05481526020019081526020016000208190555060cb60d054815481106139ac577f4e487b7100000000000000000000000000000000000000000000000000000000600052603260045260246000fd5b9060005260206000200160009054906101000a900473ffffffffffffffffffffffffffffffffffffffff1673ffffffffffffffffffffffffffffffffffffffff16632986c0e56040518163ffffffff1660e01b815260040160206040518083038186803b158015613a1c57600080fd5b505afa158015613a30573d6000803e3d6000fd5b505050506040513d601f19601f82011682018060405250810190613a549190614758565b60d460003373ffffffffffffffffffffffffffffffffffffffff1673ffffffffffffffffffffffffffffffffffffffff168152602001908152602001600020600101600060d054815260200190815260200160002081905550613ba0565b60d154821415613b9f578060d460003373ffffffffffffffffffffffffffffffffffffffff1673ffffffffffffffffffffffffffffffffffffffff168152602001908152602001600020600001600060d154815260200190815260200160002054613b1d91906151ba565b60d460003373ffffffffffffffffffffffffffffffffffffffff1673ffffffffffffffffffffffffffffffffffffffff168152602001908152602001600020600001600060d15481526020019081526020016000208190555060005b81811015613b9d57613b8a33614141565b8080613b95906153ab565b915050613b79565b505b5b5b3373ffffffffffffffffffffffffffffffffffffffff16827f0364ea90efa7dc8d51ac24f855c756df5c55d681309a88e8c075b0dbef8bb1a58360d460003373ffffffffffffffffffffffffffffffffffffffff1673ffffffffffffffffffffffffffffffffffffffff16815260200190815260200160002060010160008781526020019081526020016000205460d460003373ffffffffffffffffffffffffffffffffffffffff1673ffffffffffffffffffffffffffffffffffffffff168152602001908152602001600020600001600088815260200190815260200160002054604051613c9293929190615009565b60405180910390a35b505050565b60d5600160d580549050613cb491906151ba565b81548110613ceb577f4e487b7100000000000000000000000000000000000000000000000000000000600052603260045260246000fd5b9060005260206000200160009054906101000a900473ffffffffffffffffffffffffffffffffffffffff1660d58281548110613d50577f4e487b7100000000000000000000000000000000000000000000000000000000600052603260045260246000fd5b9060005260206000200160006101000a81548173ffffffffffffffffffffffffffffffffffffffff021916908373ffffffffffffffffffffffffffffffffffffffff16021790555060d5805480613dd0577f4e487b7100000000000000000000000000000000000000000000000000000000600052603160045260246000fd5b6001900381819060005260206000200160006101000a81549073ffffffffffffffffffffffffffffffffffffffff0219169055905550565b6000613e1330612c6b565b15905090565b600060019054906101000a900460ff16613e68576040517f08c379a0000000000000000000000000000000000000000000000000000000008152600401613e5f90614f45565b60405180910390fd5b613e706142c2565b613e78614313565b565b600060019054906101000a900460ff16613ec9576040517f08c379a0000000000000000000000000000000000000000000000000000000008152600401613ec090614f45565b60405180910390fd5b613ed1614374565b613ed96143c5565b565b6000819050919050565b613eee81612c6b565b613f2d576040517f08c379a0000000000000000000000000000000000000000000000000000000008152600401613f2490614ea5565b60405180910390fd5b80613f5a7f360894a13ba1a3210667c828492db98dca3e2076cc3735a920a3ca505d382bbc60001b613edb565b60000160006101000a81548173ffffffffffffffffffffffffffffffffffffffff021916908373ffffffffffffffffffffffffffffffffffffffff16021790555050565b6060613fa983612c6b565b613fe8576040517f08c379a0000000000000000000000000000000000000000000000000000000008152600401613fdf90614f25565b60405180910390fd5b6000808473ffffffffffffffffffffffffffffffffffffffff16846040516140109190614b4a565b600060405180830381855af49150503d806000811461404b576040519150601f19603f3d011682016040523d82523d6000602084013e614050565b606091505b509150915061407882826040518060600160405280602781526020016158ff60279139614416565b9250505092915050565b6000819050919050565b61409581613ee5565b8073ffffffffffffffffffffffffffffffffffffffff167fbc7cd75a20ee27fd9adebab32041f755214dbc6bffa90cc0225b39da2e5c2d3b60405160405180910390a250565b60d5819080600181540180825580915050600190039060005260206000200160009091909190916101000a81548173ffffffffffffffffffffffffffffffffffffffff021916908373ffffffffffffffffffffffffffffffffffffffff16021790555050565b60008061414d83610e0e565b9150915081156142bd5760d5600160d58054905061416b91906151ba565b815481106141a2577f4e487b7100000000000000000000000000000000000000000000000000000000600052603260045260246000fd5b9060005260206000200160009054906101000a900473ffffffffffffffffffffffffffffffffffffffff1660d58281548110614207577f4e487b7100000000000000000000000000000000000000000000000000000000600052603260045260246000fd5b9060005260206000200160006101000a81548173ffffffffffffffffffffffffffffffffffffffff021916908373ffffffffffffffffffffffffffffffffffffffff16021790555060d5805480614287577f4e487b7100000000000000000000000000000000000000000000000000000000600052603160045260246000fd5b6001900381819060005260206000200160006101000a81549073ffffffffffffffffffffffffffffffffffffffff021916905590555b505050565b600060019054906101000a900460ff16614311576040517f08c379a000000000000000000000000000000000000000000000000000000000815260040161430890614f45565b60405180910390fd5b565b600060019054906101000a900460ff16614362576040517f08c379a000000000000000000000000000000000000000000000000000000000815260040161435990614f45565b60405180910390fd5b61437261436d612f25565b612f2d565b565b600060019054906101000a900460ff166143c3576040517f08c379a00000000000000000000000000000000000000000000000000000000081526004016143ba90614f45565b60405180910390fd5b565b600060019054906101000a900460ff16614414576040517f08c379a000000000000000000000000000000000000000000000000000000000815260040161440b90614f45565b60405180910390fd5b565b6060831561442657829050614476565b6000835111156144395782518084602001fd5b816040517f08c379a000000000000000000000000000000000000000000000000000000000815260040161446d9190614d83565b60405180910390fd5b9392505050565b6040518060200160405280600190602082028036833780820191505090505090565b60006144b26144ad84615065565b615040565b9050828152602081018484840111156144ca57600080fd5b6144d584828561530e565b509392505050565b6000813590506144ec816158b9565b92915050565b600081519050614501816158d0565b92915050565b600082601f83011261451857600080fd5b813561452884826020860161449f565b91505092915050565b600081359050614540816158e7565b92915050565b600081519050614555816158e7565b92915050565b60006020828403121561456d57600080fd5b600061457b848285016144dd565b91505092915050565b6000806000806080858703121561459a57600080fd5b60006145a8878288016144dd565b94505060206145b9878288016144dd565b93505060406145ca878288016144dd565b92505060606145db878288016144dd565b91505092959194509250565b600080600080600060a086880312156145ff57600080fd5b600061460d888289016144dd565b955050602061461e888289016144dd565b945050604061462f88828901614531565b935050606061464088828901614531565b925050608086013567ffffffffffffffff81111561465d57600080fd5b61466988828901614507565b9150509295509295909350565b6000806040838503121561468957600080fd5b6000614697858286016144dd565b925050602083013567ffffffffffffffff8111156146b457600080fd5b6146c085828601614507565b9150509250929050565b600080604083850312156146dd57600080fd5b60006146eb858286016144dd565b92505060206146fc85828601614531565b9150509250929050565b60006020828403121561471857600080fd5b6000614726848285016144f2565b91505092915050565b60006020828403121561474157600080fd5b600061474f84828501614531565b91505092915050565b60006020828403121561476a57600080fd5b600061477884828501614546565b91505092915050565b6000806040838503121561479457600080fd5b60006147a285828601614531565b92505060206147b385828601614531565b9150509250929050565b6147c6816151ee565b82525050565b6147d581615200565b82525050565b6147e48161520c565b82525050565b6147f381615216565b82525050565b600061480482615096565b61480e81856150bd565b935061481e81856020860161531d565b80840191505092915050565b6148338161526c565b82525050565b61484281615290565b82525050565b614851816152b4565b82525050565b614860816152d8565b82525050565b61486f816152fc565b82525050565b6000614880826150a1565b61488a81856150c8565b935061489a81856020860161531d565b6148a3816154bc565b840191505092915050565b60006148bb602f836150c8565b91506148c6826154cd565b604082019050919050565b60006148de6026836150c8565b91506148e98261551c565b604082019050919050565b6000614901601f836150c8565b915061490c8261556b565b602082019050919050565b6000614924602c836150c8565b915061492f82615594565b604082019050919050565b6000614947602c836150c8565b9150614952826155e3565b604082019050919050565b600061496a601d836150c8565b915061497582615632565b602082019050919050565b600061498d602e836150c8565b91506149988261565b565b604082019050919050565b60006149b06019836150c8565b91506149bb826156aa565b602082019050919050565b60006149d3602d836150c8565b91506149de826156d3565b604082019050919050565b60006149f66008836150c8565b9150614a0182615722565b602082019050919050565b6000614a196020836150c8565b9150614a248261574b565b602082019050919050565b6000614a3c601b836150c8565b9150614a4782615774565b602082019050919050565b6000614a5f6026836150c8565b9150614a6a8261579d565b604082019050919050565b6000614a826000836150ac565b9150614a8d826157ec565b600082019050919050565b6000614aa5602b836150c8565b9150614ab0826157ef565b604082019050919050565b6000614ac86018836150c8565b9150614ad38261583e565b602082019050919050565b6000614aeb601f836150c8565b9150614af682615867565b602082019050919050565b6000614b0e6018836150c8565b9150614b1982615890565b602082019050919050565b614b2d81615262565b82525050565b614b44614b3f82615262565b6153f4565b82525050565b6000614b5682846147f9565b915081905092915050565b6000614b6d8285614b33565b602082019150614b7d8284614b33565b6020820191508190509392505050565b6000602082019050614ba260008301846147bd565b92915050565b6000606082019050614bbd60008301866147bd565b614bca60208301856147bd565b614bd76040830184614b24565b949350505050565b600060a082019050614bf460008301876147bd565b614c0160208301866147bd565b614c0e6040830185614b24565b614c1b6060830184614866565b8181036080830152614c2c81614a75565b905095945050505050565b600060a082019050614c4c60008301876147bd565b614c5960208301866147bd565b614c666040830185614b24565b614c736060830184614b24565b8181036080830152614c8481614a75565b905095945050505050565b6000604082019050614ca460008301856147bd565b614cb16020830184614b24565b9392505050565b6000604082019050614ccd60008301856147cc565b614cda6020830184614b24565b9392505050565b6000602082019050614cf660008301846147db565b92915050565b6000602082019050614d1160008301846147ea565b92915050565b6000602082019050614d2c600083018461482a565b92915050565b6000602082019050614d476000830184614839565b92915050565b6000602082019050614d626000830184614848565b92915050565b6000602082019050614d7d6000830184614857565b92915050565b60006020820190508181036000830152614d9d8184614875565b905092915050565b60006020820190508181036000830152614dbe816148ae565b9050919050565b60006020820190508181036000830152614dde816148d1565b9050919050565b60006020820190508181036000830152614dfe816148f4565b9050919050565b60006020820190508181036000830152614e1e81614917565b9050919050565b60006020820190508181036000830152614e3e8161493a565b9050919050565b60006020820190508181036000830152614e5e8161495d565b9050919050565b60006020820190508181036000830152614e7e81614980565b9050919050565b60006020820190508181036000830152614e9e816149a3565b9050919050565b60006020820190508181036000830152614ebe816149c6565b9050919050565b60006020820190508181036000830152614ede816149e9565b9050919050565b60006020820190508181036000830152614efe81614a0c565b9050919050565b60006020820190508181036000830152614f1e81614a2f565b9050919050565b60006020820190508181036000830152614f3e81614a52565b9050919050565b60006020820190508181036000830152614f5e81614a98565b9050919050565b60006020820190508181036000830152614f7e81614abb565b9050919050565b60006020820190508181036000830152614f9e81614ade565b9050919050565b60006020820190508181036000830152614fbe81614b01565b9050919050565b6000602082019050614fda6000830184614b24565b92915050565b6000604082019050614ff56000830185614b24565b6150026020830184614b24565b9392505050565b600060608201905061501e6000830186614b24565b61502b6020830185614b24565b6150386040830184614b24565b949350505050565b600061504a61505b565b9050615056828261537a565b919050565b6000604051905090565b600067ffffffffffffffff8211156150805761507f61548d565b5b615089826154bc565b9050602081019050919050565b600081519050919050565b600081519050919050565b600082825260208201905092915050565b600081905092915050565b600082825260208201905092915050565b60006150e482615262565b91506150ef83615262565b9250827fffffffffffffffffffffffffffffffffffffffffffffffffffffffffffffffff038211156151245761512361542f565b5b828201905092915050565b600061513a82615262565b915061514583615262565b9250826151555761515461545e565b5b828204905092915050565b600061516b82615262565b915061517683615262565b9250817fffffffffffffffffffffffffffffffffffffffffffffffffffffffffffffffff04831182151516156151af576151ae61542f565b5b828202905092915050565b60006151c582615262565b91506151d083615262565b9250828210156151e3576151e261542f565b5b828203905092915050565b60006151f982615242565b9050919050565b60008115159050919050565b6000819050919050565b60007fffffffff0000000000000000000000000000000000000000000000000000000082169050919050565b600073ffffffffffffffffffffffffffffffffffffffff82169050919050565b6000819050919050565b60006152778261527e565b9050919050565b600061528982615242565b9050919050565b600061529b826152a2565b9050919050565b60006152ad82615242565b9050919050565b60006152bf826152c6565b9050919050565b60006152d182615242565b9050919050565b60006152e3826152ea565b9050919050565b60006152f582615242565b9050919050565b600061530782615262565b9050919050565b82818337600083830152505050565b60005b8381101561533b578082015181840152602081019050615320565b8381111561534a576000848401525b50505050565b600061535b82615262565b9150600082141561536f5761536e61542f565b5b600182039050919050565b615383826154bc565b810181811067ffffffffffffffff821117156153a2576153a161548d565b5b80604052505050565b60006153b682615262565b91507fffffffffffffffffffffffffffffffffffffffffffffffffffffffffffffffff8214156153e9576153e861542f565b5b600182019050919050565b6000819050919050565b600061540982615262565b915061541483615262565b9250826154245761542361545e565b5b828206905092915050565b7f4e487b7100000000000000000000000000000000000000000000000000000000600052601160045260246000fd5b7f4e487b7100000000000000000000000000000000000000000000000000000000600052601260045260246000fd5b7f4e487b7100000000000000000000000000000000000000000000000000000000600052604160045260246000fd5b6000601f19601f8301169050919050565b7f45524331393637557067726164653a207570677261646520627265616b73206660008201527f7572746865722075706772616465730000000000000000000000000000000000602082015250565b7f4f776e61626c653a206e6577206f776e657220697320746865207a65726f206160008201527f6464726573730000000000000000000000000000000000000000000000000000602082015250565b7f556e7374616b653a2063616e277420756e7374616b65203020746f6b656e7300600082015250565b7f46756e6374696f6e206d7573742062652063616c6c6564207468726f7567682060008201527f64656c656761746563616c6c0000000000000000000000000000000000000000602082015250565b7f46756e6374696f6e206d7573742062652063616c6c6564207468726f7567682060008201527f6163746976652070726f78790000000000000000000000000000000000000000602082015250565b7f4f70657261746f72206e6f74207374616b696e6720636f6e7472616374000000600082015250565b7f496e697469616c697a61626c653a20636f6e747261637420697320616c72656160008201527f647920696e697469616c697a6564000000000000000000000000000000000000602082015250565b7f556e7374616b653a206964206e6f7420737570706f7274656400000000000000600082015250565b7f455243313936373a206e657720696d706c656d656e746174696f6e206973206e60008201527f6f74206120636f6e747261637400000000000000000000000000000000000000602082015250565b7f6e6f206e6f206e6f000000000000000000000000000000000000000000000000600082015250565b7f4f776e61626c653a2063616c6c6572206973206e6f7420746865206f776e6572600082015250565b7f5374616b653a2063616e2774207374616b65203020746f6b656e730000000000600082015250565b7f416464726573733a2064656c65676174652063616c6c20746f206e6f6e2d636f60008201527f6e74726163740000000000000000000000000000000000000000000000000000602082015250565b50565b7f496e697469616c697a61626c653a20636f6e7472616374206973206e6f74206960008201527f6e697469616c697a696e67000000000000000000000000000000000000000000602082015250565b7f556e7374616b653a20616d6f756e7420746f6f20686967680000000000000000600082015250565b7f5265656e7472616e637947756172643a207265656e7472616e742063616c6c00600082015250565b7f556e7374616b653a206d69636520617265206c6f636b65640000000000000000600082015250565b6158c2816151ee565b81146158cd57600080fd5b50565b6158d981615200565b81146158e457600080fd5b50565b6158f081615262565b81146158fb57600080fd5b5056fe416464726573733a206c6f772d6c6576656c2064656c65676174652063616c6c206661696c6564a2646970667358221220ea26fe6dd4dd58d8954cbe7d443946e5902e09e5dcb2352367912973b430aacf64736f6c63430008040033",
  "linkReferences": {},
  "deployedLinkReferences": {}
}