{
  "_format": "hh-sol-artifact-1",
  "contractName": "LinearCheese",
  "sourceName": "contracts/LinearCheese.sol",
  "abi": [
    {
      "inputs": [
        {
          "internalType": "address",
          "name": "_rewardTokenContract",
          "type": "address"
        },
        {
          "internalType": "address",
          "name": "_stakedTokenContract",
          "type": "address"
        },
        {
          "internalType": "address",
          "name": "_stakingHelper",
          "type": "address"
        },
        {
          "internalType": "uint256",
          "name": "_stakedTokenId",
          "type": "uint256"
        },
        {
          "internalType": "uint256",
          "name": "_rewardPerSec",
          "type": "uint256"
        },
        {
          "internalType": "uint256",
          "name": "_endTime",
          "type": "uint256"
        }
      ],
      "stateMutability": "nonpayable",
      "type": "constructor"
    },
    {
      "anonymous": false,
      "inputs": [
        {
          "indexed": true,
          "internalType": "address",
          "name": "previousOwner",
          "type": "address"
        },
        {
          "indexed": true,
          "internalType": "address",
          "name": "newOwner",
          "type": "address"
        }
      ],
      "name": "OwnershipTransferred",
      "type": "event"
    },
    {
      "anonymous": false,
      "inputs": [
        {
          "indexed": false,
          "internalType": "address",
          "name": "account",
          "type": "address"
        }
      ],
      "name": "Paused",
      "type": "event"
    },
    {
      "anonymous": false,
      "inputs": [
        {
          "indexed": true,
          "internalType": "address",
          "name": "account",
          "type": "address"
        },
        {
          "indexed": false,
          "internalType": "uint256",
          "name": "amount",
          "type": "uint256"
        }
      ],
      "name": "RewardsClaimed",
      "type": "event"
    },
    {
      "anonymous": false,
      "inputs": [
        {
          "indexed": true,
          "internalType": "address",
          "name": "account",
          "type": "address"
        },
        {
          "indexed": false,
          "internalType": "uint256",
          "name": "amount",
          "type": "uint256"
        }
      ],
      "name": "Staked",
      "type": "event"
    },
    {
      "anonymous": false,
      "inputs": [
        {
          "indexed": false,
          "internalType": "address",
          "name": "account",
          "type": "address"
        }
      ],
      "name": "Unpaused",
      "type": "event"
    },
    {
      "anonymous": false,
      "inputs": [
        {
          "indexed": true,
          "internalType": "address",
          "name": "account",
          "type": "address"
        },
        {
          "indexed": false,
          "internalType": "uint256",
          "name": "amount",
          "type": "uint256"
        }
      ],
      "name": "Unstaked",
      "type": "event"
    },
    {
      "inputs": [
        {
          "internalType": "uint256",
          "name": "amount",
          "type": "uint256"
        },
        {
          "internalType": "uint256",
          "name": "_lastClaimed",
          "type": "uint256"
        }
      ],
      "name": "calculateRewards",
      "outputs": [
        {
          "internalType": "uint256",
          "name": "",
          "type": "uint256"
        }
      ],
      "stateMutability": "view",
      "type": "function"
    },
    {
      "inputs": [
        {
          "internalType": "address",
          "name": "account",
          "type": "address"
        }
      ],
      "name": "calculateRewardsByAccount",
      "outputs": [
        {
          "internalType": "uint256",
          "name": "",
          "type": "uint256"
        }
      ],
      "stateMutability": "view",
      "type": "function"
    },
    {
      "inputs": [],
      "name": "claimRewards",
      "outputs": [],
      "stateMutability": "nonpayable",
      "type": "function"
    },
    {
      "inputs": [],
      "name": "endTime",
      "outputs": [
        {
          "internalType": "uint256",
          "name": "",
          "type": "uint256"
        }
      ],
      "stateMutability": "view",
      "type": "function"
    },
    {
      "inputs": [
        {
          "internalType": "address",
          "name": "",
          "type": "address"
        }
      ],
      "name": "lastClaimed",
      "outputs": [
        {
          "internalType": "uint256",
          "name": "",
          "type": "uint256"
        }
      ],
      "stateMutability": "view",
      "type": "function"
    },
    {
      "inputs": [
        {
          "internalType": "address",
          "name": "operator",
          "type": "address"
        },
        {
          "internalType": "address",
          "name": "",
          "type": "address"
        },
        {
          "internalType": "uint256",
          "name": "",
          "type": "uint256"
        },
        {
          "internalType": "uint256",
          "name": "",
          "type": "uint256"
        },
        {
          "internalType": "bytes",
          "name": "",
          "type": "bytes"
        }
      ],
      "name": "onERC1155Received",
      "outputs": [
        {
          "internalType": "bytes4",
          "name": "",
          "type": "bytes4"
        }
      ],
      "stateMutability": "nonpayable",
      "type": "function"
    },
    {
      "inputs": [],
      "name": "owner",
      "outputs": [
        {
          "internalType": "address",
          "name": "",
          "type": "address"
        }
      ],
      "stateMutability": "view",
      "type": "function"
    },
    {
      "inputs": [],
      "name": "pause",
      "outputs": [],
      "stateMutability": "nonpayable",
      "type": "function"
    },
    {
      "inputs": [],
      "name": "paused",
      "outputs": [
        {
          "internalType": "bool",
          "name": "",
          "type": "bool"
        }
      ],
      "stateMutability": "view",
      "type": "function"
    },
    {
      "inputs": [],
      "name": "renounceOwnership",
      "outputs": [],
      "stateMutability": "nonpayable",
      "type": "function"
    },
    {
      "inputs": [],
      "name": "rewardPerSec",
      "outputs": [
        {
          "internalType": "uint256",
          "name": "",
          "type": "uint256"
        }
      ],
      "stateMutability": "view",
      "type": "function"
    },
    {
      "inputs": [],
      "name": "rewardToken",
      "outputs": [
        {
          "internalType": "contract IERC20",
          "name": "",
          "type": "address"
        }
      ],
      "stateMutability": "view",
      "type": "function"
    },
    {
      "inputs": [
        {
          "internalType": "uint256",
          "name": "amount",
          "type": "uint256"
        }
      ],
      "name": "stake",
      "outputs": [],
      "stateMutability": "nonpayable",
      "type": "function"
    },
    {
      "inputs": [],
      "name": "stakedTokenContract",
      "outputs": [
        {
          "internalType": "contract IERC1155",
          "name": "",
          "type": "address"
        }
      ],
      "stateMutability": "view",
      "type": "function"
    },
    {
      "inputs": [],
      "name": "stakedTokenId",
      "outputs": [
        {
          "internalType": "uint256",
          "name": "",
          "type": "uint256"
        }
      ],
      "stateMutability": "view",
      "type": "function"
    },
    {
      "inputs": [
        {
          "internalType": "address",
          "name": "",
          "type": "address"
        }
      ],
      "name": "stakedTokens",
      "outputs": [
        {
          "internalType": "uint256",
          "name": "",
          "type": "uint256"
        }
      ],
      "stateMutability": "view",
      "type": "function"
    },
    {
      "inputs": [],
      "name": "stakingHelper",
      "outputs": [
        {
          "internalType": "address",
          "name": "",
          "type": "address"
        }
      ],
      "stateMutability": "view",
      "type": "function"
    },
    {
      "inputs": [
        {
          "internalType": "address",
          "name": "newOwner",
          "type": "address"
        }
      ],
      "name": "transferOwnership",
      "outputs": [],
      "stateMutability": "nonpayable",
      "type": "function"
    },
    {
      "inputs": [],
      "name": "unpause",
      "outputs": [],
      "stateMutability": "nonpayable",
      "type": "function"
    },
    {
      "inputs": [],
      "name": "unstake",
      "outputs": [],
      "stateMutability": "nonpayable",
      "type": "function"
    },
    {
      "inputs": [
        {
          "internalType": "address",
          "name": "to",
          "type": "address"
        },
        {
          "internalType": "uint256",
          "name": "amount",
          "type": "uint256"
        }
      ],
      "name": "withdraw",
      "outputs": [],
      "stateMutability": "nonpayable",
      "type": "function"
    }
  ],
  "bytecode": "0x60c06040523480156200001157600080fd5b50604051620013753803806200137583398101604081905262000034916200010b565b6200003f336200009e565b6000805460ff60a01b1916905560018055606095861b6001600160601b03199081166080529490951b90931660a052600280546001600160a01b0319166001600160a01b03939093169290921790915560035560055560045562000170565b600080546001600160a01b038381166001600160a01b0319831681178455604051919092169283917f8be0079c531659141344cd1fd0a4f28419497f9722a3daafe3b4186f6b6457e09190a35050565b80516001600160a01b03811681146200010657600080fd5b919050565b60008060008060008060c0878903121562000124578182fd5b6200012f87620000ee565b95506200013f60208801620000ee565b94506200014f60408801620000ee565b9350606087015192506080870151915060a087015190509295509295509295565b60805160601c60a05160601c6111af620001c66000396000818161026b01528181610498015281816108cb01526109bc0152600081816102e4015281816105c001528181610be70152610cdd01526111af6000f3fe608060405234801561001057600080fd5b50600436106101375760003560e01c806377b81895116100b8578063b73f88b91161007c578063b73f88b91461025d578063c909c34314610266578063f23a6e611461028d578063f2fde38b146102b9578063f3fef3a3146102cc578063f7c618c1146102df57600080fd5b806377b81895146101e65780638456cb59146102115780638da5cb5b14610219578063a5b39cfb1461022a578063a694fc3a1461024a57600080fd5b80633f4ba83a116100ff5780633f4ba83a1461019d57806348a88706146101a55780634f41e95d146101b85780635c975abb146101c1578063715018a6146101de57600080fd5b8063013eba921461013c5780631f50d4581461016f5780632def6620146101825780633197cbb61461018c578063372500ab14610195575b600080fd5b61015c61014a366004610ecc565b60066020526000908152604090205481565b6040519081526020015b60405180910390f35b61015c61017d366004610ecc565b610306565b61018a61033a565b005b61015c60045481565b61018a610548565b61018a6106dc565b61015c6101b3366004611047565b610710565b61015c60055481565b600054600160a01b900460ff166040519015158152602001610166565b61018a610778565b6002546101f9906001600160a01b031681565b6040516001600160a01b039091168152602001610166565b61018a6107ac565b6000546001600160a01b03166101f9565b61015c610238366004610ecc565b60076020526000908152604090205481565b61018a610258366004611017565b6107de565b61015c60035481565b6101f97f000000000000000000000000000000000000000000000000000000000000000081565b6102a061029b366004610eed565b610a89565b6040516001600160e01b03199091168152602001610166565b61018a6102c7366004610ecc565b610b0e565b61018a6102da366004610fce565b610ba6565b6101f97f000000000000000000000000000000000000000000000000000000000000000081565b6001600160a01b03811660009081526007602090815260408083205460069092528220546103349190610710565b92915050565b600054600160a01b900460ff161561036d5760405162461bcd60e51b8152600401610364906110a0565b60405180910390fd5b600260015414156103c05760405162461bcd60e51b815260206004820152601f60248201527f5265656e7472616e637947756172643a207265656e7472616e742063616c6c006044820152606401610364565b600260015533600090815260076020526040902054806104195760405162461bcd60e51b8152602060048201526014602482015273155b9cdd185ad94e881b9bdb99481cdd185ad95960621b6044820152606401610364565b60045442101561046b5760405162461bcd60e51b815260206004820152601860248201527f556e7374616b653a2077696e646f77206e6f74206f70656e00000000000000006044820152606401610364565b610473610548565b33600081815260076020526040808220919091556003549051637921219560e11b81527f00000000000000000000000000000000000000000000000000000000000000006001600160a01b03169263f242432a926104d992309291908790600401611068565b600060405180830381600087803b1580156104f357600080fd5b505af1158015610507573d6000803e3d6000fd5b50506040518381523392507f0f5bb82176feb1b5e747e28471aa92156a04d9f3ab9f45f28e2d704232b93f7591506020015b60405180910390a25060018055565b600054600160a01b900460ff16156105725760405162461bcd60e51b8152600401610364906110a0565b600061057d33610306565b336000908152600660205260409020429055905080156106d95760025460405163095ea7b360e01b81526001600160a01b039182166004820152602481018390527f00000000000000000000000000000000000000000000000000000000000000009091169063095ea7b390604401602060405180830381600087803b15801561060657600080fd5b505af115801561061a573d6000803e3d6000fd5b505050506040513d601f19601f8201168201806040525081019061063e9190610ff7565b50600254604051637acb775760e01b8152600481018390523360248201526001600160a01b0390911690637acb775790604401600060405180830381600087803b15801561068b57600080fd5b505af115801561069f573d6000803e3d6000fd5b50506040518381523392507ffc30cddea38e2bf4d6ea7d3f9ed3b6ad7f176419f4963bd81318067a4aee73fe915060200160405180910390a25b50565b6000546001600160a01b031633146107065760405162461bcd60e51b8152600401610364906110ca565b61070e610d5e565b565b3360009081526006602052604081205461072c57506000610334565b60006107388342611136565b9050600454421061075457826004546107519190611136565b90505b600084826005546107659190611117565b61076f9190611117565b95945050505050565b6000546001600160a01b031633146107a25760405162461bcd60e51b8152600401610364906110ca565b61070e6000610dfb565b6000546001600160a01b031633146107d65760405162461bcd60e51b8152600401610364906110ca565b61070e610e4b565b600054600160a01b900460ff16156108085760405162461bcd60e51b8152600401610364906110a0565b6002600154141561085b5760405162461bcd60e51b815260206004820152601f60248201527f5265656e7472616e637947756172643a207265656e7472616e742063616c6c006044820152606401610364565b600260015560045442106108aa5760405162461bcd60e51b815260206004820152601660248201527529ba30b5b29d103bb4b73237bb903737ba1037b832b760511b6044820152606401610364565b600354604051627eeac760e11b8152336004820152602481019190915281907f00000000000000000000000000000000000000000000000000000000000000006001600160a01b03169062fdd58e9060440160206040518083038186803b15801561091457600080fd5b505afa158015610928573d6000803e3d6000fd5b505050506040513d601f19601f8201168201806040525081019061094c919061102f565b101561099a5760405162461bcd60e51b815260206004820152601860248201527f5374616b653a20616d6f756e742070726f6869626974656400000000000000006044820152606401610364565b6109a2610548565b600354604051637921219560e11b81526001600160a01b037f0000000000000000000000000000000000000000000000000000000000000000169163f242432a916109f69133913091908790600401611068565b600060405180830381600087803b158015610a1057600080fd5b505af1158015610a24573d6000803e3d6000fd5b505033600090815260076020526040902054610a4392508391506110ff565b33600081815260076020526040908190209290925590517f9e71bc8eea02a63969f509818f2dafb9254532904319f9dbda79b67bd34a5f3d906105399084815260200190565b60006001600160a01b0386163014610ae35760405162461bcd60e51b815260206004820152601d60248201527f4f70657261746f72206e6f74207374616b696e6720636f6e74726163740000006044820152606401610364565b507ff23a6e612e1ff4830e658fe43f4e3cb4a5f8170bd5d9e69fb5d7a7fa9e4fdf9795945050505050565b6000546001600160a01b03163314610b385760405162461bcd60e51b8152600401610364906110ca565b6001600160a01b038116610b9d5760405162461bcd60e51b815260206004820152602660248201527f4f776e61626c653a206e6577206f776e657220697320746865207a65726f206160448201526564647265737360d01b6064820152608401610364565b6106d981610dfb565b6000546001600160a01b03163314610bd05760405162461bcd60e51b8152600401610364906110ca565b6040516370a0823160e01b815230600482015281907f00000000000000000000000000000000000000000000000000000000000000006001600160a01b0316906370a082319060240160206040518083038186803b158015610c3157600080fd5b505afa158015610c45573d6000803e3d6000fd5b505050506040513d601f19601f82011682018060405250810190610c69919061102f565b1015610cb75760405162461bcd60e51b815260206004820152601a60248201527f57697468647261773a2062616c616e63652065786365656465640000000000006044820152606401610364565b60405163a9059cbb60e01b81526001600160a01b038381166004830152602482018390527f0000000000000000000000000000000000000000000000000000000000000000169063a9059cbb90604401602060405180830381600087803b158015610d2157600080fd5b505af1158015610d35573d6000803e3d6000fd5b505050506040513d601f19601f82011682018060405250810190610d599190610ff7565b505050565b600054600160a01b900460ff16610dae5760405162461bcd60e51b815260206004820152601460248201527314185d5cd8589b194e881b9bdd081c185d5cd95960621b6044820152606401610364565b6000805460ff60a01b191690557f5db9ee0a495bf2e6ff9c91a7834c1ba4fdd244a5e8aa4e537bd38aeae4b073aa335b6040516001600160a01b03909116815260200160405180910390a1565b600080546001600160a01b038381166001600160a01b0319831681178455604051919092169283917f8be0079c531659141344cd1fd0a4f28419497f9722a3daafe3b4186f6b6457e09190a35050565b600054600160a01b900460ff1615610e755760405162461bcd60e51b8152600401610364906110a0565b6000805460ff60a01b1916600160a01b1790557f62e78cea01bee320cd4e420270b5ea74000d11b0c9f74754ebdbfc544b05a258610dde3390565b80356001600160a01b0381168114610ec757600080fd5b919050565b600060208284031215610edd578081fd5b610ee682610eb0565b9392505050565b600080600080600060a08688031215610f04578081fd5b610f0d86610eb0565b9450610f1b60208701610eb0565b93506040860135925060608601359150608086013567ffffffffffffffff80821115610f45578283fd5b818801915088601f830112610f58578283fd5b813581811115610f6a57610f6a611163565b604051601f8201601f19908116603f01168101908382118183101715610f9257610f92611163565b816040528281528b6020848701011115610faa578586fd5b82602086016020830137856020848301015280955050505050509295509295909350565b60008060408385031215610fe0578182fd5b610fe983610eb0565b946020939093013593505050565b600060208284031215611008578081fd5b81518015158114610ee6578182fd5b600060208284031215611028578081fd5b5035919050565b600060208284031215611040578081fd5b5051919050565b60008060408385031215611059578182fd5b50508035926020909101359150565b6001600160a01b0394851681529290931660208301526040820152606081019190915260a06080820181905260009082015260c00190565b60208082526010908201526f14185d5cd8589b194e881c185d5cd95960821b604082015260600190565b6020808252818101527f4f776e61626c653a2063616c6c6572206973206e6f7420746865206f776e6572604082015260600190565b600082198211156111125761111261114d565b500190565b60008160001904831182151516156111315761113161114d565b500290565b6000828210156111485761114861114d565b500390565b634e487b7160e01b600052601160045260246000fd5b634e487b7160e01b600052604160045260246000fdfea2646970667358221220e29c3f9694949678ce2834983449dda92d785a5c0d9aea47227d97ac8c48b7ed64736f6c63430008040033",
  "linkReferences": {},
  "deployedLinkReferences": {}
}