{
  "_format": "hh-sol-artifact-1",
  "contractName": "Market",
  "sourceName": "contracts/Market.sol",
  "abi": [
    {
      "inputs": [
        {
          "internalType": "address",
          "name": "wsCHEEZ",
          "type": "address"
        },
        {
          "internalType": "address",
          "name": "DAO",
          "type": "address"
        }
      ],
      "stateMutability": "nonpayable",
      "type": "constructor"
    },
    {
      "anonymous": false,
      "inputs": [
        {
          "indexed": false,
          "internalType": "uint256",
          "name": "offerID",
          "type": "uint256"
        },
        {
          "indexed": true,
          "internalType": "address",
          "name": "buyer",
          "type": "address"
        },
        {
          "indexed": true,
          "internalType": "address",
          "name": "token",
          "type": "address"
        },
        {
          "indexed": true,
          "internalType": "uint256",
          "name": "tokenID",
          "type": "uint256"
        },
        {
          "indexed": false,
          "internalType": "uint256",
          "name": "amount",
          "type": "uint256"
        },
        {
          "indexed": false,
          "internalType": "uint256",
          "name": "deadline",
          "type": "uint256"
        },
        {
          "indexed": false,
          "internalType": "uint256",
          "name": "price",
          "type": "uint256"
        },
        {
          "indexed": false,
          "internalType": "uint256",
          "name": "fee",
          "type": "uint256"
        }
      ],
      "name": "Buy",
      "type": "event"
    },
    {
      "anonymous": false,
      "inputs": [
        {
          "indexed": false,
          "internalType": "uint256",
          "name": "offerID",
          "type": "uint256"
        },
        {
          "indexed": true,
          "internalType": "address",
          "name": "canceller",
          "type": "address"
        },
        {
          "indexed": true,
          "internalType": "address",
          "name": "token",
          "type": "address"
        },
        {
          "indexed": true,
          "internalType": "uint256",
          "name": "tokenID",
          "type": "uint256"
        },
        {
          "indexed": false,
          "internalType": "uint256",
          "name": "time",
          "type": "uint256"
        }
      ],
      "name": "Cancel",
      "type": "event"
    },
    {
      "anonymous": false,
      "inputs": [
        {
          "indexed": true,
          "internalType": "address",
          "name": "previousOwner",
          "type": "address"
        },
        {
          "indexed": true,
          "internalType": "address",
          "name": "newOwner",
          "type": "address"
        }
      ],
      "name": "OwnershipTransferred",
      "type": "event"
    },
    {
      "anonymous": false,
      "inputs": [
        {
          "indexed": false,
          "internalType": "uint256",
          "name": "offerID",
          "type": "uint256"
        },
        {
          "indexed": true,
          "internalType": "address",
          "name": "admin",
          "type": "address"
        },
        {
          "indexed": true,
          "internalType": "address",
          "name": "token",
          "type": "address"
        },
        {
          "indexed": true,
          "internalType": "uint256",
          "name": "tokenID",
          "type": "uint256"
        },
        {
          "indexed": false,
          "internalType": "uint256",
          "name": "amount",
          "type": "uint256"
        },
        {
          "indexed": false,
          "internalType": "uint256",
          "name": "deadline",
          "type": "uint256"
        },
        {
          "indexed": false,
          "internalType": "uint256",
          "name": "price",
          "type": "uint256"
        }
      ],
      "name": "Sell",
      "type": "event"
    },
    {
      "inputs": [
        {
          "internalType": "uint256",
          "name": "offerID",
          "type": "uint256"
        },
        {
          "internalType": "uint256",
          "name": "amount",
          "type": "uint256"
        }
      ],
      "name": "BuyOffer",
      "outputs": [],
      "stateMutability": "payable",
      "type": "function"
    },
    {
      "inputs": [
        {
          "internalType": "address",
          "name": "_token",
          "type": "address"
        },
        {
          "internalType": "uint256",
          "name": "_tokenID",
          "type": "uint256"
        },
        {
          "internalType": "uint256",
          "name": "_amount",
          "type": "uint256"
        },
        {
          "internalType": "uint256",
          "name": "_deadline",
          "type": "uint256"
        },
        {
          "internalType": "uint256",
          "name": "_price",
          "type": "uint256"
        }
      ],
      "name": "MakeOffer",
      "outputs": [],
      "stateMutability": "nonpayable",
      "type": "function"
    },
    {
      "inputs": [
        {
          "internalType": "uint256",
          "name": "offerID",
          "type": "uint256"
        }
      ],
      "name": "cancelOffer",
      "outputs": [],
      "stateMutability": "nonpayable",
      "type": "function"
    },
    {
      "inputs": [],
      "name": "numOffers",
      "outputs": [
        {
          "internalType": "uint256",
          "name": "",
          "type": "uint256"
        }
      ],
      "stateMutability": "view",
      "type": "function"
    },
    {
      "inputs": [
        {
          "internalType": "uint256",
          "name": "",
          "type": "uint256"
        }
      ],
      "name": "offers",
      "outputs": [
        {
          "internalType": "address payable",
          "name": "admin",
          "type": "address"
        },
        {
          "internalType": "bool",
          "name": "available",
          "type": "bool"
        },
        {
          "internalType": "address",
          "name": "token",
          "type": "address"
        },
        {
          "internalType": "uint256",
          "name": "tokenID",
          "type": "uint256"
        },
        {
          "internalType": "uint256",
          "name": "amount",
          "type": "uint256"
        },
        {
          "internalType": "uint256",
          "name": "deadline",
          "type": "uint256"
        },
        {
          "internalType": "uint256",
          "name": "price",
          "type": "uint256"
        }
      ],
      "stateMutability": "view",
      "type": "function"
    },
    {
      "inputs": [
        {
          "internalType": "address",
          "name": "",
          "type": "address"
        },
        {
          "internalType": "address",
          "name": "",
          "type": "address"
        },
        {
          "internalType": "uint256",
          "name": "",
          "type": "uint256"
        },
        {
          "internalType": "uint256",
          "name": "",
          "type": "uint256"
        },
        {
          "internalType": "bytes",
          "name": "",
          "type": "bytes"
        }
      ],
      "name": "onERC1155Received",
      "outputs": [
        {
          "internalType": "bytes4",
          "name": "",
          "type": "bytes4"
        }
      ],
      "stateMutability": "nonpayable",
      "type": "function"
    },
    {
      "inputs": [],
      "name": "owner",
      "outputs": [
        {
          "internalType": "address",
          "name": "",
          "type": "address"
        }
      ],
      "stateMutability": "view",
      "type": "function"
    },
    {
      "inputs": [],
      "name": "renounceOwnership",
      "outputs": [],
      "stateMutability": "nonpayable",
      "type": "function"
    },
    {
      "inputs": [
        {
          "internalType": "address payable",
          "name": "_collector",
          "type": "address"
        }
      ],
      "name": "setCollector",
      "outputs": [],
      "stateMutability": "nonpayable",
      "type": "function"
    },
    {
      "inputs": [
        {
          "internalType": "uint256",
          "name": "_fee",
          "type": "uint256"
        }
      ],
      "name": "setFee",
      "outputs": [],
      "stateMutability": "nonpayable",
      "type": "function"
    },
    {
      "inputs": [
        {
          "internalType": "address",
          "name": "newOwner",
          "type": "address"
        }
      ],
      "name": "transferOwnership",
      "outputs": [],
      "stateMutability": "nonpayable",
      "type": "function"
    },
    {
      "inputs": [
        {
          "internalType": "address",
          "name": "_token",
          "type": "address"
        },
        {
          "internalType": "uint256",
          "name": "_tokenID",
          "type": "uint256"
        },
        {
          "internalType": "uint256",
          "name": "_amount",
          "type": "uint256"
        },
        {
          "internalType": "uint256",
          "name": "_deadline",
          "type": "uint256"
        },
        {
          "internalType": "uint256",
          "name": "_price",
          "type": "uint256"
        },
        {
          "internalType": "uint256",
          "name": "_offerID",
          "type": "uint256"
        }
      ],
      "name": "updateOffer",
      "outputs": [],
      "stateMutability": "nonpayable",
      "type": "function"
    }
  ],
  "bytecode": "0x60806040523480156200001157600080fd5b506040516200277d3803806200277d8339818101604052810190620000379190620001cc565b620000576200004b620000e960201b60201c565b620000f160201b60201c565b81600360006101000a81548173ffffffffffffffffffffffffffffffffffffffff021916908373ffffffffffffffffffffffffffffffffffffffff16021790555080600460006101000a81548173ffffffffffffffffffffffffffffffffffffffff021916908373ffffffffffffffffffffffffffffffffffffffff160217905550606460058190555050506200025b565b600033905090565b60008060009054906101000a900473ffffffffffffffffffffffffffffffffffffffff169050816000806101000a81548173ffffffffffffffffffffffffffffffffffffffff021916908373ffffffffffffffffffffffffffffffffffffffff1602179055508173ffffffffffffffffffffffffffffffffffffffff168173ffffffffffffffffffffffffffffffffffffffff167f8be0079c531659141344cd1fd0a4f28419497f9722a3daafe3b4186f6b6457e060405160405180910390a35050565b600081519050620001c68162000241565b92915050565b60008060408385031215620001e057600080fd5b6000620001f085828601620001b5565b92505060206200020385828601620001b5565b9150509250929050565b60006200021a8262000221565b9050919050565b600073ffffffffffffffffffffffffffffffffffffffff82169050919050565b6200024c816200020d565b81146200025857600080fd5b50565b612512806200026b6000396000f3fe6080604052600436106100a75760003560e01c8063cc6bee5411610064578063cc6bee54146101ac578063e3764bc4146101d7578063ef706adf146101f3578063f23a6e611461021c578063f2fde38b14610259578063fb5b82d014610282576100a7565b80633e65f06f146100ac57806369fe0e2d146100d5578063715018a6146100fe5780638a72ea6a146101155780638da5cb5b14610158578063b483d08f14610183575b600080fd5b3480156100b857600080fd5b506100d360048036038101906100ce9190611a01565b6102ab565b005b3480156100e157600080fd5b506100fc60048036038101906100f79190611ab3565b6106b7565b005b34801561010a57600080fd5b5061011361073d565b005b34801561012157600080fd5b5061013c60048036038101906101379190611ab3565b6107c5565b60405161014f9796959493929190611e8e565b60405180910390f35b34801561016457600080fd5b5061016d610854565b60405161017a9190611e1b565b60405180910390f35b34801561018f57600080fd5b506101aa60048036038101906101a5919061198a565b61087d565b005b3480156101b857600080fd5b506101c1610bfb565b6040516101ce91906120c1565b60405180910390f35b6101f160048036038101906101ec9190611b05565b610c01565b005b3480156101ff57600080fd5b5061021a60048036038101906102159190611ab3565b611294565b005b34801561022857600080fd5b50610243600480360381019061023e91906118fb565b611464565b6040516102509190611f86565b60405180910390f35b34801561026557600080fd5b50610280600480360381019061027b91906118a9565b611492565b005b34801561028e57600080fd5b506102a960048036038101906102a491906118d2565b61158a565b005b8060025481106102f0576040517f08c379a00000000000000000000000000000000000000000000000000000000081526004016102e790611fa1565b60405180910390fd5b6001600083815260200190815260200160002060000160009054906101000a900473ffffffffffffffffffffffffffffffffffffffff1673ffffffffffffffffffffffffffffffffffffffff163373ffffffffffffffffffffffffffffffffffffffff1614610394576040517f08c379a000000000000000000000000000000000000000000000000000000000815260040161038b90612061565b60405180910390fd5b61039d8761164a565b60008790508073ffffffffffffffffffffffffffffffffffffffff1663e985e9c533306040518363ffffffff1660e01b81526004016103dd929190611efd565b60206040518083038186803b1580156103f557600080fd5b505afa158015610409573d6000803e3d6000fd5b505050506040513d601f19601f8201168201806040525081019061042d9190611a8a565b61046c576040517f08c379a000000000000000000000000000000000000000000000000000000000815260040161046390612001565b60405180910390fd5b600086116104af576040517f08c379a00000000000000000000000000000000000000000000000000000000081526004016104a690611fc1565b60405180910390fd5b60008173ffffffffffffffffffffffffffffffffffffffff1662fdd58e338a6040518363ffffffff1660e01b81526004016104eb929190611f5d565b60206040518083038186803b15801561050357600080fd5b505afa158015610517573d6000803e3d6000fd5b505050506040513d601f19601f8201168201806040525081019061053b9190611adc565b90508087111561054a57600080fd5b6000600160008681526020019081526020016000209050898160010160006101000a81548173ffffffffffffffffffffffffffffffffffffffff021916908373ffffffffffffffffffffffffffffffffffffffff16021790555088816002018190555087816003018190555086816004018190555085816005018190555060018160000160146101000a81548160ff02191690831515021790555080600201548160010160009054906101000a900473ffffffffffffffffffffffffffffffffffffffff1673ffffffffffffffffffffffffffffffffffffffff168260000160009054906101000a900473ffffffffffffffffffffffffffffffffffffffff1673ffffffffffffffffffffffffffffffffffffffff167fe0e968cfdcec5d44a69abab96bcae2db0ef7bc19032d2d3e1d0e2cff2bc64d326002548560030154866004015487600501546040516106a39493929190612105565b60405180910390a450505050505050505050565b6106bf6116e3565b73ffffffffffffffffffffffffffffffffffffffff166106dd610854565b73ffffffffffffffffffffffffffffffffffffffff1614610733576040517f08c379a000000000000000000000000000000000000000000000000000000000815260040161072a90612021565b60405180910390fd5b8060058190555050565b6107456116e3565b73ffffffffffffffffffffffffffffffffffffffff16610763610854565b73ffffffffffffffffffffffffffffffffffffffff16146107b9576040517f08c379a00000000000000000000000000000000000000000000000000000000081526004016107b090612021565b60405180910390fd5b6107c360006116eb565b565b60016020528060005260406000206000915090508060000160009054906101000a900473ffffffffffffffffffffffffffffffffffffffff16908060000160149054906101000a900460ff16908060010160009054906101000a900473ffffffffffffffffffffffffffffffffffffffff16908060020154908060030154908060040154908060050154905087565b60008060009054906101000a900473ffffffffffffffffffffffffffffffffffffffff16905090565b6108868561164a565b60008590508073ffffffffffffffffffffffffffffffffffffffff1663e985e9c533306040518363ffffffff1660e01b81526004016108c6929190611efd565b60206040518083038186803b1580156108de57600080fd5b505afa1580156108f2573d6000803e3d6000fd5b505050506040513d601f19601f820116820180604052508101906109169190611a8a565b610955576040517f08c379a000000000000000000000000000000000000000000000000000000000815260040161094c90612001565b60405180910390fd5b60008411610998576040517f08c379a000000000000000000000000000000000000000000000000000000000815260040161098f90611fc1565b60405180910390fd5b60008173ffffffffffffffffffffffffffffffffffffffff1662fdd58e33886040518363ffffffff1660e01b81526004016109d4929190611f5d565b60206040518083038186803b1580156109ec57600080fd5b505afa158015610a00573d6000803e3d6000fd5b505050506040513d601f19601f82011682018060405250810190610a249190611adc565b905080851115610a3357600080fd5b60006001600060025481526020019081526020016000209050878160010160006101000a81548173ffffffffffffffffffffffffffffffffffffffff021916908373ffffffffffffffffffffffffffffffffffffffff160217905550868160020181905550858160030181905550848160040181905550838160050181905550338160000160006101000a81548173ffffffffffffffffffffffffffffffffffffffff021916908373ffffffffffffffffffffffffffffffffffffffff16021790555060018160000160146101000a81548160ff02191690831515021790555080600201548160010160009054906101000a900473ffffffffffffffffffffffffffffffffffffffff1673ffffffffffffffffffffffffffffffffffffffff168260000160009054906101000a900473ffffffffffffffffffffffffffffffffffffffff1673ffffffffffffffffffffffffffffffffffffffff167fe0e968cfdcec5d44a69abab96bcae2db0ef7bc19032d2d3e1d0e2cff2bc64d32600254856003015486600401548760050154604051610bd19493929190612105565b60405180910390a460026000815480929190610bec906123aa565b91905055505050505050505050565b60025481565b816002548110610c46576040517f08c379a0000000000000000000000000000000000000000000000000000000008152600401610c3d90611fa1565b60405180910390fd5b6001600084815260200190815260200160002060000160149054906101000a900460ff16610ca9576040517f08c379a0000000000000000000000000000000000000000000000000000000008152600401610ca0906120a1565b60405180910390fd5b4260016000858152602001908152602001600020600401541015610d02576040517f08c379a0000000000000000000000000000000000000000000000000000000008152600401610cf990612081565b60405180910390fd5b8160016000858152602001908152602001600020600301541015610d5b576040517f08c379a0000000000000000000000000000000000000000000000000000000008152600401610d5290612081565b60405180910390fd5b60006001600085815260200190815260200160002060010160009054906101000a900473ffffffffffffffffffffffffffffffffffffffff1690506000836001600087815260200190815260200160002060050154610dba9190612251565b9050600060055482610dcc9190612220565b90506000600360009054906101000a900473ffffffffffffffffffffffffffffffffffffffff1673ffffffffffffffffffffffffffffffffffffffff1663dd62ed3e33306040518363ffffffff1660e01b8152600401610e2d929190611efd565b60206040518083038186803b158015610e4557600080fd5b505afa158015610e59573d6000803e3d6000fd5b505050506040513d601f19601f82011682018060405250810190610e7d9190611adc565b905082811015610ec2576040517f08c379a0000000000000000000000000000000000000000000000000000000008152600401610eb990612041565b60405180910390fd5b600360009054906101000a900473ffffffffffffffffffffffffffffffffffffffff1673ffffffffffffffffffffffffffffffffffffffff166323b872dd33600460009054906101000a900473ffffffffffffffffffffffffffffffffffffffff16856040518463ffffffff1660e01b8152600401610f4393929190611f26565b602060405180830381600087803b158015610f5d57600080fd5b505af1158015610f71573d6000803e3d6000fd5b505050506040513d601f19601f82011682018060405250810190610f959190611a8a565b50600360009054906101000a900473ffffffffffffffffffffffffffffffffffffffff1673ffffffffffffffffffffffffffffffffffffffff166323b872dd33600160008b815260200190815260200160002060000160009054906101000a900473ffffffffffffffffffffffffffffffffffffffff16858761101891906122ab565b6040518463ffffffff1660e01b815260040161103693929190611f26565b602060405180830381600087803b15801561105057600080fd5b505af1158015611064573d6000803e3d6000fd5b505050506040513d601f19601f820116820180604052508101906110889190611a8a565b508373ffffffffffffffffffffffffffffffffffffffff1663f242432a600160008a815260200190815260200160002060000160009054906101000a900473ffffffffffffffffffffffffffffffffffffffff1633600160008c8152602001908152602001600020600201548a6040518563ffffffff1660e01b81526004016111149493929190611e36565b600060405180830381600087803b15801561112e57600080fd5b505af1158015611142573d6000803e3d6000fd5b5050505060016000888152602001908152602001600020600201546001600089815260200190815260200160002060010160009054906101000a900473ffffffffffffffffffffffffffffffffffffffff1673ffffffffffffffffffffffffffffffffffffffff163373ffffffffffffffffffffffffffffffffffffffff167fcc45266bc381c60fba63d46c9ac5570445ad07f836e9d4a55f6aec05b6425f888a8a4289896040516111f895949392919061214a565b60405180910390a485600160008981526020019081526020016000206003015461122291906122ab565b600160008981526020019081526020016000206003018190555060006001600089815260200190815260200160002060030154141561128b5760006001600089815260200190815260200160002060000160146101000a81548160ff0219169083151502179055505b50505050505050565b8060025481106112d9576040517f08c379a00000000000000000000000000000000000000000000000000000000081526004016112d090611fa1565b60405180910390fd5b6001600083815260200190815260200160002060000160009054906101000a900473ffffffffffffffffffffffffffffffffffffffff1673ffffffffffffffffffffffffffffffffffffffff163373ffffffffffffffffffffffffffffffffffffffff161461137d576040517f08c379a000000000000000000000000000000000000000000000000000000000815260040161137490612061565b60405180910390fd5b60006001600084815260200190815260200160002060000160146101000a81548160ff02191690831515021790555060016000838152602001908152602001600020600201546001600084815260200190815260200160002060010160009054906101000a900473ffffffffffffffffffffffffffffffffffffffff1673ffffffffffffffffffffffffffffffffffffffff163373ffffffffffffffffffffffffffffffffffffffff167fca5fbf354151ee18d2ff58712c9ed7be34397aa5983abfaf40e2d8485867d96685426040516114589291906120dc565b60405180910390a45050565b60007ff23a6e612e1ff4830e658fe43f4e3cb4a5f8170bd5d9e69fb5d7a7fa9e4fdf97905095945050505050565b61149a6116e3565b73ffffffffffffffffffffffffffffffffffffffff166114b8610854565b73ffffffffffffffffffffffffffffffffffffffff161461150e576040517f08c379a000000000000000000000000000000000000000000000000000000000815260040161150590612021565b60405180910390fd5b600073ffffffffffffffffffffffffffffffffffffffff168173ffffffffffffffffffffffffffffffffffffffff16141561157e576040517f08c379a000000000000000000000000000000000000000000000000000000000815260040161157590611fe1565b60405180910390fd5b611587816116eb565b50565b6115926116e3565b73ffffffffffffffffffffffffffffffffffffffff166115b0610854565b73ffffffffffffffffffffffffffffffffffffffff1614611606576040517f08c379a00000000000000000000000000000000000000000000000000000000081526004016115fd90612021565b60405180910390fd5b80600460006101000a81548173ffffffffffffffffffffffffffffffffffffffff021916908373ffffffffffffffffffffffffffffffffffffffff16021790555050565b6116e08160405160240161165e9190611e1b565b6040516020818303038152906040527f2c2ecbc2000000000000000000000000000000000000000000000000000000007bffffffffffffffffffffffffffffffffffffffffffffffffffffffff19166020820180517bffffffffffffffffffffffffffffffffffffffffffffffffffffffff83818316178352505050506117af565b50565b600033905090565b60008060009054906101000a900473ffffffffffffffffffffffffffffffffffffffff169050816000806101000a81548173ffffffffffffffffffffffffffffffffffffffff021916908373ffffffffffffffffffffffffffffffffffffffff1602179055508173ffffffffffffffffffffffffffffffffffffffff168173ffffffffffffffffffffffffffffffffffffffff167f8be0079c531659141344cd1fd0a4f28419497f9722a3daafe3b4186f6b6457e060405160405180910390a35050565b60008151905060006a636f6e736f6c652e6c6f679050602083016000808483855afa5050505050565b60006117eb6117e6846121ce565b61219d565b90508281526020810184848401111561180357600080fd5b61180e84828561239b565b509392505050565b60008135905061182581612480565b92915050565b60008135905061183a81612497565b92915050565b60008151905061184f816124ae565b92915050565b600082601f83011261186657600080fd5b81356118768482602086016117d8565b91505092915050565b60008135905061188e816124c5565b92915050565b6000815190506118a3816124c5565b92915050565b6000602082840312156118bb57600080fd5b60006118c984828501611816565b91505092915050565b6000602082840312156118e457600080fd5b60006118f28482850161182b565b91505092915050565b600080600080600060a0868803121561191357600080fd5b600061192188828901611816565b955050602061193288828901611816565b94505060406119438882890161187f565b93505060606119548882890161187f565b925050608086013567ffffffffffffffff81111561197157600080fd5b61197d88828901611855565b9150509295509295909350565b600080600080600060a086880312156119a257600080fd5b60006119b088828901611816565b95505060206119c18882890161187f565b94505060406119d28882890161187f565b93505060606119e38882890161187f565b92505060806119f48882890161187f565b9150509295509295909350565b60008060008060008060c08789031215611a1a57600080fd5b6000611a2889828a01611816565b9650506020611a3989828a0161187f565b9550506040611a4a89828a0161187f565b9450506060611a5b89828a0161187f565b9350506080611a6c89828a0161187f565b92505060a0611a7d89828a0161187f565b9150509295509295509295565b600060208284031215611a9c57600080fd5b6000611aaa84828501611840565b91505092915050565b600060208284031215611ac557600080fd5b6000611ad38482850161187f565b91505092915050565b600060208284031215611aee57600080fd5b6000611afc84828501611894565b91505092915050565b60008060408385031215611b1857600080fd5b6000611b268582860161187f565b9250506020611b378582860161187f565b9150509250929050565b611b4a81612365565b82525050565b611b59816122f1565b82525050565b611b68816122df565b82525050565b611b7781612303565b82525050565b611b868161230f565b82525050565b6000611b9960118361220f565b91507f4f6666657220646f6e27742065786973740000000000000000000000000000006000830152602082019050919050565b6000611bd960118361220f565b91507f4e6f7420746f6b656e20746f2073656c6c0000000000000000000000000000006000830152602082019050919050565b6000611c1960268361220f565b91507f4f776e61626c653a206e6577206f776e657220697320746865207a65726f206160008301527f64647265737300000000000000000000000000000000000000000000000000006020830152604082019050919050565b6000611c7f600f8361220f565b91507f417070726f76616c204e656564656400000000000000000000000000000000006000830152602082019050919050565b6000611cbf60208361220f565b91507f4f776e61626c653a2063616c6c6572206973206e6f7420746865206f776e65726000830152602082019050919050565b6000611cff60198361220f565b91507f6e6f7420656e6f7567682066756e647320617070726f766564000000000000006000830152602082019050919050565b6000611d3f6000836121fe565b9150600082019050919050565b6000611d59601a8361220f565b91507f4f6e6c7920746f6b656e2063726561746f7220646f20746861740000000000006000830152602082019050919050565b6000611d99600d8361220f565b91507f45787069726564206f66666572000000000000000000000000000000000000006000830152602082019050919050565b6000611dd960168361220f565b91507f4f66666572206973206e6f7420617661696c61626c65000000000000000000006000830152602082019050919050565b611e158161235b565b82525050565b6000602082019050611e306000830184611b5f565b92915050565b600060a082019050611e4b6000830187611b41565b611e586020830186611b5f565b611e656040830185611e0c565b611e726060830184611e0c565b8181036080830152611e8381611d32565b905095945050505050565b600060e082019050611ea3600083018a611b50565b611eb06020830189611b6e565b611ebd6040830188611b5f565b611eca6060830187611e0c565b611ed76080830186611e0c565b611ee460a0830185611e0c565b611ef160c0830184611e0c565b98975050505050505050565b6000604082019050611f126000830185611b5f565b611f1f6020830184611b5f565b9392505050565b6000606082019050611f3b6000830186611b5f565b611f486020830185611b41565b611f556040830184611e0c565b949350505050565b6000604082019050611f726000830185611b5f565b611f7f6020830184611e0c565b9392505050565b6000602082019050611f9b6000830184611b7d565b92915050565b60006020820190508181036000830152611fba81611b8c565b9050919050565b60006020820190508181036000830152611fda81611bcc565b9050919050565b60006020820190508181036000830152611ffa81611c0c565b9050919050565b6000602082019050818103600083015261201a81611c72565b9050919050565b6000602082019050818103600083015261203a81611cb2565b9050919050565b6000602082019050818103600083015261205a81611cf2565b9050919050565b6000602082019050818103600083015261207a81611d4c565b9050919050565b6000602082019050818103600083015261209a81611d8c565b9050919050565b600060208201905081810360008301526120ba81611dcc565b9050919050565b60006020820190506120d66000830184611e0c565b92915050565b60006040820190506120f16000830185611e0c565b6120fe6020830184611e0c565b9392505050565b600060808201905061211a6000830187611e0c565b6121276020830186611e0c565b6121346040830185611e0c565b6121416060830184611e0c565b95945050505050565b600060a08201905061215f6000830188611e0c565b61216c6020830187611e0c565b6121796040830186611e0c565b6121866060830185611e0c565b6121936080830184611e0c565b9695505050505050565b6000604051905081810181811067ffffffffffffffff821117156121c4576121c3612451565b5b8060405250919050565b600067ffffffffffffffff8211156121e9576121e8612451565b5b601f19601f8301169050602081019050919050565b600082825260208201905092915050565b600082825260208201905092915050565b600061222b8261235b565b91506122368361235b565b92508261224657612245612422565b5b828204905092915050565b600061225c8261235b565b91506122678361235b565b9250817fffffffffffffffffffffffffffffffffffffffffffffffffffffffffffffffff04831182151516156122a05761229f6123f3565b5b828202905092915050565b60006122b68261235b565b91506122c18361235b565b9250828210156122d4576122d36123f3565b5b828203905092915050565b60006122ea8261233b565b9050919050565b60006122fc8261233b565b9050919050565b60008115159050919050565b60007fffffffff0000000000000000000000000000000000000000000000000000000082169050919050565b600073ffffffffffffffffffffffffffffffffffffffff82169050919050565b6000819050919050565b600061237082612377565b9050919050565b600061238282612389565b9050919050565b60006123948261233b565b9050919050565b82818337600083830152505050565b60006123b58261235b565b91507fffffffffffffffffffffffffffffffffffffffffffffffffffffffffffffffff8214156123e8576123e76123f3565b5b600182019050919050565b7f4e487b7100000000000000000000000000000000000000000000000000000000600052601160045260246000fd5b7f4e487b7100000000000000000000000000000000000000000000000000000000600052601260045260246000fd5b7f4e487b7100000000000000000000000000000000000000000000000000000000600052604160045260246000fd5b612489816122df565b811461249457600080fd5b50565b6124a0816122f1565b81146124ab57600080fd5b50565b6124b781612303565b81146124c257600080fd5b50565b6124ce8161235b565b81146124d957600080fd5b5056fea2646970667358221220ba3fd19e3f11a206ecb556fc73be463294c83b1b6c4c9db9ac63b3a8b7cb6d7e64736f6c63430008000033",
  "linkReferences": {},
  "deployedLinkReferences": {}
}