{
  "_format": "hh-sol-artifact-1",
  "contractName": "Minter",
  "sourceName": "contracts/Minter.sol",
  "abi": [
    {
      "inputs": [
        {
          "internalType": "string",
          "name": "_name",
          "type": "string"
        },
        {
          "internalType": "string",
          "name": "_symbol",
          "type": "string"
        },
        {
          "internalType": "address",
          "name": "_DAO",
          "type": "address"
        }
      ],
      "stateMutability": "nonpayable",
      "type": "constructor"
    },
    {
      "anonymous": false,
      "inputs": [
        {
          "indexed": true,
          "internalType": "address",
          "name": "account",
          "type": "address"
        },
        {
          "indexed": true,
          "internalType": "address",
          "name": "operator",
          "type": "address"
        },
        {
          "indexed": false,
          "internalType": "bool",
          "name": "approved",
          "type": "bool"
        }
      ],
      "name": "ApprovalForAll",
      "type": "event"
    },
    {
      "anonymous": false,
      "inputs": [
        {
          "indexed": false,
          "internalType": "uint256",
          "name": "index",
          "type": "uint256"
        },
        {
          "indexed": true,
          "internalType": "address",
          "name": "account",
          "type": "address"
        },
        {
          "indexed": false,
          "internalType": "uint256",
          "name": "amount",
          "type": "uint256"
        }
      ],
      "name": "Claimed",
      "type": "event"
    },
    {
      "anonymous": false,
      "inputs": [
        {
          "indexed": true,
          "internalType": "address",
          "name": "previousOwner",
          "type": "address"
        },
        {
          "indexed": true,
          "internalType": "address",
          "name": "newOwner",
          "type": "address"
        }
      ],
      "name": "OwnershipTransferred",
      "type": "event"
    },
    {
      "anonymous": false,
      "inputs": [
        {
          "indexed": false,
          "internalType": "address",
          "name": "account",
          "type": "address"
        }
      ],
      "name": "Paused",
      "type": "event"
    },
    {
      "anonymous": false,
      "inputs": [
        {
          "indexed": true,
          "internalType": "address",
          "name": "operator",
          "type": "address"
        },
        {
          "indexed": true,
          "internalType": "address",
          "name": "from",
          "type": "address"
        },
        {
          "indexed": true,
          "internalType": "address",
          "name": "to",
          "type": "address"
        },
        {
          "indexed": false,
          "internalType": "uint256[]",
          "name": "ids",
          "type": "uint256[]"
        },
        {
          "indexed": false,
          "internalType": "uint256[]",
          "name": "values",
          "type": "uint256[]"
        }
      ],
      "name": "TransferBatch",
      "type": "event"
    },
    {
      "anonymous": false,
      "inputs": [
        {
          "indexed": true,
          "internalType": "address",
          "name": "operator",
          "type": "address"
        },
        {
          "indexed": true,
          "internalType": "address",
          "name": "from",
          "type": "address"
        },
        {
          "indexed": true,
          "internalType": "address",
          "name": "to",
          "type": "address"
        },
        {
          "indexed": false,
          "internalType": "uint256",
          "name": "id",
          "type": "uint256"
        },
        {
          "indexed": false,
          "internalType": "uint256",
          "name": "value",
          "type": "uint256"
        }
      ],
      "name": "TransferSingle",
      "type": "event"
    },
    {
      "anonymous": false,
      "inputs": [
        {
          "indexed": false,
          "internalType": "string",
          "name": "value",
          "type": "string"
        },
        {
          "indexed": true,
          "internalType": "uint256",
          "name": "id",
          "type": "uint256"
        }
      ],
      "name": "URI",
      "type": "event"
    },
    {
      "anonymous": false,
      "inputs": [
        {
          "indexed": false,
          "internalType": "address",
          "name": "account",
          "type": "address"
        }
      ],
      "name": "Unpaused",
      "type": "event"
    },
    {
      "inputs": [
        {
          "internalType": "uint256",
          "name": "",
          "type": "uint256"
        }
      ],
      "name": "NFTs",
      "outputs": [
        {
          "internalType": "uint256",
          "name": "windowOpens",
          "type": "uint256"
        },
        {
          "internalType": "uint256",
          "name": "windowCloses",
          "type": "uint256"
        },
        {
          "internalType": "uint256",
          "name": "mintPrice",
          "type": "uint256"
        },
        {
          "internalType": "string",
          "name": "JSONdata",
          "type": "string"
        },
        {
          "internalType": "contract ERC20",
          "name": "paymentToken",
          "type": "address"
        },
        {
          "internalType": "uint256",
          "name": "maxSupply",
          "type": "uint256"
        }
      ],
      "stateMutability": "view",
      "type": "function"
    },
    {
      "inputs": [
        {
          "internalType": "uint256",
          "name": "_windowOpens",
          "type": "uint256"
        },
        {
          "internalType": "uint256",
          "name": "_windowCloses",
          "type": "uint256"
        },
        {
          "internalType": "uint256",
          "name": "_mintPrice",
          "type": "uint256"
        },
        {
          "internalType": "string",
          "name": "_JSONdata",
          "type": "string"
        },
        {
          "internalType": "contract ERC20",
          "name": "_purchaseToken",
          "type": "address"
        },
        {
          "internalType": "uint256",
          "name": "_maxSupply",
          "type": "uint256"
        }
      ],
      "name": "addNFT",
      "outputs": [],
      "stateMutability": "nonpayable",
      "type": "function"
    },
    {
      "inputs": [
        {
          "internalType": "uint256",
          "name": "index",
          "type": "uint256"
        },
        {
          "internalType": "uint256",
          "name": "amount",
          "type": "uint256"
        }
      ],
      "name": "adminMint",
      "outputs": [],
      "stateMutability": "nonpayable",
      "type": "function"
    },
    {
      "inputs": [
        {
          "internalType": "address",
          "name": "account",
          "type": "address"
        },
        {
          "internalType": "uint256",
          "name": "id",
          "type": "uint256"
        }
      ],
      "name": "balanceOf",
      "outputs": [
        {
          "internalType": "uint256",
          "name": "",
          "type": "uint256"
        }
      ],
      "stateMutability": "view",
      "type": "function"
    },
    {
      "inputs": [
        {
          "internalType": "address[]",
          "name": "accounts",
          "type": "address[]"
        },
        {
          "internalType": "uint256[]",
          "name": "ids",
          "type": "uint256[]"
        }
      ],
      "name": "balanceOfBatch",
      "outputs": [
        {
          "internalType": "uint256[]",
          "name": "",
          "type": "uint256[]"
        }
      ],
      "stateMutability": "view",
      "type": "function"
    },
    {
      "inputs": [
        {
          "internalType": "address",
          "name": "account",
          "type": "address"
        },
        {
          "internalType": "uint256",
          "name": "id",
          "type": "uint256"
        },
        {
          "internalType": "uint256",
          "name": "value",
          "type": "uint256"
        }
      ],
      "name": "burn",
      "outputs": [],
      "stateMutability": "nonpayable",
      "type": "function"
    },
    {
      "inputs": [
        {
          "internalType": "address",
          "name": "account",
          "type": "address"
        },
        {
          "internalType": "uint256[]",
          "name": "ids",
          "type": "uint256[]"
        },
        {
          "internalType": "uint256[]",
          "name": "values",
          "type": "uint256[]"
        }
      ],
      "name": "burnBatch",
      "outputs": [],
      "stateMutability": "nonpayable",
      "type": "function"
    },
    {
      "inputs": [
        {
          "internalType": "uint256",
          "name": "_windowOpens",
          "type": "uint256"
        },
        {
          "internalType": "uint256",
          "name": "_windowCloses",
          "type": "uint256"
        },
        {
          "internalType": "uint256",
          "name": "_mintPrice",
          "type": "uint256"
        },
        {
          "internalType": "string",
          "name": "_JSONdata",
          "type": "string"
        },
        {
          "internalType": "contract ERC20",
          "name": "_purchaseToken",
          "type": "address"
        },
        {
          "internalType": "uint256",
          "name": "index",
          "type": "uint256"
        },
        {
          "internalType": "uint256",
          "name": "_maxSupply",
          "type": "uint256"
        }
      ],
      "name": "editNFT",
      "outputs": [],
      "stateMutability": "nonpayable",
      "type": "function"
    },
    {
      "inputs": [
        {
          "internalType": "uint256",
          "name": "id",
          "type": "uint256"
        }
      ],
      "name": "exists",
      "outputs": [
        {
          "internalType": "bool",
          "name": "",
          "type": "bool"
        }
      ],
      "stateMutability": "view",
      "type": "function"
    },
    {
      "inputs": [
        {
          "internalType": "address",
          "name": "account",
          "type": "address"
        },
        {
          "internalType": "address",
          "name": "operator",
          "type": "address"
        }
      ],
      "name": "isApprovedForAll",
      "outputs": [
        {
          "internalType": "bool",
          "name": "",
          "type": "bool"
        }
      ],
      "stateMutability": "view",
      "type": "function"
    },
    {
      "inputs": [],
      "name": "name",
      "outputs": [
        {
          "internalType": "string",
          "name": "",
          "type": "string"
        }
      ],
      "stateMutability": "view",
      "type": "function"
    },
    {
      "inputs": [],
      "name": "name_",
      "outputs": [
        {
          "internalType": "string",
          "name": "",
          "type": "string"
        }
      ],
      "stateMutability": "view",
      "type": "function"
    },
    {
      "inputs": [],
      "name": "owner",
      "outputs": [
        {
          "internalType": "address",
          "name": "",
          "type": "address"
        }
      ],
      "stateMutability": "view",
      "type": "function"
    },
    {
      "inputs": [],
      "name": "pause",
      "outputs": [],
      "stateMutability": "nonpayable",
      "type": "function"
    },
    {
      "inputs": [],
      "name": "paused",
      "outputs": [
        {
          "internalType": "bool",
          "name": "",
          "type": "bool"
        }
      ],
      "stateMutability": "view",
      "type": "function"
    },
    {
      "inputs": [
        {
          "internalType": "uint256",
          "name": "index",
          "type": "uint256"
        },
        {
          "internalType": "uint256",
          "name": "amount",
          "type": "uint256"
        }
      ],
      "name": "purchase",
      "outputs": [],
      "stateMutability": "nonpayable",
      "type": "function"
    },
    {
      "inputs": [],
      "name": "renounceOwnership",
      "outputs": [],
      "stateMutability": "nonpayable",
      "type": "function"
    },
    {
      "inputs": [
        {
          "internalType": "address",
          "name": "from",
          "type": "address"
        },
        {
          "internalType": "address",
          "name": "to",
          "type": "address"
        },
        {
          "internalType": "uint256[]",
          "name": "ids",
          "type": "uint256[]"
        },
        {
          "internalType": "uint256[]",
          "name": "amounts",
          "type": "uint256[]"
        },
        {
          "internalType": "bytes",
          "name": "data",
          "type": "bytes"
        }
      ],
      "name": "safeBatchTransferFrom",
      "outputs": [],
      "stateMutability": "nonpayable",
      "type": "function"
    },
    {
      "inputs": [
        {
          "internalType": "address",
          "name": "from",
          "type": "address"
        },
        {
          "internalType": "address",
          "name": "to",
          "type": "address"
        },
        {
          "internalType": "uint256",
          "name": "id",
          "type": "uint256"
        },
        {
          "internalType": "uint256",
          "name": "amount",
          "type": "uint256"
        },
        {
          "internalType": "bytes",
          "name": "data",
          "type": "bytes"
        }
      ],
      "name": "safeTransferFrom",
      "outputs": [],
      "stateMutability": "nonpayable",
      "type": "function"
    },
    {
      "inputs": [
        {
          "internalType": "address",
          "name": "operator",
          "type": "address"
        },
        {
          "internalType": "bool",
          "name": "approved",
          "type": "bool"
        }
      ],
      "name": "setApprovalForAll",
      "outputs": [],
      "stateMutability": "nonpayable",
      "type": "function"
    },
    {
      "inputs": [
        {
          "internalType": "string",
          "name": "baseURI",
          "type": "string"
        }
      ],
      "name": "setURI",
      "outputs": [],
      "stateMutability": "nonpayable",
      "type": "function"
    },
    {
      "inputs": [
        {
          "internalType": "bytes4",
          "name": "interfaceId",
          "type": "bytes4"
        }
      ],
      "name": "supportsInterface",
      "outputs": [
        {
          "internalType": "bool",
          "name": "",
          "type": "bool"
        }
      ],
      "stateMutability": "view",
      "type": "function"
    },
    {
      "inputs": [],
      "name": "symbol",
      "outputs": [
        {
          "internalType": "string",
          "name": "",
          "type": "string"
        }
      ],
      "stateMutability": "view",
      "type": "function"
    },
    {
      "inputs": [],
      "name": "symbol_",
      "outputs": [
        {
          "internalType": "string",
          "name": "",
          "type": "string"
        }
      ],
      "stateMutability": "view",
      "type": "function"
    },
    {
      "inputs": [
        {
          "internalType": "uint256",
          "name": "id",
          "type": "uint256"
        }
      ],
      "name": "totalSupply",
      "outputs": [
        {
          "internalType": "uint256",
          "name": "",
          "type": "uint256"
        }
      ],
      "stateMutability": "view",
      "type": "function"
    },
    {
      "inputs": [
        {
          "internalType": "address",
          "name": "newOwner",
          "type": "address"
        }
      ],
      "name": "transferOwnership",
      "outputs": [],
      "stateMutability": "nonpayable",
      "type": "function"
    },
    {
      "inputs": [],
      "name": "unpause",
      "outputs": [],
      "stateMutability": "nonpayable",
      "type": "function"
    },
    {
      "inputs": [
        {
          "internalType": "uint256",
          "name": "_id",
          "type": "uint256"
        }
      ],
      "name": "uri",
      "outputs": [
        {
          "internalType": "string",
          "name": "",
          "type": "string"
        }
      ],
      "stateMutability": "view",
      "type": "function"
    }
  ],
  "bytecode": "0x60806040523480156200001157600080fd5b5060405162005b2538038062005b25833981810160405281019062000037919062000333565b6040518060200160405280600081525062000058816200011060201b60201c565b506000600360006101000a81548160ff02191690831515021790555062000094620000886200012c60201b60201c565b6200013460201b60201c565b8260069080519060200190620000ac929190620001fa565b508160079080519060200190620000c5929190620001fa565b5080600960006101000a81548173ffffffffffffffffffffffffffffffffffffffff021916908373ffffffffffffffffffffffffffffffffffffffff16021790555050505062000579565b806002908051906020019062000128929190620001fa565b5050565b600033905090565b6000600560009054906101000a900473ffffffffffffffffffffffffffffffffffffffff16905081600560006101000a81548173ffffffffffffffffffffffffffffffffffffffff021916908373ffffffffffffffffffffffffffffffffffffffff1602179055508173ffffffffffffffffffffffffffffffffffffffff168173ffffffffffffffffffffffffffffffffffffffff167f8be0079c531659141344cd1fd0a4f28419497f9722a3daafe3b4186f6b6457e060405160405180910390a35050565b828054620002089062000484565b90600052602060002090601f0160209004810192826200022c576000855562000278565b82601f106200024757805160ff191683800117855562000278565b8280016001018555821562000278579182015b82811115620002775782518255916020019190600101906200025a565b5b5090506200028791906200028b565b5090565b5b80821115620002a65760008160009055506001016200028c565b5090565b6000620002c1620002bb84620003e4565b620003bb565b905082815260208101848484011115620002da57600080fd5b620002e78482856200044e565b509392505050565b60008151905062000300816200055f565b92915050565b600082601f8301126200031857600080fd5b81516200032a848260208601620002aa565b91505092915050565b6000806000606084860312156200034957600080fd5b600084015167ffffffffffffffff8111156200036457600080fd5b620003728682870162000306565b935050602084015167ffffffffffffffff8111156200039057600080fd5b6200039e8682870162000306565b9250506040620003b186828701620002ef565b9150509250925092565b6000620003c7620003da565b9050620003d58282620004ba565b919050565b6000604051905090565b600067ffffffffffffffff8211156200040257620004016200051f565b5b6200040d826200054e565b9050602081019050919050565b600062000427826200042e565b9050919050565b600073ffffffffffffffffffffffffffffffffffffffff82169050919050565b60005b838110156200046e57808201518184015260208101905062000451565b838111156200047e576000848401525b50505050565b600060028204905060018216806200049d57607f821691505b60208210811415620004b457620004b3620004f0565b5b50919050565b620004c5826200054e565b810181811067ffffffffffffffff82111715620004e757620004e66200051f565b5b80604052505050565b7f4e487b7100000000000000000000000000000000000000000000000000000000600052602260045260246000fd5b7f4e487b7100000000000000000000000000000000000000000000000000000000600052604160045260246000fd5b6000601f19601f8301169050919050565b6200056a816200041a565b81146200057657600080fd5b50565b61559c80620005896000396000f3fe608060405234801561001057600080fd5b50600436106101c35760003560e01c80638456cb59116100f9578063bd85b03911610097578063e985e9c511610071578063e985e9c5146104cf578063f242432a146104ff578063f2fde38b1461051b578063f5298aca14610537576101c3565b8063bd85b03914610465578063d00e40ce14610495578063e2b9e186146104b1576101c3565b806395d89b41116100d357806395d89b41146103d8578063a22cb465146103f6578063a3c0b95b14610412578063af17dea614610447576101c3565b80638456cb59146103945780638da5cb5b1461039e57806391cb5b7a146103bc576101c3565b80633f4ba83a116101665780635c975abb116101405780635c975abb146103345780636b20c4541461035257806370876c981461036e578063715018a61461038a576101c3565b80633f4ba83a146102ca5780634e1273f4146102d45780634f558e7914610304576101c3565b806303e8128e116101a257806303e8128e1461024457806306fdde03146102605780630e89341c1461027e5780632eb2c2d6146102ae576101c3565b8062fdd58e146101c857806301ffc9a7146101f857806302fe530514610228575b600080fd5b6101e260048036038101906101dd9190613a88565b610553565b6040516101ef91906148c8565b60405180910390f35b610212600480360381019061020d9190613ba8565b61061c565b60405161021f919061454b565b60405180910390f35b610242600480360381019061023d9190613bfa565b6106fe565b005b61025e60048036038101906102599190613cc9565b610786565b005b610268610946565b6040516102759190614566565b60405180910390f35b61029860048036038101906102939190613c3b565b6109d8565b6040516102a59190614566565b60405180910390f35b6102c860048036038101906102c3919061387f565b610a6b565b005b6102d2610b0c565b005b6102ee60048036038101906102e99190613b13565b610b92565b6040516102fb91906144f2565b60405180910390f35b61031e60048036038101906103199190613c3b565b610d43565b60405161032b919061454b565b60405180910390f35b61033c610d57565b604051610349919061454b565b60405180910390f35b61036c600480360381019061036791906139cd565b610d6e565b005b61038860048036038101906103839190613c8d565b610e0b565b005b610392611238565b005b61039c6112c0565b005b6103a6611346565b6040516103b391906143b5565b60405180910390f35b6103d660048036038101906103d19190613d6a565b611370565b005b6103e061151e565b6040516103ed9190614566565b60405180910390f35b610410600480360381019061040b9190613a4c565b6115b0565b005b61042c60048036038101906104279190613c3b565b6115c6565b60405161043e9695949392919061490c565b60405180910390f35b61044f6116aa565b60405161045c9190614566565b60405180910390f35b61047f600480360381019061047a9190613c3b565b611738565b60405161048c91906148c8565b60405180910390f35b6104af60048036038101906104aa9190613c8d565b611755565b005b6104b96118c6565b6040516104c69190614566565b60405180910390f35b6104e960048036038101906104e49190613843565b611954565b6040516104f6919061454b565b60405180910390f35b6105196004803603810190610514919061393e565b6119e8565b005b6105356004803603810190610530919061381a565b611a89565b005b610551600480360381019061054c9190613ac4565b611b81565b005b60008073ffffffffffffffffffffffffffffffffffffffff168373ffffffffffffffffffffffffffffffffffffffff1614156105c4576040517f08c379a00000000000000000000000000000000000000000000000000000000081526004016105bb90614608565b60405180910390fd5b60008083815260200190815260200160002060008473ffffffffffffffffffffffffffffffffffffffff1673ffffffffffffffffffffffffffffffffffffffff16815260200190815260200160002054905092915050565b60007fd9b67a26000000000000000000000000000000000000000000000000000000007bffffffffffffffffffffffffffffffffffffffffffffffffffffffff1916827bffffffffffffffffffffffffffffffffffffffffffffffffffffffff191614806106e757507f0e89341c000000000000000000000000000000000000000000000000000000007bffffffffffffffffffffffffffffffffffffffffffffffffffffffff1916827bffffffffffffffffffffffffffffffffffffffffffffffffffffffff1916145b806106f757506106f682611c1e565b5b9050919050565b610706611c88565b73ffffffffffffffffffffffffffffffffffffffff16610724611346565b73ffffffffffffffffffffffffffffffffffffffff161461077a576040517f08c379a000000000000000000000000000000000000000000000000000000000815260040161077190614788565b60405180910390fd5b61078381611c90565b50565b61078e611c88565b73ffffffffffffffffffffffffffffffffffffffff166107ac611346565b73ffffffffffffffffffffffffffffffffffffffff1614610802576040517f08c379a00000000000000000000000000000000000000000000000000000000081526004016107f990614788565b60405180910390fd5b848610610844576040517f08c379a000000000000000000000000000000000000000000000000000000000815260040161083b906145a8565b60405180910390fd5b6000861180156108545750600085115b610893576040517f08c379a000000000000000000000000000000000000000000000000000000000815260040161088a906147e8565b60405180910390fd5b6000600b60006108a36008611caa565b81526020019081526020016000209050868160000181905550858160010181905550848160020181905550838160030190805190602001906108e69291906134d3565b50828160040160006101000a81548173ffffffffffffffffffffffffffffffffffffffff021916908373ffffffffffffffffffffffffffffffffffffffff16021790555081816005018190555061093d6008611cb8565b50505050505050565b60606006805461095590614c5a565b80601f016020809104026020016040519081016040528092919081815260200182805461098190614c5a565b80156109ce5780601f106109a3576101008083540402835291602001916109ce565b820191906000526020600020905b8154815290600101906020018083116109b157829003601f168201915b5050505050905090565b606060006109e583611738565b11610a25576040517f08c379a0000000000000000000000000000000000000000000000000000000008152600401610a1c906147c8565b60405180910390fd5b610a2e82611cce565b600b6000848152602001908152602001600020600301604051602001610a55929190614391565b6040516020818303038152906040529050919050565b610a73611c88565b73ffffffffffffffffffffffffffffffffffffffff168573ffffffffffffffffffffffffffffffffffffffff161480610ab95750610ab885610ab3611c88565b611954565b5b610af8576040517f08c379a0000000000000000000000000000000000000000000000000000000008152600401610aef90614708565b60405180910390fd5b610b058585858585611d62565b5050505050565b610b14611c88565b73ffffffffffffffffffffffffffffffffffffffff16610b32611346565b73ffffffffffffffffffffffffffffffffffffffff1614610b88576040517f08c379a0000000000000000000000000000000000000000000000000000000008152600401610b7f90614788565b60405180910390fd5b610b906120c2565b565b60608151835114610bd8576040517f08c379a0000000000000000000000000000000000000000000000000000000008152600401610bcf90614848565b60405180910390fd5b6000835167ffffffffffffffff811115610c1b577f4e487b7100000000000000000000000000000000000000000000000000000000600052604160045260246000fd5b604051908082528060200260200182016040528015610c495781602001602082028036833780820191505090505b50905060005b8451811015610d3857610ce2858281518110610c94577f4e487b7100000000000000000000000000000000000000000000000000000000600052603260045260246000fd5b6020026020010151858381518110610cd5577f4e487b7100000000000000000000000000000000000000000000000000000000600052603260045260246000fd5b6020026020010151610553565b828281518110610d1b577f4e487b7100000000000000000000000000000000000000000000000000000000600052603260045260246000fd5b60200260200101818152505080610d3190614cbd565b9050610c4f565b508091505092915050565b600080610d4f83611738565b119050919050565b6000600360009054906101000a900460ff16905090565b610d76611c88565b73ffffffffffffffffffffffffffffffffffffffff168373ffffffffffffffffffffffffffffffffffffffff161480610dbc5750610dbb83610db6611c88565b611954565b5b610dfb576040517f08c379a0000000000000000000000000000000000000000000000000000000008152600401610df290614688565b60405180910390fd5b610e06838383612164565b505050565b610e13610d57565b15610e53576040517f08c379a0000000000000000000000000000000000000000000000000000000008152600401610e4a906148a8565b60405180910390fd5b6000600b6000848152602001908152602001600020600001541415610ead576040517f08c379a0000000000000000000000000000000000000000000000000000000008152600401610ea4906146a8565b60405180910390fd5b600b60008381526020019081526020016000206000015442118015610ee75750600b60008381526020019081526020016000206001015442105b610f26576040517f08c379a0000000000000000000000000000000000000000000000000000000008152600401610f1d90614768565b60405180910390fd5b80600b6000848152602001908152602001600020600501541015610f7f576040517f08c379a0000000000000000000000000000000000000000000000000000000008152600401610f7690614808565b60405180910390fd5b6000600b600084815260200190815260200160002060040160009054906101000a900473ffffffffffffffffffffffffffffffffffffffff1673ffffffffffffffffffffffffffffffffffffffff1663dd62ed3e33306040518363ffffffff1660e01b8152600401610ff29291906143d0565b60206040518083038186803b15801561100a57600080fd5b505afa15801561101e573d6000803e3d6000fd5b505050506040513d601f19601f820116820180604052508101906110429190613c64565b9050600b60008481526020019081526020016000206002015481101561109d576040517f08c379a0000000000000000000000000000000000000000000000000000000008152600401611094906147a8565b60405180910390fd5b600b600084815260200190815260200160002060040160009054906101000a900473ffffffffffffffffffffffffffffffffffffffff1673ffffffffffffffffffffffffffffffffffffffff166323b872dd33600960009054906101000a900473ffffffffffffffffffffffffffffffffffffffff16600b6000888152602001908152602001600020600201546040518463ffffffff1660e01b815260040161114893929190614461565b602060405180830381600087803b15801561116257600080fd5b505af1158015611176573d6000803e3d6000fd5b505050506040513d601f19601f8201168201806040525081019061119a9190613b7f565b5081600b600085815260200190815260200160002060050160008282546111c19190614b3a565b925050819055506111e333848460405180602001604052806000815250612174565b3373ffffffffffffffffffffffffffffffffffffffff167f4ec90e965519d92681267467f775ada5bd214aa92c0dc93d90a5e880ce9ed026848460405161122b9291906148e3565b60405180910390a2505050565b611240611c88565b73ffffffffffffffffffffffffffffffffffffffff1661125e611346565b73ffffffffffffffffffffffffffffffffffffffff16146112b4576040517f08c379a00000000000000000000000000000000000000000000000000000000081526004016112ab90614788565b60405180910390fd5b6112be6000612186565b565b6112c8611c88565b73ffffffffffffffffffffffffffffffffffffffff166112e6611346565b73ffffffffffffffffffffffffffffffffffffffff161461133c576040517f08c379a000000000000000000000000000000000000000000000000000000000815260040161133390614788565b60405180910390fd5b61134461224c565b565b6000600560009054906101000a900473ffffffffffffffffffffffffffffffffffffffff16905090565b611378611c88565b73ffffffffffffffffffffffffffffffffffffffff16611396611346565b73ffffffffffffffffffffffffffffffffffffffff16146113ec576040517f08c379a00000000000000000000000000000000000000000000000000000000081526004016113e390614788565b60405180910390fd5b85871061142e576040517f08c379a0000000000000000000000000000000000000000000000000000000008152600401611425906145a8565b60405180910390fd5b60008711801561143e5750600086115b61147d576040517f08c379a0000000000000000000000000000000000000000000000000000000008152600401611474906147e8565b60405180910390fd5b6000600b60008481526020019081526020016000209050878160000181905550868160010181905550858160020181905550848160030190805190602001906114c79291906134d3565b50838160040160006101000a81548173ffffffffffffffffffffffffffffffffffffffff021916908373ffffffffffffffffffffffffffffffffffffffff1602179055508181600501819055505050505050505050565b60606007805461152d90614c5a565b80601f016020809104026020016040519081016040528092919081815260200182805461155990614c5a565b80156115a65780601f1061157b576101008083540402835291602001916115a6565b820191906000526020600020905b81548152906001019060200180831161158957829003601f168201915b5050505050905090565b6115c26115bb611c88565b83836122ef565b5050565b600b6020528060005260406000206000915090508060000154908060010154908060020154908060030180546115fb90614c5a565b80601f016020809104026020016040519081016040528092919081815260200182805461162790614c5a565b80156116745780601f1061164957610100808354040283529160200191611674565b820191906000526020600020905b81548152906001019060200180831161165757829003601f168201915b5050505050908060040160009054906101000a900473ffffffffffffffffffffffffffffffffffffffff16908060050154905086565b600780546116b790614c5a565b80601f01602080910402602001604051908101604052809291908181526020018280546116e390614c5a565b80156117305780601f1061170557610100808354040283529160200191611730565b820191906000526020600020905b81548152906001019060200180831161171357829003601f168201915b505050505081565b600060046000838152602001908152602001600020549050919050565b61175d611c88565b73ffffffffffffffffffffffffffffffffffffffff1661177b611346565b73ffffffffffffffffffffffffffffffffffffffff16146117d1576040517f08c379a00000000000000000000000000000000000000000000000000000000081526004016117c890614788565b60405180910390fd5b80600b600084815260200190815260200160002060050154101561182a576040517f08c379a000000000000000000000000000000000000000000000000000000000815260040161182190614808565b60405180910390fd5b80600b600084815260200190815260200160002060050160008282546118509190614b3a565b9250508190555061187233838360405180602001604052806000815250612174565b3373ffffffffffffffffffffffffffffffffffffffff167f4ec90e965519d92681267467f775ada5bd214aa92c0dc93d90a5e880ce9ed02683836040516118ba9291906148e3565b60405180910390a25050565b600680546118d390614c5a565b80601f01602080910402602001604051908101604052809291908181526020018280546118ff90614c5a565b801561194c5780601f106119215761010080835404028352916020019161194c565b820191906000526020600020905b81548152906001019060200180831161192f57829003601f168201915b505050505081565b6000600160008473ffffffffffffffffffffffffffffffffffffffff1673ffffffffffffffffffffffffffffffffffffffff16815260200190815260200160002060008373ffffffffffffffffffffffffffffffffffffffff1673ffffffffffffffffffffffffffffffffffffffff16815260200190815260200160002060009054906101000a900460ff16905092915050565b6119f0611c88565b73ffffffffffffffffffffffffffffffffffffffff168573ffffffffffffffffffffffffffffffffffffffff161480611a365750611a3585611a30611c88565b611954565b5b611a75576040517f08c379a0000000000000000000000000000000000000000000000000000000008152600401611a6c90614688565b60405180910390fd5b611a82858585858561245c565b5050505050565b611a91611c88565b73ffffffffffffffffffffffffffffffffffffffff16611aaf611346565b73ffffffffffffffffffffffffffffffffffffffff1614611b05576040517f08c379a0000000000000000000000000000000000000000000000000000000008152600401611afc90614788565b60405180910390fd5b600073ffffffffffffffffffffffffffffffffffffffff168173ffffffffffffffffffffffffffffffffffffffff161415611b75576040517f08c379a0000000000000000000000000000000000000000000000000000000008152600401611b6c90614628565b60405180910390fd5b611b7e81612186565b50565b611b89611c88565b73ffffffffffffffffffffffffffffffffffffffff168373ffffffffffffffffffffffffffffffffffffffff161480611bcf5750611bce83611bc9611c88565b611954565b5b611c0e576040517f08c379a0000000000000000000000000000000000000000000000000000000008152600401611c0590614688565b60405180910390fd5b611c198383836126de565b505050565b60007f01ffc9a7000000000000000000000000000000000000000000000000000000007bffffffffffffffffffffffffffffffffffffffffffffffffffffffff1916827bffffffffffffffffffffffffffffffffffffffffffffffffffffffff1916149050919050565b600033905090565b8060029080519060200190611ca69291906134d3565b5050565b600081600001549050919050565b6001816000016000828254019250508190555050565b606060028054611cdd90614c5a565b80601f0160208091040260200160405190810160405280929190818152602001828054611d0990614c5a565b8015611d565780601f10611d2b57610100808354040283529160200191611d56565b820191906000526020600020905b815481529060010190602001808311611d3957829003601f168201915b50505050509050919050565b8151835114611da6576040517f08c379a0000000000000000000000000000000000000000000000000000000008152600401611d9d90614868565b60405180910390fd5b600073ffffffffffffffffffffffffffffffffffffffff168473ffffffffffffffffffffffffffffffffffffffff161415611e16576040517f08c379a0000000000000000000000000000000000000000000000000000000008152600401611e0d906146e8565b60405180910390fd5b6000611e20611c88565b9050611e308187878787876126ee565b60005b845181101561202d576000858281518110611e77577f4e487b7100000000000000000000000000000000000000000000000000000000600052603260045260246000fd5b602002602001015190506000858381518110611ebc577f4e487b7100000000000000000000000000000000000000000000000000000000600052603260045260246000fd5b60200260200101519050600080600084815260200190815260200160002060008b73ffffffffffffffffffffffffffffffffffffffff1673ffffffffffffffffffffffffffffffffffffffff16815260200190815260200160002054905081811015611f5d576040517f08c379a0000000000000000000000000000000000000000000000000000000008152600401611f5490614748565b60405180910390fd5b81810360008085815260200190815260200160002060008c73ffffffffffffffffffffffffffffffffffffffff1673ffffffffffffffffffffffffffffffffffffffff168152602001908152602001600020819055508160008085815260200190815260200160002060008b73ffffffffffffffffffffffffffffffffffffffff1673ffffffffffffffffffffffffffffffffffffffff16815260200190815260200160002060008282546120129190614ae4565b925050819055505050508061202690614cbd565b9050611e33565b508473ffffffffffffffffffffffffffffffffffffffff168673ffffffffffffffffffffffffffffffffffffffff168273ffffffffffffffffffffffffffffffffffffffff167f4a39dc06d4c0dbc64b70af90fd698a233a518aa5d07e595d983b8c0526c8f7fb87876040516120a4929190614514565b60405180910390a46120ba818787878787612704565b505050505050565b6120ca610d57565b612109576040517f08c379a0000000000000000000000000000000000000000000000000000000008152600401612100906145e8565b60405180910390fd5b6000600360006101000a81548160ff0219169083151502179055507f5db9ee0a495bf2e6ff9c91a7834c1ba4fdd244a5e8aa4e537bd38aeae4b073aa61214d611c88565b60405161215a91906143b5565b60405180910390a1565b61216f8383836128eb565b505050565b61218084848484612be8565b50505050565b6000600560009054906101000a900473ffffffffffffffffffffffffffffffffffffffff16905081600560006101000a81548173ffffffffffffffffffffffffffffffffffffffff021916908373ffffffffffffffffffffffffffffffffffffffff1602179055508173ffffffffffffffffffffffffffffffffffffffff168173ffffffffffffffffffffffffffffffffffffffff167f8be0079c531659141344cd1fd0a4f28419497f9722a3daafe3b4186f6b6457e060405160405180910390a35050565b612254610d57565b15612294576040517f08c379a000000000000000000000000000000000000000000000000000000000815260040161228b906146c8565b60405180910390fd5b6001600360006101000a81548160ff0219169083151502179055507f62e78cea01bee320cd4e420270b5ea74000d11b0c9f74754ebdbfc544b05a2586122d8611c88565b6040516122e591906143b5565b60405180910390a1565b8173ffffffffffffffffffffffffffffffffffffffff168373ffffffffffffffffffffffffffffffffffffffff16141561235e576040517f08c379a000000000000000000000000000000000000000000000000000000000815260040161235590614828565b60405180910390fd5b80600160008573ffffffffffffffffffffffffffffffffffffffff1673ffffffffffffffffffffffffffffffffffffffff16815260200190815260200160002060008473ffffffffffffffffffffffffffffffffffffffff1673ffffffffffffffffffffffffffffffffffffffff16815260200190815260200160002060006101000a81548160ff0219169083151502179055508173ffffffffffffffffffffffffffffffffffffffff168373ffffffffffffffffffffffffffffffffffffffff167f17307eab39ab6107e8899845ad3d59bd9653f200f220920489ca2b5937696c318360405161244f919061454b565b60405180910390a3505050565b600073ffffffffffffffffffffffffffffffffffffffff168473ffffffffffffffffffffffffffffffffffffffff1614156124cc576040517f08c379a00000000000000000000000000000000000000000000000000000000081526004016124c3906146e8565b60405180910390fd5b60006124d6611c88565b90506124f68187876124e788612d7e565b6124f088612d7e565b876126ee565b600080600086815260200190815260200160002060008873ffffffffffffffffffffffffffffffffffffffff1673ffffffffffffffffffffffffffffffffffffffff1681526020019081526020016000205490508381101561258d576040517f08c379a000000000000000000000000000000000000000000000000000000000815260040161258490614748565b60405180910390fd5b83810360008087815260200190815260200160002060008973ffffffffffffffffffffffffffffffffffffffff1673ffffffffffffffffffffffffffffffffffffffff168152602001908152602001600020819055508360008087815260200190815260200160002060008873ffffffffffffffffffffffffffffffffffffffff1673ffffffffffffffffffffffffffffffffffffffff16815260200190815260200160002060008282546126429190614ae4565b925050819055508573ffffffffffffffffffffffffffffffffffffffff168773ffffffffffffffffffffffffffffffffffffffff168373ffffffffffffffffffffffffffffffffffffffff167fc3d58168c5ae7397731d063d5bbf3d657854427343f4c083240f7aacaa2d0f6288886040516126bf9291906148e3565b60405180910390a46126d5828888888888612e44565b50505050505050565b6126e983838361302b565b505050565b6126fc868686868686613248565b505050505050565b6127238473ffffffffffffffffffffffffffffffffffffffff1661345a565b156128e3578373ffffffffffffffffffffffffffffffffffffffff1663bc197c8187878686866040518663ffffffff1660e01b81526004016127699594939291906143f9565b602060405180830381600087803b15801561278357600080fd5b505af19250505080156127b457506040513d601f19601f820116820180604052508101906127b19190613bd1565b60015b61285a576127c0614d93565b806308c379a0141561281d57506127d561545d565b806127e0575061281f565b806040517f08c379a00000000000000000000000000000000000000000000000000000000081526004016128149190614566565b60405180910390fd5b505b6040517f08c379a000000000000000000000000000000000000000000000000000000000815260040161285190614588565b60405180910390fd5b63bc197c8160e01b7bffffffffffffffffffffffffffffffffffffffffffffffffffffffff1916817bffffffffffffffffffffffffffffffffffffffffffffffffffffffff1916146128e1576040517f08c379a00000000000000000000000000000000000000000000000000000000081526004016128d8906145c8565b60405180910390fd5b505b505050505050565b600073ffffffffffffffffffffffffffffffffffffffff168373ffffffffffffffffffffffffffffffffffffffff16141561295b576040517f08c379a000000000000000000000000000000000000000000000000000000000815260040161295290614728565b60405180910390fd5b805182511461299f576040517f08c379a000000000000000000000000000000000000000000000000000000000815260040161299690614868565b60405180910390fd5b60006129a9611c88565b90506129c9818560008686604051806020016040528060008152506126ee565b60005b8351811015612b62576000848281518110612a10577f4e487b7100000000000000000000000000000000000000000000000000000000600052603260045260246000fd5b602002602001015190506000848381518110612a55577f4e487b7100000000000000000000000000000000000000000000000000000000600052603260045260246000fd5b60200260200101519050600080600084815260200190815260200160002060008973ffffffffffffffffffffffffffffffffffffffff1673ffffffffffffffffffffffffffffffffffffffff16815260200190815260200160002054905081811015612af6576040517f08c379a0000000000000000000000000000000000000000000000000000000008152600401612aed90614648565b60405180910390fd5b81810360008085815260200190815260200160002060008a73ffffffffffffffffffffffffffffffffffffffff1673ffffffffffffffffffffffffffffffffffffffff168152602001908152602001600020819055505050508080612b5a90614cbd565b9150506129cc565b50600073ffffffffffffffffffffffffffffffffffffffff168473ffffffffffffffffffffffffffffffffffffffff168273ffffffffffffffffffffffffffffffffffffffff167f4a39dc06d4c0dbc64b70af90fd698a233a518aa5d07e595d983b8c0526c8f7fb8686604051612bda929190614514565b60405180910390a450505050565b600073ffffffffffffffffffffffffffffffffffffffff168473ffffffffffffffffffffffffffffffffffffffff161415612c58576040517f08c379a0000000000000000000000000000000000000000000000000000000008152600401612c4f90614888565b60405180910390fd5b6000612c62611c88565b9050612c8381600087612c7488612d7e565b612c7d88612d7e565b876126ee565b8260008086815260200190815260200160002060008773ffffffffffffffffffffffffffffffffffffffff1673ffffffffffffffffffffffffffffffffffffffff1681526020019081526020016000206000828254612ce29190614ae4565b925050819055508473ffffffffffffffffffffffffffffffffffffffff16600073ffffffffffffffffffffffffffffffffffffffff168273ffffffffffffffffffffffffffffffffffffffff167fc3d58168c5ae7397731d063d5bbf3d657854427343f4c083240f7aacaa2d0f628787604051612d609291906148e3565b60405180910390a4612d7781600087878787612e44565b5050505050565b60606000600167ffffffffffffffff811115612dc3577f4e487b7100000000000000000000000000000000000000000000000000000000600052604160045260246000fd5b604051908082528060200260200182016040528015612df15781602001602082028036833780820191505090505b5090508281600081518110612e2f577f4e487b7100000000000000000000000000000000000000000000000000000000600052603260045260246000fd5b60200260200101818152505080915050919050565b612e638473ffffffffffffffffffffffffffffffffffffffff1661345a565b15613023578373ffffffffffffffffffffffffffffffffffffffff1663f23a6e6187878686866040518663ffffffff1660e01b8152600401612ea9959493929190614498565b602060405180830381600087803b158015612ec357600080fd5b505af1925050508015612ef457506040513d601f19601f82011682018060405250810190612ef19190613bd1565b60015b612f9a57612f00614d93565b806308c379a01415612f5d5750612f1561545d565b80612f205750612f5f565b806040517f08c379a0000000000000000000000000000000000000000000000000000000008152600401612f549190614566565b60405180910390fd5b505b6040517f08c379a0000000000000000000000000000000000000000000000000000000008152600401612f9190614588565b60405180910390fd5b63f23a6e6160e01b7bffffffffffffffffffffffffffffffffffffffffffffffffffffffff1916817bffffffffffffffffffffffffffffffffffffffffffffffffffffffff191614613021576040517f08c379a0000000000000000000000000000000000000000000000000000000008152600401613018906145c8565b60405180910390fd5b505b505050505050565b600073ffffffffffffffffffffffffffffffffffffffff168373ffffffffffffffffffffffffffffffffffffffff16141561309b576040517f08c379a000000000000000000000000000000000000000000000000000000000815260040161309290614728565b60405180910390fd5b60006130a5611c88565b90506130d5818560006130b787612d7e565b6130c087612d7e565b604051806020016040528060008152506126ee565b600080600085815260200190815260200160002060008673ffffffffffffffffffffffffffffffffffffffff1673ffffffffffffffffffffffffffffffffffffffff1681526020019081526020016000205490508281101561316c576040517f08c379a000000000000000000000000000000000000000000000000000000000815260040161316390614648565b60405180910390fd5b82810360008086815260200190815260200160002060008773ffffffffffffffffffffffffffffffffffffffff1673ffffffffffffffffffffffffffffffffffffffff16815260200190815260200160002081905550600073ffffffffffffffffffffffffffffffffffffffff168573ffffffffffffffffffffffffffffffffffffffff168373ffffffffffffffffffffffffffffffffffffffff167fc3d58168c5ae7397731d063d5bbf3d657854427343f4c083240f7aacaa2d0f6287876040516132399291906148e3565b60405180910390a45050505050565b61325686868686868661346d565b600073ffffffffffffffffffffffffffffffffffffffff168573ffffffffffffffffffffffffffffffffffffffff1614156133545760005b8351811015613352578281815181106132d0577f4e487b7100000000000000000000000000000000000000000000000000000000600052603260045260246000fd5b602002602001015160046000868481518110613315577f4e487b7100000000000000000000000000000000000000000000000000000000600052603260045260246000fd5b60200260200101518152602001908152602001600020600082825461333a9190614ae4565b925050819055508061334b90614cbd565b905061328e565b505b600073ffffffffffffffffffffffffffffffffffffffff168473ffffffffffffffffffffffffffffffffffffffff1614156134525760005b8351811015613450578281815181106133ce577f4e487b7100000000000000000000000000000000000000000000000000000000600052603260045260246000fd5b602002602001015160046000868481518110613413577f4e487b7100000000000000000000000000000000000000000000000000000000600052603260045260246000fd5b6020026020010151815260200190815260200160002060008282546134389190614b3a565b925050819055508061344990614cbd565b905061338c565b505b505050505050565b600080823b905060008111915050919050565b61347b8686868686866134cb565b613483610d57565b156134c3576040517f08c379a00000000000000000000000000000000000000000000000000000000081526004016134ba90614668565b60405180910390fd5b505050505050565b505050505050565b8280546134df90614c5a565b90600052602060002090601f0160209004810192826135015760008555613548565b82601f1061351a57805160ff1916838001178555613548565b82800160010185558215613548579182015b8281111561354757825182559160200191906001019061352c565b5b5090506135559190613559565b5090565b5b8082111561357257600081600090555060010161355a565b5090565b600061358961358484614999565b614974565b905080838252602082019050828560208602820111156135a857600080fd5b60005b858110156135d857816135be88826136ca565b8452602084019350602083019250506001810190506135ab565b5050509392505050565b60006135f56135f0846149c5565b614974565b9050808382526020820190508285602086028201111561361457600080fd5b60005b85811015613644578161362a88826137f0565b845260208401935060208301925050600181019050613617565b5050509392505050565b600061366161365c846149f1565b614974565b90508281526020810184848401111561367957600080fd5b613684848285614c18565b509392505050565b600061369f61369a84614a22565b614974565b9050828152602081018484840111156136b757600080fd5b6136c2848285614c18565b509392505050565b6000813590506136d9816154f3565b92915050565b600082601f8301126136f057600080fd5b8135613700848260208601613576565b91505092915050565b600082601f83011261371a57600080fd5b813561372a8482602086016135e2565b91505092915050565b6000813590506137428161550a565b92915050565b6000815190506137578161550a565b92915050565b60008135905061376c81615521565b92915050565b60008151905061378181615521565b92915050565b600082601f83011261379857600080fd5b81356137a884826020860161364e565b91505092915050565b6000813590506137c081615538565b92915050565b600082601f8301126137d757600080fd5b81356137e784826020860161368c565b91505092915050565b6000813590506137ff8161554f565b92915050565b6000815190506138148161554f565b92915050565b60006020828403121561382c57600080fd5b600061383a848285016136ca565b91505092915050565b6000806040838503121561385657600080fd5b6000613864858286016136ca565b9250506020613875858286016136ca565b9150509250929050565b600080600080600060a0868803121561389757600080fd5b60006138a5888289016136ca565b95505060206138b6888289016136ca565b945050604086013567ffffffffffffffff8111156138d357600080fd5b6138df88828901613709565b935050606086013567ffffffffffffffff8111156138fc57600080fd5b61390888828901613709565b925050608086013567ffffffffffffffff81111561392557600080fd5b61393188828901613787565b9150509295509295909350565b600080600080600060a0868803121561395657600080fd5b6000613964888289016136ca565b9550506020613975888289016136ca565b9450506040613986888289016137f0565b9350506060613997888289016137f0565b925050608086013567ffffffffffffffff8111156139b457600080fd5b6139c088828901613787565b9150509295509295909350565b6000806000606084860312156139e257600080fd5b60006139f0868287016136ca565b935050602084013567ffffffffffffffff811115613a0d57600080fd5b613a1986828701613709565b925050604084013567ffffffffffffffff811115613a3657600080fd5b613a4286828701613709565b9150509250925092565b60008060408385031215613a5f57600080fd5b6000613a6d858286016136ca565b9250506020613a7e85828601613733565b9150509250929050565b60008060408385031215613a9b57600080fd5b6000613aa9858286016136ca565b9250506020613aba858286016137f0565b9150509250929050565b600080600060608486031215613ad957600080fd5b6000613ae7868287016136ca565b9350506020613af8868287016137f0565b9250506040613b09868287016137f0565b9150509250925092565b60008060408385031215613b2657600080fd5b600083013567ffffffffffffffff811115613b4057600080fd5b613b4c858286016136df565b925050602083013567ffffffffffffffff811115613b6957600080fd5b613b7585828601613709565b9150509250929050565b600060208284031215613b9157600080fd5b6000613b9f84828501613748565b91505092915050565b600060208284031215613bba57600080fd5b6000613bc88482850161375d565b91505092915050565b600060208284031215613be357600080fd5b6000613bf184828501613772565b91505092915050565b600060208284031215613c0c57600080fd5b600082013567ffffffffffffffff811115613c2657600080fd5b613c32848285016137c6565b91505092915050565b600060208284031215613c4d57600080fd5b6000613c5b848285016137f0565b91505092915050565b600060208284031215613c7657600080fd5b6000613c8484828501613805565b91505092915050565b60008060408385031215613ca057600080fd5b6000613cae858286016137f0565b9250506020613cbf858286016137f0565b9150509250929050565b60008060008060008060c08789031215613ce257600080fd5b6000613cf089828a016137f0565b9650506020613d0189828a016137f0565b9550506040613d1289828a016137f0565b945050606087013567ffffffffffffffff811115613d2f57600080fd5b613d3b89828a016137c6565b9350506080613d4c89828a016137b1565b92505060a0613d5d89828a016137f0565b9150509295509295509295565b600080600080600080600060e0888a031215613d8557600080fd5b6000613d938a828b016137f0565b9750506020613da48a828b016137f0565b9650506040613db58a828b016137f0565b955050606088013567ffffffffffffffff811115613dd257600080fd5b613dde8a828b016137c6565b9450506080613def8a828b016137b1565b93505060a0613e008a828b016137f0565b92505060c0613e118a828b016137f0565b91505092959891949750929550565b6000613e2c8383614373565b60208301905092915050565b613e4181614b6e565b82525050565b6000613e5282614a78565b613e5c8185614aa6565b9350613e6783614a53565b8060005b83811015613e98578151613e7f8882613e20565b9750613e8a83614a99565b925050600181019050613e6b565b5085935050505092915050565b613eae81614b80565b82525050565b6000613ebf82614a83565b613ec98185614ab7565b9350613ed9818560208601614c27565b613ee281614db5565b840191505092915050565b613ef681614bf4565b82525050565b6000613f0782614a8e565b613f118185614ac8565b9350613f21818560208601614c27565b613f2a81614db5565b840191505092915050565b6000613f4082614a8e565b613f4a8185614ad9565b9350613f5a818560208601614c27565b80840191505092915050565b60008154613f7381614c5a565b613f7d8186614ad9565b94506001821660008114613f985760018114613fa957613fdc565b60ff19831686528186019350613fdc565b613fb285614a63565b60005b83811015613fd457815481890152600182019150602081019050613fb5565b838801955050505b50505092915050565b6000613ff2603483614ac8565b9150613ffd82614dd3565b604082019050919050565b6000614015602783614ac8565b915061402082614e22565b604082019050919050565b6000614038602883614ac8565b915061404382614e71565b604082019050919050565b600061405b601483614ac8565b915061406682614ec0565b602082019050919050565b600061407e602b83614ac8565b915061408982614ee9565b604082019050919050565b60006140a1602683614ac8565b91506140ac82614f38565b604082019050919050565b60006140c4602483614ac8565b91506140cf82614f87565b604082019050919050565b60006140e7602c83614ac8565b91506140f282614fd6565b604082019050919050565b600061410a602983614ac8565b915061411582615025565b604082019050919050565b600061412d601783614ac8565b915061413882615074565b602082019050919050565b6000614150601083614ac8565b915061415b8261509d565b602082019050919050565b6000614173602583614ac8565b915061417e826150c6565b604082019050919050565b6000614196603283614ac8565b91506141a182615115565b604082019050919050565b60006141b9602383614ac8565b91506141c482615164565b604082019050919050565b60006141dc602a83614ac8565b91506141e7826151b3565b604082019050919050565b60006141ff601983614ac8565b915061420a82615202565b602082019050919050565b6000614222602083614ac8565b915061422d8261522b565b602082019050919050565b6000614245601983614ac8565b915061425082615254565b602082019050919050565b6000614268601683614ac8565b91506142738261527d565b602082019050919050565b600061428b601283614ac8565b9150614296826152a6565b602082019050919050565b60006142ae601283614ac8565b91506142b9826152cf565b602082019050919050565b60006142d1602983614ac8565b91506142dc826152f8565b604082019050919050565b60006142f4602983614ac8565b91506142ff82615347565b604082019050919050565b6000614317602883614ac8565b915061432282615396565b604082019050919050565b600061433a602183614ac8565b9150614345826153e5565b604082019050919050565b600061435d601483614ac8565b915061436882615434565b602082019050919050565b61437c81614bea565b82525050565b61438b81614bea565b82525050565b600061439d8285613f35565b91506143a98284613f66565b91508190509392505050565b60006020820190506143ca6000830184613e38565b92915050565b60006040820190506143e56000830185613e38565b6143f26020830184613e38565b9392505050565b600060a08201905061440e6000830188613e38565b61441b6020830187613e38565b818103604083015261442d8186613e47565b905081810360608301526144418185613e47565b905081810360808301526144558184613eb4565b90509695505050505050565b60006060820190506144766000830186613e38565b6144836020830185613e38565b6144906040830184614382565b949350505050565b600060a0820190506144ad6000830188613e38565b6144ba6020830187613e38565b6144c76040830186614382565b6144d46060830185614382565b81810360808301526144e68184613eb4565b90509695505050505050565b6000602082019050818103600083015261450c8184613e47565b905092915050565b6000604082019050818103600083015261452e8185613e47565b905081810360208301526145428184613e47565b90509392505050565b60006020820190506145606000830184613ea5565b92915050565b600060208201905081810360008301526145808184613efc565b905092915050565b600060208201905081810360008301526145a181613fe5565b9050919050565b600060208201905081810360008301526145c181614008565b9050919050565b600060208201905081810360008301526145e18161402b565b9050919050565b600060208201905081810360008301526146018161404e565b9050919050565b6000602082019050818103600083015261462181614071565b9050919050565b6000602082019050818103600083015261464181614094565b9050919050565b60006020820190508181036000830152614661816140b7565b9050919050565b60006020820190508181036000830152614681816140da565b9050919050565b600060208201905081810360008301526146a1816140fd565b9050919050565b600060208201905081810360008301526146c181614120565b9050919050565b600060208201905081810360008301526146e181614143565b9050919050565b6000602082019050818103600083015261470181614166565b9050919050565b6000602082019050818103600083015261472181614189565b9050919050565b60006020820190508181036000830152614741816141ac565b9050919050565b60006020820190508181036000830152614761816141cf565b9050919050565b60006020820190508181036000830152614781816141f2565b9050919050565b600060208201905081810360008301526147a181614215565b9050919050565b600060208201905081810360008301526147c181614238565b9050919050565b600060208201905081810360008301526147e18161425b565b9050919050565b600060208201905081810360008301526148018161427e565b9050919050565b60006020820190508181036000830152614821816142a1565b9050919050565b60006020820190508181036000830152614841816142c4565b9050919050565b60006020820190508181036000830152614861816142e7565b9050919050565b600060208201905081810360008301526148818161430a565b9050919050565b600060208201905081810360008301526148a18161432d565b9050919050565b600060208201905081810360008301526148c181614350565b9050919050565b60006020820190506148dd6000830184614382565b92915050565b60006040820190506148f86000830185614382565b6149056020830184614382565b9392505050565b600060c0820190506149216000830189614382565b61492e6020830188614382565b61493b6040830187614382565b818103606083015261494d8186613efc565b905061495c6080830185613eed565b61496960a0830184614382565b979650505050505050565b600061497e61498f565b905061498a8282614c8c565b919050565b6000604051905090565b600067ffffffffffffffff8211156149b4576149b3614d64565b5b602082029050602081019050919050565b600067ffffffffffffffff8211156149e0576149df614d64565b5b602082029050602081019050919050565b600067ffffffffffffffff821115614a0c57614a0b614d64565b5b614a1582614db5565b9050602081019050919050565b600067ffffffffffffffff821115614a3d57614a3c614d64565b5b614a4682614db5565b9050602081019050919050565b6000819050602082019050919050565b60008190508160005260206000209050919050565b600081519050919050565b600081519050919050565b600081519050919050565b6000602082019050919050565b600082825260208201905092915050565b600082825260208201905092915050565b600082825260208201905092915050565b600081905092915050565b6000614aef82614bea565b9150614afa83614bea565b9250827fffffffffffffffffffffffffffffffffffffffffffffffffffffffffffffffff03821115614b2f57614b2e614d06565b5b828201905092915050565b6000614b4582614bea565b9150614b5083614bea565b925082821015614b6357614b62614d06565b5b828203905092915050565b6000614b7982614bca565b9050919050565b60008115159050919050565b60007fffffffff0000000000000000000000000000000000000000000000000000000082169050919050565b6000614bc382614b6e565b9050919050565b600073ffffffffffffffffffffffffffffffffffffffff82169050919050565b6000819050919050565b6000614bff82614c06565b9050919050565b6000614c1182614bca565b9050919050565b82818337600083830152505050565b60005b83811015614c45578082015181840152602081019050614c2a565b83811115614c54576000848401525b50505050565b60006002820490506001821680614c7257607f821691505b60208210811415614c8657614c85614d35565b5b50919050565b614c9582614db5565b810181811067ffffffffffffffff82111715614cb457614cb3614d64565b5b80604052505050565b6000614cc882614bea565b91507fffffffffffffffffffffffffffffffffffffffffffffffffffffffffffffffff821415614cfb57614cfa614d06565b5b600182019050919050565b7f4e487b7100000000000000000000000000000000000000000000000000000000600052601160045260246000fd5b7f4e487b7100000000000000000000000000000000000000000000000000000000600052602260045260246000fd5b7f4e487b7100000000000000000000000000000000000000000000000000000000600052604160045260246000fd5b600060033d1115614db25760046000803e614daf600051614dc6565b90505b90565b6000601f19601f8301169050919050565b60008160e01c9050919050565b7f455243313135353a207472616e7366657220746f206e6f6e204552433131353560008201527f526563656976657220696d706c656d656e746572000000000000000000000000602082015250565b7f6f70656e2077696e646f77206d757374206265206265666f726520636c6f736560008201527f2077696e646f7700000000000000000000000000000000000000000000000000602082015250565b7f455243313135353a204552433131353552656365697665722072656a6563746560008201527f6420746f6b656e73000000000000000000000000000000000000000000000000602082015250565b7f5061757361626c653a206e6f7420706175736564000000000000000000000000600082015250565b7f455243313135353a2062616c616e636520717565727920666f7220746865207a60008201527f65726f2061646472657373000000000000000000000000000000000000000000602082015250565b7f4f776e61626c653a206e6577206f776e657220697320746865207a65726f206160008201527f6464726573730000000000000000000000000000000000000000000000000000602082015250565b7f455243313135353a206275726e20616d6f756e7420657863656564732062616c60008201527f616e636500000000000000000000000000000000000000000000000000000000602082015250565b7f455243313135355061757361626c653a20746f6b656e207472616e736665722060008201527f7768696c65207061757365640000000000000000000000000000000000000000602082015250565b7f455243313135353a2063616c6c6572206973206e6f74206f776e6572206e6f7260008201527f20617070726f7665640000000000000000000000000000000000000000000000602082015250565b7f54686174204e465420646f6573206e6f74206578697374000000000000000000600082015250565b7f5061757361626c653a2070617573656400000000000000000000000000000000600082015250565b7f455243313135353a207472616e7366657220746f20746865207a65726f20616460008201527f6472657373000000000000000000000000000000000000000000000000000000602082015250565b7f455243313135353a207472616e736665722063616c6c6572206973206e6f742060008201527f6f776e6572206e6f7220617070726f7665640000000000000000000000000000602082015250565b7f455243313135353a206275726e2066726f6d20746865207a65726f206164647260008201527f6573730000000000000000000000000000000000000000000000000000000000602082015250565b7f455243313135353a20696e73756666696369656e742062616c616e636520666f60008201527f72207472616e7366657200000000000000000000000000000000000000000000602082015250565b7f436c61696d3a2074696d652077696e646f7720636c6f73656400000000000000600082015250565b7f4f776e61626c653a2063616c6c6572206973206e6f7420746865206f776e6572600082015250565b7f6e6f7420656e6f7567682066756e647320617070726f76656400000000000000600082015250565b7f5552493a206e6f6e6578697374656e7420746f6b656e00000000000000000000600082015250565b7f77696e646f772063616e6e6f7420626520300000000000000000000000000000600082015250565b7f4d617820737570706c7920726561636865640000000000000000000000000000600082015250565b7f455243313135353a2073657474696e6720617070726f76616c2073746174757360008201527f20666f722073656c660000000000000000000000000000000000000000000000602082015250565b7f455243313135353a206163636f756e747320616e6420696473206c656e67746860008201527f206d69736d617463680000000000000000000000000000000000000000000000602082015250565b7f455243313135353a2069647320616e6420616d6f756e7473206c656e6774682060008201527f6d69736d61746368000000000000000000000000000000000000000000000000602082015250565b7f455243313135353a206d696e7420746f20746865207a65726f2061646472657360008201527f7300000000000000000000000000000000000000000000000000000000000000602082015250565b7f50757263686173696e6720697320706175736564000000000000000000000000600082015250565b600060443d101561546d576154f0565b61547561498f565b60043d036004823e80513d602482011167ffffffffffffffff8211171561549d5750506154f0565b808201805167ffffffffffffffff8111156154bb57505050506154f0565b80602083010160043d0385018111156154d85750505050506154f0565b6154e782602001850186614c8c565b82955050505050505b90565b6154fc81614b6e565b811461550757600080fd5b50565b61551381614b80565b811461551e57600080fd5b50565b61552a81614b8c565b811461553557600080fd5b50565b61554181614bb8565b811461554c57600080fd5b50565b61555881614bea565b811461556357600080fd5b5056fea26469706673582212201e5f2218504e7bf7647c3957f0af90e32dd1d73f0dead2373a34f98ac0ae79fc64736f6c63430008040033",
  "linkReferences": {},
  "deployedLinkReferences": {}
}