{
  "_format": "hh-sol-artifact-1",
  "contractName": "Rebaser",
  "sourceName": "contracts/Rebase.sol",
  "abi": [
    {
      "inputs": [],
      "stateMutability": "nonpayable",
      "type": "constructor"
    },
    {
      "anonymous": false,
      "inputs": [
        {
          "indexed": true,
          "internalType": "uint256",
          "name": "epoch",
          "type": "uint256"
        },
        {
          "indexed": false,
          "internalType": "uint256",
          "name": "rebase",
          "type": "uint256"
        },
        {
          "indexed": false,
          "internalType": "uint256",
          "name": "index",
          "type": "uint256"
        }
      ],
      "name": "LogRebase",
      "type": "event"
    },
    {
      "anonymous": false,
      "inputs": [
        {
          "indexed": false,
          "internalType": "address",
          "name": "stakingContract",
          "type": "address"
        }
      ],
      "name": "LogStakingContractUpdated",
      "type": "event"
    },
    {
      "anonymous": false,
      "inputs": [
        {
          "indexed": true,
          "internalType": "uint256",
          "name": "epoch",
          "type": "uint256"
        },
        {
          "indexed": false,
          "internalType": "uint256",
          "name": "timestamp",
          "type": "uint256"
        },
        {
          "indexed": false,
          "internalType": "uint256",
          "name": "totalSupply",
          "type": "uint256"
        }
      ],
      "name": "LogSupply",
      "type": "event"
    },
    {
      "anonymous": false,
      "inputs": [
        {
          "indexed": true,
          "internalType": "address",
          "name": "previousOwner",
          "type": "address"
        },
        {
          "indexed": true,
          "internalType": "address",
          "name": "newOwner",
          "type": "address"
        }
      ],
      "name": "OwnershipTransferred",
      "type": "event"
    },
    {
      "inputs": [],
      "name": "INDEX",
      "outputs": [
        {
          "internalType": "uint256",
          "name": "",
          "type": "uint256"
        }
      ],
      "stateMutability": "view",
      "type": "function"
    },
    {
      "inputs": [
        {
          "internalType": "uint256",
          "name": "gons",
          "type": "uint256"
        }
      ],
      "name": "balanceForGons",
      "outputs": [
        {
          "internalType": "uint256",
          "name": "",
          "type": "uint256"
        }
      ],
      "stateMutability": "view",
      "type": "function"
    },
    {
      "inputs": [],
      "name": "circulatingSupply",
      "outputs": [
        {
          "internalType": "uint256",
          "name": "",
          "type": "uint256"
        }
      ],
      "stateMutability": "view",
      "type": "function"
    },
    {
      "inputs": [
        {
          "internalType": "uint256",
          "name": "amount",
          "type": "uint256"
        }
      ],
      "name": "gonsForBalance",
      "outputs": [
        {
          "internalType": "uint256",
          "name": "",
          "type": "uint256"
        }
      ],
      "stateMutability": "view",
      "type": "function"
    },
    {
      "inputs": [],
      "name": "index",
      "outputs": [
        {
          "internalType": "uint256",
          "name": "",
          "type": "uint256"
        }
      ],
      "stateMutability": "view",
      "type": "function"
    },
    {
      "inputs": [
        {
          "internalType": "address",
          "name": "stakingContract_",
          "type": "address"
        },
        {
          "internalType": "address",
          "name": "stakedToken_",
          "type": "address"
        },
        {
          "internalType": "uint256",
          "name": "stakedTokenId_",
          "type": "uint256"
        }
      ],
      "name": "initialize",
      "outputs": [
        {
          "internalType": "bool",
          "name": "",
          "type": "bool"
        }
      ],
      "stateMutability": "nonpayable",
      "type": "function"
    },
    {
      "inputs": [],
      "name": "initializer",
      "outputs": [
        {
          "internalType": "address",
          "name": "",
          "type": "address"
        }
      ],
      "stateMutability": "view",
      "type": "function"
    },
    {
      "inputs": [],
      "name": "owner",
      "outputs": [
        {
          "internalType": "address",
          "name": "",
          "type": "address"
        }
      ],
      "stateMutability": "view",
      "type": "function"
    },
    {
      "inputs": [
        {
          "internalType": "uint256",
          "name": "profit_",
          "type": "uint256"
        },
        {
          "internalType": "uint256",
          "name": "epoch_",
          "type": "uint256"
        }
      ],
      "name": "rebase",
      "outputs": [
        {
          "internalType": "uint256",
          "name": "",
          "type": "uint256"
        }
      ],
      "stateMutability": "nonpayable",
      "type": "function"
    },
    {
      "inputs": [
        {
          "internalType": "uint256",
          "name": "",
          "type": "uint256"
        }
      ],
      "name": "rebases",
      "outputs": [
        {
          "internalType": "uint256",
          "name": "epoch",
          "type": "uint256"
        },
        {
          "internalType": "uint256",
          "name": "rebase",
          "type": "uint256"
        },
        {
          "internalType": "uint256",
          "name": "totalStakedBefore",
          "type": "uint256"
        },
        {
          "internalType": "uint256",
          "name": "totalStakedAfter",
          "type": "uint256"
        },
        {
          "internalType": "uint256",
          "name": "amountRebased",
          "type": "uint256"
        },
        {
          "internalType": "uint256",
          "name": "index",
          "type": "uint256"
        },
        {
          "internalType": "uint256",
          "name": "blockNumberOccured",
          "type": "uint256"
        }
      ],
      "stateMutability": "view",
      "type": "function"
    },
    {
      "inputs": [],
      "name": "renounceOwnership",
      "outputs": [],
      "stateMutability": "nonpayable",
      "type": "function"
    },
    {
      "inputs": [
        {
          "internalType": "uint256",
          "name": "_INDEX",
          "type": "uint256"
        }
      ],
      "name": "setIndex",
      "outputs": [
        {
          "internalType": "bool",
          "name": "",
          "type": "bool"
        }
      ],
      "stateMutability": "nonpayable",
      "type": "function"
    },
    {
      "inputs": [],
      "name": "stakedToken",
      "outputs": [
        {
          "internalType": "contract IERC1155",
          "name": "",
          "type": "address"
        }
      ],
      "stateMutability": "view",
      "type": "function"
    },
    {
      "inputs": [],
      "name": "stakedTokenId",
      "outputs": [
        {
          "internalType": "uint256",
          "name": "",
          "type": "uint256"
        }
      ],
      "stateMutability": "view",
      "type": "function"
    },
    {
      "inputs": [],
      "name": "stakingContract",
      "outputs": [
        {
          "internalType": "address",
          "name": "",
          "type": "address"
        }
      ],
      "stateMutability": "view",
      "type": "function"
    },
    {
      "inputs": [
        {
          "internalType": "address",
          "name": "newOwner",
          "type": "address"
        }
      ],
      "name": "transferOwnership",
      "outputs": [],
      "stateMutability": "nonpayable",
      "type": "function"
    }
  ],
  "bytecode": "0x60806040523480156200001157600080fd5b506200003262000026620000c260201b60201c565b620000ca60201b60201c565b33600260006101000a81548173ffffffffffffffffffffffffffffffffffffffff021916908373ffffffffffffffffffffffffffffffffffffffff1602179055506611c37937e080006005819055506005546611c37937e080006000196200009b91906200020b565b600019620000aa9190620001c6565b620000b691906200018e565b600881905550620002a1565b600033905090565b60008060009054906101000a900473ffffffffffffffffffffffffffffffffffffffff169050816000806101000a81548173ffffffffffffffffffffffffffffffffffffffff021916908373ffffffffffffffffffffffffffffffffffffffff1602179055508173ffffffffffffffffffffffffffffffffffffffff168173ffffffffffffffffffffffffffffffffffffffff167f8be0079c531659141344cd1fd0a4f28419497f9722a3daafe3b4186f6b6457e060405160405180910390a35050565b60006200019b8262000201565b9150620001a88362000201565b925082620001bb57620001ba62000272565b5b828204905092915050565b6000620001d38262000201565b9150620001e08362000201565b925082821015620001f657620001f562000243565b5b828203905092915050565b6000819050919050565b6000620002188262000201565b9150620002258362000201565b92508262000238576200023762000272565b5b828206905092915050565b7f4e487b7100000000000000000000000000000000000000000000000000000000600052601160045260246000fd5b7f4e487b7100000000000000000000000000000000000000000000000000000000600052601260045260246000fd5b6112b380620002b16000396000f3fe608060405234801561001057600080fd5b50600436106101005760003560e01c80637965d56d11610097578063b73f88b911610066578063b73f88b9146102cb578063cc7a262e146102e9578063ee99205c14610307578063f2fde38b1461032557610100565b80637965d56d146102415780638da5cb5b146102715780639358928b1461028f5780639ce110d7146102ad57610100565b80632df75cb1116100d35780632df75cb1146101b357806340a5737f146101d1578063715018a61461020157806373c69eb71461020b57610100565b8063058ecdb4146101055780631794bb3c146101355780631bd39674146101655780632986c0e514610195575b600080fd5b61011f600480360381019061011a9190610d41565b610341565b60405161012c9190610ef1565b60405180910390f35b61014f600480360381019061014a9190610ca0565b6104fb565b60405161015c9190610e52565b60405180910390f35b61017f600480360381019061017a9190610cef565b610725565b60405161018c9190610ef1565b60405180910390f35b61019d61073c565b6040516101aa9190610ef1565b60405180910390f35b6101bb61074e565b6040516101c89190610ef1565b60405180910390f35b6101eb60048036038101906101e69190610cef565b610754565b6040516101f89190610e52565b60405180910390f35b6102096107f9565b005b61022560048036038101906102209190610cef565b610881565b6040516102389796959493929190610f35565b60405180910390f35b61025b60048036038101906102569190610cef565b6108d3565b6040516102689190610ef1565b60405180910390f35b6102796108ea565b6040516102869190610e0e565b60405180910390f35b610297610913565b6040516102a49190610ef1565b60405180910390f35b6102b56109fc565b6040516102c29190610e0e565b60405180910390f35b6102d3610a22565b6040516102e09190610ef1565b60405180910390f35b6102f1610a28565b6040516102fe9190610e6d565b60405180910390f35b61030f610a4e565b60405161031c9190610e0e565b60405180910390f35b61033f600480360381019061033a9190610c77565b610a74565b005b6000600160009054906101000a900473ffffffffffffffffffffffffffffffffffffffff1673ffffffffffffffffffffffffffffffffffffffff163373ffffffffffffffffffffffffffffffffffffffff161461039d57600080fd5b6000806103a8610913565b9050600085141561043d57837f917acfbe39be6509ccf7fecb66a7e42ce2be1083c2d7dd3b9b7491dabddb8da4426005546040516103e7929190610f0c565b60405180910390a2837f6012dbce857565c4a40974aa5de8373a761fc429077ef0c8c8611d1e20d63fb2600061041b61073c565b604051610429929190610e88565b60405180910390a2600554925050506104f5565b6000811115610466578060055486610455919061103c565b61045f919061100b565b915061046a565b8491505b816005546104789190610fb5565b6005819055506000196fffffffffffffffffffffffffffffffff1660055411156104b8576000196fffffffffffffffffffffffffffffffff166005819055505b6005546611c37937e080006000196104d09190611148565b6000196104dd9190611096565b6104e7919061100b565b600881905550600554925050505b92915050565b6000600260009054906101000a900473ffffffffffffffffffffffffffffffffffffffff1673ffffffffffffffffffffffffffffffffffffffff163373ffffffffffffffffffffffffffffffffffffffff161461055757600080fd5b600073ffffffffffffffffffffffffffffffffffffffff168473ffffffffffffffffffffffffffffffffffffffff16141561059157600080fd5b83600160006101000a81548173ffffffffffffffffffffffffffffffffffffffff021916908373ffffffffffffffffffffffffffffffffffffffff16021790555082600660006101000a81548173ffffffffffffffffffffffffffffffffffffffff021916908373ffffffffffffffffffffffffffffffffffffffff160217905550816007819055506611c37937e0800060001961062f9190611148565b60001961063c9190611096565b60096000600160009054906101000a900473ffffffffffffffffffffffffffffffffffffffff1673ffffffffffffffffffffffffffffffffffffffff1673ffffffffffffffffffffffffffffffffffffffff168152602001908152602001600020819055507f817c653428858ed536dc085c5d8273734c517b55de44b55f5c5877a75e3373a1846040516106d09190610e0e565b60405180910390a16000600260006101000a81548173ffffffffffffffffffffffffffffffffffffffff021916908373ffffffffffffffffffffffffffffffffffffffff160217905550600190509392505050565b600060085482610735919061103c565b9050919050565b60006107496004546108d3565b905090565b60045481565b600061075e610b6c565b73ffffffffffffffffffffffffffffffffffffffff1661077c6108ea565b73ffffffffffffffffffffffffffffffffffffffff16146107d2576040517f08c379a00000000000000000000000000000000000000000000000000000000081526004016107c990610ed1565b60405180910390fd5b6000600454146107e157600080fd5b6107ea82610725565b60048190555060019050919050565b610801610b6c565b73ffffffffffffffffffffffffffffffffffffffff1661081f6108ea565b73ffffffffffffffffffffffffffffffffffffffff1614610875576040517f08c379a000000000000000000000000000000000000000000000000000000000815260040161086c90610ed1565b60405180910390fd5b61087f6000610b74565b565b6003818154811061089157600080fd5b90600052602060002090600702016000915090508060000154908060010154908060020154908060030154908060040154908060050154908060060154905087565b6000600854826108e3919061100b565b9050919050565b60008060009054906101000a900473ffffffffffffffffffffffffffffffffffffffff16905090565b600061091d61073c565b600660009054906101000a900473ffffffffffffffffffffffffffffffffffffffff1673ffffffffffffffffffffffffffffffffffffffff1662fdd58e600160009054906101000a900473ffffffffffffffffffffffffffffffffffffffff166007546040518363ffffffff1660e01b815260040161099d929190610e29565b60206040518083038186803b1580156109b557600080fd5b505afa1580156109c9573d6000803e3d6000fd5b505050506040513d601f19601f820116820180604052508101906109ed9190610d18565b6109f7919061103c565b905090565b600260009054906101000a900473ffffffffffffffffffffffffffffffffffffffff1681565b60075481565b600660009054906101000a900473ffffffffffffffffffffffffffffffffffffffff1681565b600160009054906101000a900473ffffffffffffffffffffffffffffffffffffffff1681565b610a7c610b6c565b73ffffffffffffffffffffffffffffffffffffffff16610a9a6108ea565b73ffffffffffffffffffffffffffffffffffffffff1614610af0576040517f08c379a0000000000000000000000000000000000000000000000000000000008152600401610ae790610ed1565b60405180910390fd5b600073ffffffffffffffffffffffffffffffffffffffff168173ffffffffffffffffffffffffffffffffffffffff161415610b60576040517f08c379a0000000000000000000000000000000000000000000000000000000008152600401610b5790610eb1565b60405180910390fd5b610b6981610b74565b50565b600033905090565b60008060009054906101000a900473ffffffffffffffffffffffffffffffffffffffff169050816000806101000a81548173ffffffffffffffffffffffffffffffffffffffff021916908373ffffffffffffffffffffffffffffffffffffffff1602179055508173ffffffffffffffffffffffffffffffffffffffff168173ffffffffffffffffffffffffffffffffffffffff167f8be0079c531659141344cd1fd0a4f28419497f9722a3daafe3b4186f6b6457e060405160405180910390a35050565b600081359050610c478161124f565b92915050565b600081359050610c5c81611266565b92915050565b600081519050610c7181611266565b92915050565b600060208284031215610c8957600080fd5b6000610c9784828501610c38565b91505092915050565b600080600060608486031215610cb557600080fd5b6000610cc386828701610c38565b9350506020610cd486828701610c38565b9250506040610ce586828701610c4d565b9150509250925092565b600060208284031215610d0157600080fd5b6000610d0f84828501610c4d565b91505092915050565b600060208284031215610d2a57600080fd5b6000610d3884828501610c62565b91505092915050565b60008060408385031215610d5457600080fd5b6000610d6285828601610c4d565b9250506020610d7385828601610c4d565b9150509250929050565b610d86816110ca565b82525050565b610d95816110dc565b82525050565b610da481611112565b82525050565b610db381611136565b82525050565b6000610dc6602683610fa4565b9150610dd1826111d7565b604082019050919050565b6000610de9602083610fa4565b9150610df482611226565b602082019050919050565b610e0881611108565b82525050565b6000602082019050610e236000830184610d7d565b92915050565b6000604082019050610e3e6000830185610d7d565b610e4b6020830184610dff565b9392505050565b6000602082019050610e676000830184610d8c565b92915050565b6000602082019050610e826000830184610d9b565b92915050565b6000604082019050610e9d6000830185610daa565b610eaa6020830184610dff565b9392505050565b60006020820190508181036000830152610eca81610db9565b9050919050565b60006020820190508181036000830152610eea81610ddc565b9050919050565b6000602082019050610f066000830184610dff565b92915050565b6000604082019050610f216000830185610dff565b610f2e6020830184610dff565b9392505050565b600060e082019050610f4a600083018a610dff565b610f576020830189610dff565b610f646040830188610dff565b610f716060830187610dff565b610f7e6080830186610dff565b610f8b60a0830185610dff565b610f9860c0830184610dff565b98975050505050505050565b600082825260208201905092915050565b6000610fc082611108565b9150610fcb83611108565b9250827fffffffffffffffffffffffffffffffffffffffffffffffffffffffffffffffff0382111561100057610fff611179565b5b828201905092915050565b600061101682611108565b915061102183611108565b925082611031576110306111a8565b5b828204905092915050565b600061104782611108565b915061105283611108565b9250817fffffffffffffffffffffffffffffffffffffffffffffffffffffffffffffffff048311821515161561108b5761108a611179565b5b828202905092915050565b60006110a182611108565b91506110ac83611108565b9250828210156110bf576110be611179565b5b828203905092915050565b60006110d5826110e8565b9050919050565b60008115159050919050565b600073ffffffffffffffffffffffffffffffffffffffff82169050919050565b6000819050919050565b600061111d82611124565b9050919050565b600061112f826110e8565b9050919050565b600061114182611108565b9050919050565b600061115382611108565b915061115e83611108565b92508261116e5761116d6111a8565b5b828206905092915050565b7f4e487b7100000000000000000000000000000000000000000000000000000000600052601160045260246000fd5b7f4e487b7100000000000000000000000000000000000000000000000000000000600052601260045260246000fd5b7f4f776e61626c653a206e6577206f776e657220697320746865207a65726f206160008201527f6464726573730000000000000000000000000000000000000000000000000000602082015250565b7f4f776e61626c653a2063616c6c6572206973206e6f7420746865206f776e6572600082015250565b611258816110ca565b811461126357600080fd5b50565b61126f81611108565b811461127a57600080fd5b5056fea264697066735822122080209ec51e47ebe0b74be83fa1bd8be29aa2f19a908e77873751a7a2fc143c2c64736f6c63430008040033",
  "linkReferences": {},
  "deployedLinkReferences": {}
}